:04000005080000ED02
:020000040800F2
:10000000304A0020CD010008FB010008211700083C
:10001000FF0100080102000803020008E494FFAF9A
:10002000939D939B08999697020100000502000892
:10003000070200087C6F000809020008B1170008D9
:100040000D0200080D0200080D0200080D02000854
:100050000D0200080D0200080D0200080D02000844
:100060000D0200080D0200080D0200080D02000834
:100070000D0200080D0200080D0200080D02000824
:100080000D0200080D0200080D0200080D02000814
:10009000A13200080D0200080D0200080D02000840
:1000A0000D0200080D0200080D0200080D020008F4
:1000B0000D0200080D0200080D0200080D020008E4
:1000C0000D0200080D0200080D0200080D020008D4
:1000D0000D0200080D020008611A00080D02000858
:1000E0000D0200080D0200080D02000800F002F8E1
:1000F00000F05AF80AA090E8000C82448344AAF168
:100100000107DA4501D100F04FF8AFF2090EBAE865
:100110000F0013F0010F18BFFB1A43F0010318473B
:10012000847E0000A47E00000A444FF0000C10F80A
:10013000013B13F0070408BF10F8014B1D1108BF65
:1001400010F8015B641E05D010F8016B641E01F805
:10015000016BF9D113F0080F1EBF10F8014BAD1C55
:100160000C1B09D16D1E58BF01F801CBFAD505E073
:1001700014F8016B01F8016B6D1EF9D59142D6D3CD
:10018000704700000023002400250026103A28BFF5
:1001900078C1FBD8520728BF30C148BF0B607047F9
:1001A0001FB51FBD10B510BD00F051FA1146FFF785
:1001B000F7FF04F015FC00F06FFA03B4FFF7F2FF4D
:1001C00003BC00F077FA00008546084713484FF05B
:1001D00001010160124A134B1360134B1360134B60
:1001E0001360134B9361134C4FF0A53525604FF00E
:1001F00000011148804711480047FEE7FEE7FEE78F
:10020000FEE7FEE7FEE7FEE7FEE7FEE7FEE70000AB
:100210000B480C490C4A0D4B70470000F01002408F
:10022000006C0140863AD9A7CDDF12AB2635EDCD63
:10023000FF8301208C22024029180008ED000008ED
:1002400030440020304A0020304600203046002054
:10025000B2F120030AD5C2F1200320FA02F001FA1C
:1002600003F321FA02F140EA0300704721FA03F098
:100270004FF00001704740EA010310B59B070FD112
:10028000042A0DD310C808C9121F9C42F8D020BA06
:1002900019BA884201D9012010BD4FF0FF3010BDBE
:1002A0001AB1D30703D0521C07E0002010BD10F88C
:1002B000013B11F8014B1B1B07D110F8013B11F852
:1002C000014B1B1B01D1921EF1D1184610BD10B578
:1002D000431C02E010F8011B71B18107FAD14FF005
:1002E000013202C88C1A8C4314EAC211F9D0C01A28
:1002F0000A0603D0C01E10BDC01A10BD0A0401D0EA
:10030000801E10BD0902FCD0401E10BD40EA010352
:1003100070B59B072ED14FF00136042A2AD308C8A6
:1003200010C99D1B9D43121F15EAC61517D0D8B2E0
:10033000E1B2401A50EA056110D198B2A1B2401A58
:1003400050EA05410AD123F07F4024F07F41401A52
:1003500050EA052102D1180EA0EB146070BDA34233
:10036000DBD018BA21BA884201D9012070BD4FF004
:10037000FF3070BD0AB9002070BD10F8013B11F8C4
:10038000014B63B1A3420AD1521E08D010F8013BC1
:1003900011F8014B1BB1A34201D1521EEDD1181B24
:1003A00070BD421E12F8013F002BFBD111F8013B3A
:1003B000002B02F8013BF9D17047032A40F230804C
:1003C00010F0030C00F0158011F8013BBCF1020F96
:1003D000624498BF11F801CB00F8013B38BF11F817
:1003E000013BA2F1040298BF00F801CB38BF00F82E
:1003F000013B11F0030300F06780083AC0F0088069
:1004000051F8043B083A51F804CBA0E80810F5E78E
:10041000121D5CBF51F8043B40F8043BAFF3008071
:10042000D20724BF11F8013B11F801CB48BF11F8E6
:10043000012B24BF00F8013B00F801CB48BF00F8B6
:10044000012B7047431A28BF9A427FF6B6AF032AA2
:100450001044114440F2268010F0030F1EBF11F823
:10046000013D521E00F8013D10F0030F7FF4F6AF7E
:1004700011F0030300F0C180083AC0F00B8051F87E
:10048000043D083A51F804CD40F8043D40F804CD4D
:10049000FFF7F3BF121D5CBF51F8043D40F8043D67
:1004A000AFF30080D20724BF11F8013D11F801CD50
:1004B00048BF11F8012C24BF00F8013D00F801CD20
:1004C00048BF00F8012C704710B5203AC0F00B80EF
:1004D000B1E81850203AA0E81850B1E81850A0E848
:1004E0001850BFF4F5AF5FEA027C24BFB1E81850A2
:1004F000A0E8185044BF18C918C0BDE810405FEA12
:10050000827C24BF51F8043B40F8043B08BF70478D
:10051000D20728BF31F8023B48BF11F8012B28BF92
:1005200020F8023B48BF00F8012B704702F0FF03A0
:1005300043EA032242EA024200F002B84FF000020E
:100540000429C0F0128010F0030C00F01B80CCF1E5
:10055000040CBCF1020F18BF00F8012BA8BF20F853
:10056000022BA1EB0C0100F00DB85FEAC17C24BFA7
:1005700000F8012B00F8012B48BF00F8012B704751
:100580004FF0000200B5134694469646203922BF2C
:10059000A0E80C50A0E80C50B1F12001BFF4F7AF77
:1005A000090728BFA0E80C5048BF0CC05DF804EB59
:1005B000890028BF40F8042B08BF704748BF20F8C7
:1005C000022B11F0804F18BF00F8012B70477047C5
:1005D00070477047431A28BF9A427FF675AF1044A0
:1005E00010F0030F11441EBF11F8013D521E00F818
:1005F000013D10F0030F7FF4F6AF103AC0F00A800F
:1006000010B531E91850103A20E91850BFF4F9AF8D
:10061000BDE81040530724BF31E9081020E9081055
:1006200044BF51F8043D40F8043D12F0030F08BFE9
:100630007047D20728BF31F8023D48BF11F8012C9E
:1006400028BF20F8023D48BF00F8012C70477546CE
:1006500000F02CF8AE4605006946534620F007002E
:10066000854618B020B5FFF7D3FDBDE820404FF018
:1006700000064FF000074FF000084FF0000B21F08C
:100680000701AC46ACE8C009ACE8C009ACE8C00959
:10069000ACE8C0098D46704710B50446AFF3008042
:1006A0002046BDE81040FFF788BD000000487047B5
:1006B000D043002001491820ABBEFEE7260002000F
:1006C000704700002DE9F84F1E4D824601209046EC
:1006D0008B464FF00009C5F8F0001C4C1A4820600A
:1006E0001B4820601B482060184E18363068009068
:1006F00019483060194F4FF0A530C7F88C021848E0
:1007000001230022D0F80CC04146584607F5237754
:10071000E047686820F4403040EA0A0068600098CA
:100720003060C5F8F0900848C04320600848C043D6
:1007300020600848C04320604FF05A3038600120E4
:10074000BDE8F88F00100240863AD9A7006C01403E
:10075000CDDF12AB2635EDCDFF8301200020024016
:1007600000D0FF1F01078A0E07490A44D2F8001C77
:10077000000602D548F6CF7001E04CF68F700140BC
:10078000C2F8001C70470000005000400207930EA2
:100790000C4A30B51344D3F8002C000648F68F7489
:1007A00002EA040048F2800582EA010202D502F062
:1007B000300101E002F4405108432843C3F8000C23
:1007C00030BD00000050004030B585B00546002423
:1007D00000F03CF90120002103900091CDE90115C2
:1007E00004A9684600F092F800B1012400F0E2F894
:1007F00005B0204630BD000006490020C86106480B
:10080000016941F004010161016941F040010161A8
:10081000704700007019002000200240064A0021A5
:10082000D16106490A6942F002020A614861086919
:1008300040F040000861704770190020002002401D
:10084000044B0022DA61044A136943F00103136187
:100850000180704770190020002002400E49C868CE
:10086000C2060E4803D5C26942F00202C261CA68DC
:10087000520703D5C26942F00102C261CA69D207B8
:1008800007D0C26942F00402C261C86920F00100C9
:10089000C8611420C8607047002002407019002011
:1008A00070B5044600F0CEF90546114E09E0601C13
:1008B00007D024B100F0C6F9401BA04201D90320A3
:1008C00070BDF068C007F2D1F068800601D5202025
:1008D000F060F068C00605D4F069C00702D1F06886
:1008E000400703D5FFF7BAFF012070BD002070BD9F
:1008F0000020024031B500F0A5F9044600F0A2F94D
:100900000099001B8842F9D338BD00002DE9F0475B
:10091000054626480F460126017E01290FD00121F8
:10092000814601762868DFF888804CF2503402282E
:1009300008D0A2462046FFF7B3FFA8B131E002205D
:10094000BDE8F0872046FFF7ABFF08BB0120FFF7AB
:1009500053FF2046FFF7A4FFD8F81010064621F0F9
:100960000401C8F810101CE04FF0FF303860AC688C
:1009700011E02046FFF752FF5046FFF791FFD8F8ED
:100980001010060021F00201C8F8101001D03C60E0
:1009900007E004F58064D5E9020100EB8120A04264
:1009A000E7D8002189F818103046C9E770190020EF
:1009B000002002400348016941F0800101610020EC
:1009C00070470000002002402DE9F05F05461D48F9
:1009D00088460024017E16461F46012909D00121C0
:1009E000814601764CF2503A5046FFF759FF18B154
:1009F00023E00220BDE8F09F012D02D0022D00D09F
:100A00000425D346DFF840A015E0220130463946E0
:100A1000FFF71EFC81B208EB4400FFF711FF5846B8
:100A2000FFF73EFFDAF8102022F00102CAF810208A
:100A300018B9641CE4B2AC42E7D3002289F818204C
:100A4000D8E7000070190020002002400548016925
:100A5000090605D5044941600449416000207047FA
:100A6000012070470020024023016745AB89EFCD8C
:100A70002DE9F84FDFF8A091002309F1040A0AF1EB
:100A8000040B1C464FF00F080BF1040E01270A68F7
:100A9000A7403A40BA4272D1DFF880C14D68A5EB59
:100AA0000C0665452BD00DDC032D34D005DC35B3A9
:100AB000012D19D0022D2FD11BE0112D16D0122D92
:100AC0002AD119E0B6F5881F19D006DCB6F5803FAB
:100AD00015D0B6F5801F1FD111E0B6F5001F0ED05E
:100AE000B6F5041F18D10AE0CB6815E0CB681B1DD2
:100AF00012E0CB6808330FE0CB680C330CE08B6856
:100B00002BB1012B4FF0080303D0476104E004230D
:100B100002E0076100E00023FF2A01D8064601E059
:100B200000F104064FEA840501D9A5F120053768D4
:100B300008FA05FC27EA0C0703FA05F547EA05075A
:100B400037604D68ED0060D5354DAE6946F0010661
:100B5000AE61AD6924F0030605F001050095314D45
:100B60007719BE68A5072D0F08FA05FC26EA0C06C2
:100B7000DFF8B4C0604503D14FF0000C17E044E04B
:100B8000DFF8A8C0604502D14FF0010C0FE0DFF89C
:100B9000A0C0604502D14FF0020C08E0DFF894C01D
:100BA000604502D14FF0030C01E04FF0040C0CFA49
:100BB00005FC4CEA060CC7F808C04D68D9F800607F
:100BC000ED034D4601D5164300E096432E604D6877
:100BD000DAF80060AD03554601D5164300E09643B0
:100BE0002E604D68DBF80060ED025D4601D51643CE
:100BF00000E096432E604D68DEF80060AD02754659
:100C000001D5164300E096432E60641C102CFFF4BF
:100C10003DAFBDE8F88F0000000401400000111056
:100C2000001002400000014000080140000C01409B
:100C300000100140001401400AB10161704709042D
:100C4000FBE70000EFF3108172B607480068406AC6
:100C5000064B82081868121AC2F30D02104481F381
:100C6000108818607047000030190020C002002072
:100C7000074810B5016841F010010160032000F041
:100C80005DF80F2000F006F800F056F8002010BDC7
:100C90000020024010B588B005A9684600F020F990
:100CA0000398B0F5806F08D0B0F5A06F35D0B0F5DF
:100CB000C06F34D0B0F5E06F33D001201A494FF047
:100CC000804200240968B1FBF0F04FF47A61B0FB78
:100CD000F1F11648491E02604FF6FF72C0E9032485
:100CE000C0E9011444611248C16941F00101C161C8
:100CF000C06900F0010006900C4800F012FC0028CA
:100D000009D10C480460094800F027FC002802D1F2
:100D1000064800F03FFC08B010BD0220CEE70420DA
:100D2000CCE70820CAE70000C402002030190020E8
:100D300000100240C002002070470000064A00F088
:100D4000070110684FF6FF03184040EA01200349ED
:100D500008431060704700000CED00E00000FA0549
:100D60002DE9F047DFF8688104460E46D8F8000008
:100D700000F00700B0420CD2D8F8001021F00701B3
:100D80003143C8F80010D8F8000000F00700B04266
:100D900073D120784F4F800705D57868A16820F07F
:100DA000F000084378602078C00755D060680122C1
:100DB00001280CD0022828D0022393FAA3F1B1FA1B
:100DC00081F141F02001490904D0396803E04FF472
:100DD0000033F2E7796A93FAA3F3B3FA83F303F0EB
:100DE0001F039A40114248D0796821F00301014362
:100DF0007960FFF727FF0546606841F288310128D6
:100E00000CD00228894615D022E04FF00073D4E7B9
:100E1000FFF718FF411B494501D916E0894678685C
:100E2000C0F381000128F3D116E0FFF70BFF411B4F
:100E300049450AD87868C0F381000228F5D10BE053
:100E4000FFF700FF411B494502D90320BDE8F087A9
:100E5000786810F00C0FF3D1D8F80010404601F07C
:100E60000701B1420BD9016821F00701314301604C
:100E7000006800F00700B04201D00120E6E72078CA
:100E8000400705D57868E16820F4E06008437860A1
:100E90002078000706D57868216920F4605040EA80
:100EA000C100786000F03CF87968F02292FAA2F272
:100EB00001F0F001B2FA82F2D140074A515CC84019
:100EC000064908600F20FFF7E5FE0020BEE700009E
:100ED000002002400010024030740008C4020020CC
:100EE0000F2202600C4A536803F003034360536807
:100EF00003F0F0038360536803F4E063C360526857
:100F00004FF4E06303EAD20202610448006800F093
:100F100007000860704700000010024000200240F7
:100F200010B519A085B00FC88DE80F001AA01B4B93
:100F30000068049059681A4801F00C02042A1DD078
:100F4000082A1BD14FF4701494FAA4F401F470121F
:100F5000B4FA84F4E240C9031DF8022010D55968A0
:100F60004FF4003393FAA3F301F40031B3FA83F39F
:100F7000D94004AB595CB0FBF1F0504305B010BD53
:100F800008485043FAE70000020304050607080971
:100F90000A0B0C0D0E0F1010010200000010024091
:100FA00000127A0000093D002DE9F84F0446007850
:100FB000FE4EC0074FF001057FD070684FF4003837
:100FC000C0F38100012807D07068C0F381000228B7
:100FD0001BD17068C00318D598FAA8F0B0FA80F059
:100FE00040F02000400901D0306800E0706A98FAB3
:100FF000A8F1B1FA81F101F01F0105FA01F10842EF
:101000005BD06068002879D057E06068B0F5803F19
:101010000BD010B1B0F5A02F11D0306820F4803083
:101020003060306820F4802002E0306840F4803086
:101030003060606818B3FFF705FE074609E03068C6
:1010400040F480203060F0E7FFF7FCFDC01B64280F
:1010500070D898FAA8F0B0FA80F040F0200040096B
:1010600001D0306800E0706A98FAA8F1B1FA81F115
:1010700001F01F0105FA01F10842E5D01DE0FFF77C
:10108000E1FD074604E0FFF7DDFDC01B6428DFD863
:1010900098FAA8F0B0FA80F040F02000400901D0A2
:1010A000306800E0706A98FAA8F1B1FA81F101F0B5
:1010B0001F0105FA01F10842E5D12078DFF8F0823E
:1010C00080074FF0000A4FF002075AD570684FF0C2
:1010D000F80B10F00C0F07D07068C0F381000228E5
:1010E0001CD17068C00319D497FAA7F0B0FA80F049
:1010F00040F02000400902D0306801E08AE0706AC8
:1011000097FAA7F1B1FA81F101F01F0105FA01F197
:1011100008422BD0206901287CD127E0206988B3C0
:1011200095FAA5F0B0FA80F048F82050FFF78AFD54
:10113000814606E04DE1FFF785FDA0EB090002289E
:1011400086D897FAA7F0B0FA80F040F02000400966
:1011500001D0306800E0706A97FAA7F1B1FA81F126
:1011600001F01F0105FA01F10842E4D030689BFA52
:10117000ABF220F0F8016069B2FA82F290400143CC
:10118000316025E0FFE795FAA5F1B1FA81F148F861
:1011900021A0FFF757FD814605E0FFF753FDA0EBC7
:1011A00009000228CCD897FAA7F0B0FA80F040F0F6
:1011B0002000400901D0306800E0706A97FAA7F17A
:1011C000B1FA81F101F01F0105FA01F10842E4D101
:1011D000207800076DD5A069B8B395FAA5F0B0FAEC
:1011E00080F008EB8000C0F88054FFF72BFD8146AB
:1011F00005E0FFF727FDA0EB09000228A0D897FA29
:10120000A7F0B0FA80F040F06000B5EB501F02D1BB
:1012100030680CE063E197FAA7F0B0FA80F040F094
:101220006000B7EB501F01D1306A00E0706A97FA96
:10123000A7F1B1FA81F101F01F0105FA01F21042A4
:10124000D7D00120FFF756FB33E0FFE795FAA5F171
:10125000B1FA81F108EB8101C1F880A4FFF7F2FC3B
:10126000814605E0FFF7EEFCA0EB0900022899D8C3
:1012700097FAA7F0B0FA80F040F06000B5EB501F8D
:1012800001D130680BE097FAA7F0B0FA80F040F097
:101290006000B7EB501F01D1306A00E0706A97FA26
:1012A000A7F1B1FA81F101F01F0105FA01F2104234
:1012B000D8D12078400763D5F06940F08050F061C4
:1012C000F069DFF8F0B000F080500090DBF800101B
:1012D00041F48071CBF80010FFF7B4FC814605E0C3
:1012E000FFF7B0FCA0EB0900642872D8DBF800001F
:1012F000C005F5D5E06801280AD008B1052813D04B
:10130000306A20F001003062306A20F0040002E010
:10131000306A40F001003062E06841F2883B80B3FF
:10132000FFF790FC81460AE0306A40F0040030622A
:10133000EEE7FFF787FCA0EB0901594549D897FA7A
:10134000A7F0B0FA80F040F04000B5EB501F01D19B
:1013500030680BE097FAA7F0B0FA80F040F0400058
:10136000B7EB501F01D1306A00E0706A97FAA7F11D
:10137000B1FA81F101F01F0205FA02F10842D8D05A
:1013800033E0FFE7FFF75EFC814605E0FFF75AFC1C
:10139000A0EB090159451CD897FAA7F0B0FA80F0E4
:1013A00040F04000B5EB501F08D105E000100240AE
:1013B000000042420070004030680CE097FAA7F04D
:1013C000B0FA80F040F04000B7EB501F02D1306A15
:1013D00001E08AE0706A97FAA7F1B1FA81F101F0B1
:1013E0001F0205FA02F10842D0D1E06998B3716892
:1013F000C1F38101022972D002284FF080714FF0B1
:10140000007B50460AD091FAA1F1B1FA81F148F877
:101410002100FFF717FC04465F4669E08A4691FA0F
:10142000A1F1B1FA81F1C14648F82100FFF70AFCA9
:10143000A84607465D4604E0FFF704FCC01B0228EF
:1014400053D895FAA5F0B0FA80F040F0200040099A
:1014500002D0306801E060E0706A95FAA5F1B1FA57
:1014600081F101F01F0208FA02F10842E4D1206A7A
:10147000B0F5803F05D17068A16820F400300843C2
:101480007060D4E908010843716821F474110843BD
:1014900070609AFAAAF0B0FA80F0474649F82080C6
:1014A000FFF7D0FB044604E0FFF7CCFB001B02284B
:1014B0001BD895FAA5F0B0FA80F040F02000400962
:1014C00001D0306800E0706A95FAA5F1B1FA81F1B7
:1014D00001F01F0107FA01F10842E5D01DE01EE00E
:1014E000FFF7B0FB001B022802D90320BDE8F88FEC
:1014F00097FAA7F0B0FA80F040F02000400901D040
:10150000306800E0706A97FAA7F1B1FA81F101F052
:101510001F0105FA01F10842E2D10020E6E70120AF
:10152000E4E710B50446022084F839002068016A17
:1015300041F21112114207D1016A9210114203D1F6
:10154000016821F001010160204600F021F800202F
:1015500084F8390084F8380010BD10B5040003D0B9
:1015600094F8390010B107E0012010BD002084F884
:101570003800204600F00DF8022084F83900211DC3
:10158000206800F087F9012084F83900002010BDA0
:1015900070477047022180F8391001680A6842F0EC
:1015A00001020A60012180F839100020704770B5EF
:1015B000044690F838000D4601280DD0012684F825
:1015C0003860022084F8390042B1042A18D0082A71
:1015D0002AD00C2A4DD139E0022070BD206800F0DD
:1015E00097F92068816941F008018161206881696B
:1015F00021F004018161206881692A69114311E0A9
:10160000206800F0B1F92068816941F400618161CE
:101610002068816921F480618161206881692A697B
:1016200041EA0221816124E0206800F0CBF92068C2
:10163000C16941F00801C1612068C16921F004015C
:10164000C1612068C1692A69114311E0206800F076
:10165000E5F92068C16941F40061C1612068C16990
:1016600021F48061C1612068C1692A6941EA0221CF
:10167000C16184F83960002084F8380070BD10B56D
:101680000446022084F839002068016A41F21112F0
:10169000114207D1016A9210114203D1016821F071
:1016A00001010160204600F021F8002084F8390093
:1016B00084F8380010BD10B5040003D094F8390048
:1016C00010B107E0012010BD002084F8380020464A
:1016D00000F00DF8022084F83900211D206800F088
:1016E000D9F8012084F83900002010BD70477047F8
:1016F00010B504460068012200F0FEF80749206892
:10170000884203D1416C41F4004141642068016882
:1017100041F001010160002010BD0000002C0140DB
:1017200001F020FE002070472DE9F04117460D46DC
:1017300080460026FFF78AF9A80706D000206E220F
:101740000DA101F065FE00240DE00120F7E757F838
:10175000242008EB840100230220FFF735F908B1AB
:10176000012603E0641CB4EB950FF0D3FFF722F9D8
:101770003046BDE8F08100002866696C65290000EC
:10178000034600205909094A01290AD002290AD032
:10179000516A03F01F02012393400B4200D0012045
:1017A00070471168F5E7116AF3E700000010024086
:1017B00010B50B4CE16849B1206938B12268B2FB21
:1017C000F0F300FB132008B9002088472068401C74
:1017D0002060A068002802D0A068401EA06010BD54
:1017E000E80200200B4B58680B4A0C4910F00C0023
:1017F00003D0042801D0082801D00A6001E008487D
:1018000008605868074AC0F30310105C0A68C240B9
:101810000A6070470010024000127A00C4020020E3
:1018200000E6DF0C307400080D48016841F001014A
:10183000016041680B4A1140416001680A4A114049
:101840000160016821F480210160416821F4FE01FA
:1018500041604FF41F0181600449C0030860704774
:10186000001002400000FFF8FFFFF6FE08ED00E068
:10187000BFF34F8F05480168054A01F4E061114349
:101880000160BFF34F8F00BFFDE700000CED00E0EB
:101890000400FA05F0B50268144C154D154E4FF0D2
:1018A0008047A04205D0B84203D0A84201D0B04240
:1018B00003D122F070034A681A43A04205D0B8420F
:1018C00003D0A84201D0B04203D122F44073CA68C9
:1018D0001A4302608A68C2620A688262A04201D129
:1018E0000969016301214161F0BD0000002C014044
:1018F000000400400008004010B50123046A8B403A
:101900009C430462036A8A401343036210BD0000D3
:1019100030B5026A22F001020262036A42688469F9
:1019200024F073050C682C4323F002058B682B43CD
:101930000C4DA84206D123F00805CB6843EA050305
:1019400023F0040307D14D6922F4407245EA0205F1
:101950008A6942EA05024260846149684163036220
:1019600030BD0000002C014030B5026A22F01002A8
:101970000262026A436884690D6824F4E64444EA1A
:1019800005248D6822F0200242EA05120C4DA8427F
:1019900006D1CD6822F0800242EA051222F0400210
:1019A00007D14D6923F4406343EA85038D6943EA17
:1019B00085034360846149688163026230BD000031
:1019C000002C014030B5026A22F480720262036A80
:1019D0004268C46923F4007324F073050C682C4337
:1019E0008D6843EA05230C4DA84206D1CD6823F447
:1019F000006343EA052323F4806307D14D6922F491
:101A0000405242EA05128D6942EA05124260C46101
:101A10004968C163036230BD002C014030B5026AE1
:101A200022F480520262036A4268C4690D6824F499
:101A3000E64444EA05248D6823F4005343EA053361
:101A4000064DA84204D14D6922F4804242EA851233
:101A50004260C46149680164036230BD002C0140EA
:101A600070B515480468154DA00612D52868C6B291
:101A7000134801F02FFD132804D93146104801F016
:101A800073FD06E005D14FF013020EA10C4801F0E2
:101A900099FD200607D5104801F029FD20B10E4818
:101AA00001F034FD286070BD0448083001680B4A1D
:101AB0001140016070BD000000440040044400403B
:101AC000A02D00203C4441504C696E6B3A4F766526
:101AD00072666C6F773E0A00901900207FFFFFEF5F
:101AE00000B50346FEF73EFE43F2300118465DF8AE
:101AF00004EBFEF74BBE0000F0B58278204D02F0FB
:101B00000F0316066F6881882C8802F00F0207EB1E
:101B1000021204D5491C21F00101146011E0946007
:101B20003E2909D91F3121F01F014FF0FF3404EB8A
:101B3000411444F4004403E0491C21F001014C022B
:101B4000D4602A880A442A80C07810F0030006D0A6
:101B5000012807D0022808D003280AD107E04FF453
:101B6000007106E04FF4806103E0002101E04FF4D2
:101B7000C061044A194302EB8300C0F8001CF0BDA9
:101B8000D402002000500040002802D10149B020BA
:101B900008807047D40200200949CA1350B10120BF
:101BA0000860002008600B1D18604FF4E0500860CA
:101BB000044803E0032008600248001D02607047EB
:101BC000405C00401008014010B50B4C0B48A28847
:101BD0000078824200D902461AB907490020143918
:101BE00008718020216801F029FB216801442160EF
:101BF000A188081AA08010BD1403002043740008B7
:101C000010B5064C0020A288216800F0B1FF2168C1
:101C100001442160A188081AA08010BD140300208F
:101C200070470021FEF7B2BD43F22001FEF7AEBDC2
:101C30002DE9F0476E4F0446A7F1080580074FF0E5
:101C40000009A5F1140622D501F0C2FA3878C009BE
:101C5000FFF7E6FFF888A8803878C0F3411121B17A
:101C600001295AD002296FD165E07978DFF88481A3
:101C70000C2969D2DFE801F0060C681368182768A0
:101C80002B31384601F054F81FE0FFF79DFF67E065
:101C9000002005E001F0ACFAD8F8000039E001209E
:101CA00001F084F8C0B3F5E710F01F0F4CD1B878FD
:101CB000012140F08000307000F07F0001F07AFADE
:101CC00001F096FA4CE000F07BFF28B3DDE710F05E
:101CD0001F0F39D146481B3812E001F0B7F8D8B1D0
:101CE00001F086FA444813E000F01F0001282BD1D0
:101CF000707888B13879B178884225D23F49084454
:101D00002860C2E701F066F930B101F071FA3C4891
:101D1000006828B3804723E016E010F01F0013D0BE
:101D2000012811D100F074F8D0B900F073F8B8B9F7
:101D300000F06CF807E010F01F0F05D100F098F8E4
:101D400070B900F097F858B93878000603D4F888CD
:101D500008B1002000E0802001F036FAA5F80490D8
:101D6000600721D5387800061CD4A888E0B1FFF7B9
:101D700047FFA888C0B93878C0F3411161B1012983
:101D80000AD110F01F0007D0012805D100F03CF85F
:101D900050B900F037F838B9802001F015FAA5F8ED
:101DA000049001E001F02AFA200712D538780006E5
:101DB00006D5A888317908430BD0FFF705FF08E066
:101DC0003078010605D500F07F003070002101F069
:101DD000F1F9600602D50020FFF782FE200604D547
:101DE000BDE8F0478020FFF77BBEBDE8F08700002C
:101DF0001C030020A8740008A0740008D202002070
:101E0000A47400080020704700207047002070472D
:101E10000020704710B51248124A01791278914299
:101E20001BD142784188C088FE2A09D0FF2A14D1EC
:101E300099B990B900F0EEFD78B101F0D9F90AE056
:101E400059B9012809D100F00BFB30B10749064808
:101E50000860FFF7B9FE012010BD002010BD000092
:101E60001C030020D102002078420020140300202F
:101E700000207047002070472DE9F041EFF31080FB
:101E800072B6DFF8D8800022D8F8104080F31088AE
:101E9000C8F81020600507D501F032F904F054FAB3
:101EA0002F48006800B18047200505D501F0B0F942
:101EB0002C48006800B18047E00405D501F0B4F972
:101EC0002948006800B18047A00503D5274800686D
:101ED00000B18047264D600403D5296809B102206E
:101EE0008847244FA00427D5296829B3012022E080
:101EF000EFF3108372B62048072250F82100491CE6
:101F0000B1FBF2F602FB161183F3108886B2050CC2
:101F1000C8F80810280604D557F8261009B108207B
:101F20008847280408D557F8261029B1280501D577
:101F3000022000E00420884720040DD5EFF3108232
:101F400072B6D8E90210814201D1012000E00020E0
:101F500082F310880028CBD0BDE8F081D4020020A5
:101F60004C74000850740008547400085874000839
:101F70005C74000860740008F84200200A4810B53C
:101F800041680A4A114041604168094A1143416071
:101F9000C16941F40001C161142001F0D5F905497E
:101FA0004FF40040086010BD00100240FFFF3F7F6B
:101FB000000080801408014070B500F0F5F800289A
:101FC0001CD00F4802220F4D027042700E4C0320AD
:101FD0002A632870A068022803D9A4F11F00826038
:101FE000A2600A480649007840F0800001F026F916
:101FF000A068296B401AA0600120207370BD00000A
:10200000B842002024030020C1430020447400088B
:10201000114910B50878022808D0032810D00428E8
:1020200012D0052801D10020087010BD0B48C07BDC
:10203000282801D0A828F8D1BDE8104000F054BAF3
:10204000BDE8104000F01CBD0548007840F080005D
:1020500000F02EFDF4E7000024030020A24300203E
:10206000447400081F4A10B51178B1B301290ED08D
:102070001D48052900781BD0072929D000F018FD3C
:102080001A4902200873BDE8104000F0F9BC174857
:102090001F38C07B2A2803D02F2805D0AA2820D19A
:1020A000BDE8104000F0F4BABDE8104000F086BA78
:1020B000012181400E480068014201D0012000E06A
:1020C0000020BDE8104040F23F420AA101F0A0B953
:1020D00000201070106B1F2803D1BDE8104000F0E5
:1020E000C7B810BD2403002045740008C143002078
:1020F0000C0300202866696C65290000104910B5A2
:102100004868C86008B1012010BD0E4800F11F04E6
:1021100082687AB1007B000604D50B48007840F055
:10212000800005E0A068096B884203D0074800786A
:1021300000F0BEFC0120207300F0A2FC002010BDC6
:1021400024030020A24300204474000845740008C2
:102150001048007900F08F01080605D501F00F0046
:102160004FF48032824001E001228A400A48007820
:1021700040F0800088420CD108490968114208D01B
:102180000749084A0968914203D10D22044901F028
:1021900055B870471C030020447400080C0300204D
:1021A000C14300205553425370B50A48022400F140
:1021B0001F05816831B1007B000608D4064800780D
:1021C00000F076FC2C7300F05BFC002070BD012059
:1021D00070BD0000A24300204574000810B50E48F1
:1021E0000E4C8068216B884202D82063032000E0F7
:1021F000042020700A480B49226B007840F08000D0
:1022000001F01CF80448226B1F308168891A816034
:102210000021017310BD0000A24300202403002010
:1022200044740008B8420020064810B502880748E8
:102230000549007800F09CFC05490863BDE81040A2
:10224000FFF710BF4A740008B84200204574000828
:102250002403002010B50446400702D50020FFF7F4
:10226000E3FF200703D5BDE81040FFF7D1BE10BD46
:102270002DE9F047734E326B1F2A01D2134600E05E
:102280001F230020704D714902E00C5C2C54401C4F
:102290009842FAD3DFF8BC910127DFF8B4A199F88E
:1022A00000001F2A40F080007ED129686A4A9142CE
:1022B0007AD1654C69681F346160A968A160697B47
:1022C00019B9A97B09B1102901D927738AE0E97BE3
:1022D0004FF002082A293ED022DC1A294FD00FDC09
:1022E0000429F2D006DCE9B30329EED1BDE8F047BA
:1022F00000F04EBB1229E8D1BDE8F04700F0B8B8B5
:10230000232944D007DC1B2935D01E29DDD1BDE8A7
:10231000F04700F0DBB825293DD02829D5D148E089
:102320009E2940D00FDC5529CFD004DC2F2954D072
:102330003529CAD103E05A2925D09129C5D1BDE854
:10234000F04700F0E5BBA12929D0A3295DD0A82939
:102350002FD0AA29B9D100F067FA002805D0287B30
:10236000000600E003E04BD43770BDE8F087BDE81D
:10237000F04700F0D5BBBDE8F04700F0AFBBBDE8CB
:10238000F04700F029BABDE8F04700F0F9B9BDE820
:10239000F04700F0C7BABDE8F04700F09BBABDE8CF
:1023A000F047FFF709BE00E032E0BDE8F04700F07B
:1023B00041BB00F039FA0028D7D0287B000605D5AC
:1023C00086F80080BDE8F04700F08EB89AF800006B
:1023D00000F06EFB84F80C8004E0287C800705D4B4
:1023E00000202073BDE8F04700F04ABB00F01CFA63
:1023F0000028BAD0287B000602D437703762B4E7D1
:1024000099F8000040F08000E2E700F051FB5CE743
:102410004C4600F04DFB2078104C00F00F014FF4BB
:102420008030884021685546084320609AF80000B3
:1024300000F03EFB2878874020680743062027608D
:10244000307092E724030020A2430020B84200200D
:10245000457400084474000855534243100300209B
:1024600002490020087001207047000078420020D7
:1024700010B5FFF799FE002820D0114B00208021D5
:102480001870597002219970D97020241C715871EC
:102490009871D8710B48016808200A7812B11A5453
:1024A000491C00E01C54401CC0B22428F5D3064946
:1024B00024200863BDE81040FFF790BE10BD000067
:1024C000B8420020CC020020240300200548C07C34
:1024D000C107044800F11F0000D00121017300F082
:1024E000CFBA0000A24300202DE9F0412E4D2F4F1E
:1024F0000026A969686ADFF8B88088420AD338786C
:10250000002440F0800000F0D3FA88F80C6000F05E
:10251000B7FA08E028492748097830F81140E86AF6
:10252000844200D30446FFF7E9FD00B90024A86AFD
:1025300048B374B1A96AE86922460144387840F08A
:10254000800000F07BFEA86A2044A862E86A001BB5
:10255000E862D5E90410AA6A4143914203D1AE6210
:10256000696A08446862D8F808104046091BC8F830
:102570000810002C05D0E96A002902D10321297036
:102580000673BDE8F081002CE3D0E96A28690144B4
:10259000491EB1FBF0F26869824200D90246E9693E
:1025A000686A03F089FEC5E724030020447400082C
:1025B000C143002046740008030300202DE9F041C8
:1025C0002F4C00252F4EA169606A884207D32E4800
:1025D0002563007800F06CFA357300F051FAFFF7CC
:1025E0008DFD20B1206B08B3A06A10B10FE0256308
:1025F00020E0E16A20690144491EB1FBF0F2606904
:10260000824200D90246E169606A03F055FE00206B
:102610001E49A36A226B0BE0D4F81CC01F181CF8DB
:10262000077011F800C0674501D0256202E0401C28
:102630009042F1D3A16A206B0A18A262E16A0B1AD8
:10264000E362D4E904714F43974203D1A562626A01
:1026500011446162B168091AB16000280DD013B14C
:102660002078052809D1206A28B100203073BDE800
:10267000F04100F005BA0120F8E7BDE8F081000064
:1026800024030020C143002045740008B842002004
:102690002DE9F041344D0026344FA969686A88421B
:1026A00007D333482E63007800F002FA3E7300F03F
:1026B000E7F9FFF723FD00B92E63296BA86A0844E8
:1026C0002969884206D9BDE8F041FE2229A10020EF
:1026D00000F09EBE0020294905E0AB6AEC690A5C67
:1026E0000344401CE2542A6B9042F6D3A86A1100BE
:1026F0000844A862EA6AA2EB0102EA6222D092B917
:1027000088B129690844401EB0FBF1F4686984422D
:1027100000D904462246E969686A03F0E7FDAE6223
:10272000686A20440DE0D5E9041202FB01F38342FC
:1027300008D1E969686A03F0D9FDAE626969686A1F
:1027400008446862B968286B091AB960002809D082
:10275000E86A10B12878052804D13E73BDE8F0413D
:1027600000F08EB9BDE8F08124030020C1430020B1
:10277000457400082866696C65290000B84200208D
:1027800010B5FFF711FD00281FD0FFF7B7FC002898
:102790001BD00E480021062201700D4B4270817043
:1027A0001A7AD201C270017141718171C1710949F6
:1027B000082018638A68082A03D9A1F11F029060D3
:1027C0008860BDE81040FFF709BD10BDB842002089
:1027D00024030020C143002010B5FFF7E5FC0028CA
:1027E0001BD0FFF78BFC002817D00C4803210022D8
:1027F00001700B4942700B7ADB018370C2700420B8
:10280000086308498A68042A03D9A1F11F0290606D
:102810008860BDE81040FFF7E1BC10BDB842002061
:1028200024030020C143002070B5264C264DB4F887
:102830001100E17C40BA000440EA0121207D0143FF
:102840000020C5E90910E07B2F280AD004DC2828E5
:102850000BD02A2819D104E0A8280DD0AA2814D119
:1028600006E0FFF74BFC002829D0E08A41BA0CE0D3
:10287000FFF744FC002822D0B4F81500E17D40BAEF
:10288000000440EA0121207E014328690D4E4143A6
:10289000E962A06801251F3668B1884210D0207B0C
:1028A000000604D50948007840F0800001E008489F
:1028B000007800F0FDF8357300F0E2F8002070BDFC
:1028C000012070BDA24300202403002044740008AE
:1028D0004574000810B5FFF767FC00281CD0FFF70F
:1028E0000DFC002818D00D4A0D489169491E0B0EA9
:1028F00003700B0C43700B0A8370C17011690B0ECF
:1029000003710B0C43710B0A8371C17108201063B2
:10291000BDE81040FFF762BC10BD0000240300209A
:10292000B842002010B5FFF73FFC002829D0FFF780
:10293000E5FB002825D013480021134A017041709F
:1029400081700821C17091690B0E03710B0C4371EA
:102950000B0A8371C1710221017211690B0C437260
:102960000B0A8372C17209490C2010638A680C2A11
:1029700003D9A1F11F0290608860BDE81040FFF705
:102980002DBC10BDB842002024030020C14300200C
:1029900010B5FFF709FC002835D01B4870211B4BF0
:1029A000017000214170DC685A6832EA040406D0E4
:1029B00006248470282404734173DA6008E0DAB1D5
:1029C000134A127BE2B10522827020220273417306
:1029D000C1700171417181710A22C271017241722B
:1029E0008172C1728173C1730174417412201863C2
:1029F000BDE81040FFF7F2BB022282703A22E5E701
:102A000081700173E3E710BDB84200202403002069
:102A1000C1430020044900200860044908600449BB
:102A2000072008700120704710030020C1430020D8
:102A30002403002010B5FFF7B7FB002817D00C487F
:102A400020220021027041700A4CC17703202263CA
:102A5000207009480649007840F0800000F0EEFB45
:102A60000648226B8168891A81600121017310BDBB
:102A7000B84200202403002044740008C143002011
:102A8000084910B50648086007480D22007840F054
:102A9000800000F0D3FB05490520087010BD000040
:102AA00055534253C14300204474000824030020BE
:102AB00010B5044600F088FB200605D504F00F0190
:102AC0004FF48030884001E00120A04002490A68AC
:102AD0001043086010BD00000C0300200A4810B528
:102AE000817C00F11F0429B101202073BDE8104052
:102AF000FFF7C6BFC07C054900F00100486003F045
:102B0000F3FB0020F1E70000A24300202403002093
:102B1000024900200873FFF7B3BF0000C143002043
:102B20000F4810B5816800F11F0469B1007B0006F1
:102B300004D50C48007840F0800001E00A48007895
:102B4000FFF7B6FF012004E0FFF7D8FA002805D010
:102B500000202073BDE81040FFF792BF10BD0000B9
:102B6000A243002044740008457400087047000028
:102B700070B5104C00F00F030F4D646804EB0313A5
:102B80009C689B8905EB4404C3F30905954200D971
:102B9000154600236A1C04E034F8046B21F8026B2C
:102BA0005B1CB3EB520FF7D34FF44051FDF7EEFD32
:102BB000284670BDD402002000600040FFF7C8BA6C
:102BC0002DE9FC414E4BA3F11C051878A3F1080434
:102BD00010F01F0002D001286DD179E04949D87862
:102BE000494E0A784649494F1C390628C97810D001
:102BF00006DC012809D0022814D003287ED141E048
:102C000007282AD00F2879D156E0414820601220A9
:102C10005CE0002A72D019B13E4820600A2055E0DD
:102C20003D48FAE70AB9012968D0022021B100978E
:102C3000787000209A7809E000967070F9E70099A2
:102C40000B7813B14B8819440091401C8242F6D195
:102C50000098017879B3206037E062B3072021B192
:102C60000096707000209A7809E000977870F9E774
:102C700000990B7813B14B8819440091401C824293
:102C8000F6D1E5E7254800909878032801D0002088
:102C900008E001F0B1FD0BE000990A780AB1114497
:102CA0000091401C99788142F6D10098017811B1C9
:102CB000206000780AE021E01948007800281BD045
:102CC0001848009020600178C1B14088019005E06B
:102CD00001A9684600F02AF800280DD0A1880198C3
:102CE000814208D9104980B2A0800978491E084263
:102CF00001D1012028710120BDE8FC810020FBE703
:102D00001C03002041740008B0410020D0020020C4
:102D1000AC740008BF740008BE740008C2740008D8
:102D200042740008C0740008437400080020704713
:102D300070B51C481B4C0078A4F1080410F01F006B
:102D40000AD0184AA4F11403174D597812790128B2
:102D500006D0022824D109E01248163820601DE070
:102D6000F1B1987882421BD2002015E002F08F006A
:102D7000020605D500F00F064FF48032B24001E0A4
:102D80000122824009B900070AD19868104207D091
:102D9000D868104000D0012028802560012070BD37
:102DA000002070BD1C0300207842002070B5264B27
:102DB000024619461878498810F01F00A3F11C0636
:102DC00004D0012829D0022827D111E0012924D1DB
:102DD00032B1012000F030FAF08840F0020005E046
:102DE000002000F029FAF08820F00200F08029E0AD
:102DF000187900F08F04200605D504F00F004FF479
:102E00008035854001E00125A540707828B1200774
:102E100003D0B068284200D009B1002070BD2AB1AB
:102E2000204600F0D1F9F06828430AE030692842D2
:102E300008D12046FEF754FE2046FFF7BFFEF0689B
:102E4000A843F060012070BD1C0300202DE9F05F55
:102E50005A480026017811F01F0F7DD1574F807816
:102E60001C3FB1464FF0010A4FF4803B00287AD056
:102E7000534801783846C07809B901286CD008B1A8
:102E8000504C6CE0504C6AE06078022805D0042871
:102E900045D0052845D007285CD14848617980781D
:102EA00081423AD1787020794949B8700020474A68
:102EB000098802E002F80090401C8842FAD30125FC
:102EC000B8460AFA05F0D8F80810084202D0284699
:102ED000FEF7A7FED8F808100BFA05F0084203D059
:102EE00045F08000FEF79DFE6D1C102DE9D34FF0DC
:102EF0000110C8E902090120C8F81090FEF744FE4D
:102F0000E0794006B8F8060002D540F0010001E083
:102F100020F00100A8F806001CE060881BE0E678BD
:102F200018E0BEB9A07800F08F05280604D505F09A
:102F30000F010BFA01F001E00AFA05F0B96801434C
:102F40002046B960FEF7D8FD2846FEF76DFE2846FC
:102F500000F02EF9207801E02BE004E00444207812
:102F6000002891D120E04D4687F8019001245E466B
:102F7000B9680AFA04F0084202D02046FEF751FE72
:102F8000B96806FA04F0084203D044F08000FEF766
:102F900048FE641C102CEBD34FF00110C7E902056A
:102FA00000203D61FEF7F0FD044879788078884282
:102FB00002D00020BDE8F09F0120FBE71C030020A9
:102FC00041740008D0020020B0410020D20200204D
:102FD000C80200202DE9F84F444800273E460078FB
:102FE000BA4600F01F00B94601287CD13F491C3980
:102FF0004878002874D0002000903D4802780846A8
:10300000C0780AB901286ED08B4608B1394C63E00C
:10301000394C61E06078022805D004280AD00528E0
:103020001AD0072856D161799BF80100814251D00E
:10303000608850E02D48A778E67801794FF00009C4
:10304000B94247D18078B04244D1012000902B484A
:1030500010F807A0C6553DE024490879B84239D197
:10306000A07800F08F085FEA086005D508F00F002F
:103070004FF48035854002E0012505FA08F588788F
:10308000B04215D1DBF8081020462943CBF80810D0
:10309000DBF80C10A943CBF80C10FEF72DFD4046D1
:1030A000FEF7C2FD404600F083F849EA050911E049
:1030B00056450FD119EA050F0CD1DBF80810404630
:1030C000A943CBF80810DBF80C10A943CBF80C107F
:1030D000FEF7A7FD20780444207800289AD10098B4
:1030E000BDE8F88FFFE70020FAE700001C0300208E
:1030F00041740008D0020020B0410020D20200201C
:103100004FF0E0214FF480100023C1F88001BFF39D
:103110004F8FBFF36F8F1E4803601E48006818B1C1
:103120004FF40050410001E00020014608431A49D5
:103130000968002901D04FF4007140EA010002D073
:103140004FF4807101E04FF0000140EA01001349A3
:1031500040F41C400860134811494FF030020360EE
:10316000486802604FF0700282604FF0B0020A803F
:1031700048F2FF71C1600C494FF4485008600B4998
:103180004FF0800008604FF0140000F0DDB8000040
:10319000445C00405C74000858740008405C0040C7
:1031A000D4020020505C0040005C00404C5C0040B9
:1031B000FDF7D8BA002903D1024940F08000086029
:1031C000704700004C5C004041F21001FDF7DEBA90
:1031D000082202490020FFF7CBBC00001C0300209E
:1031E00002484FF40071806801F0E9BCF80100204A
:1031F00000221146802000F021B800000248034957
:1032000002780020FFF7B4BC437400087842002025
:103210000448016841F008010160016841F00401BF
:1032200001607047405C00400248016821F00801DD
:1032300001607047405C004070470000F0B5154FDA
:10324000154606467A6800F00F0002EB0012124B9A
:10325000126803EB420400236A1C04E031F802CB3D
:1032600044F804CB5B1CB3EB520FF7D3796801EB46
:1032700000114D60094901EB8000D0F8000CC0F34B
:103280000110012803D030213046FDF77FFA28468F
:10329000F0BD0000D402002000600040005000405B
:1032A0002DE9F047244A1068244F20F01F013B69A4
:1032B0001943396100F4FE41C9431160DFF8809081
:1032C000000448F2800632D59046D8F80000010488
:1032D0002DD510F00F0009EB8005D5F8004C07D173
:1032E000210405D5210503D479688989890515D07C
:1032F00064F31F4002F0D2FA200406D544EA060027
:1033000040F68F710840C5F8000C2006DDD5344327
:1033100048F60F700440C5F8004CD6E72106EDD5FD
:10332000C4F30E0161F31F4002F0B8FAE6E7BDE80E
:10333000F047FFF755BF0000445C0040D402002076
:103340000050004000207047002809DB00F01F02F9
:10335000012191404009800000F1E020C0F80011F7
:1033600070470000EFF3088400F00F010D2901D130
:10337000EFF30984A18B04F12005890500D52D1DEB
:10338000C10600D4483500F08DF9EFF3098000F054
:1033900089F9EFF3088000F085F9EFF3148000F06D
:1033A00081F9284600F07EF9606900F07BF9A06998
:1033B00000F078F9E06900F075F91248006800F053
:1033C00071F91048001F006800F06CF90D48001DED
:1033D000006800F067F90B481030006800F062F9EF
:1033E00008480830006800F05DF906480C300068B5
:1033F00000F058F9432204A1002000F009F8FEF77C
:1034000037FAFEE72CED00E02866696C65290000BC
:103410002DE9F04116460F46002818D1EFF310852C
:1034200072B600231A461946184600F05BF90400EC
:1034300003D13146384600F0B9F985F31088002CE5
:1034400005D1EFF30380C00601D103F027FABDE8F0
:10345000F0817047002070477047000010B52822A7
:103460000D490E48FDF730F803F0DCFA0C4803F084
:10347000D3FA03F041F90B490B4A0C4B08604FF4A7
:103480000071B0FBF1F01160094901221A60086077
:1034900009490848086010BDEC700008C80F0020FA
:1034A000193C000858030020340300203803002092
:1034B0003C030020C80D0020400300200448417850
:1034C0008078814201D001207047002070470000C1
:1034D0009002002030B50546EFF3108472B600F07C
:1034E00006F8A968081A84F31088401E30BDEFF36F
:1034F000108372B6D0E900128A4201D3501A02E05A
:1035000080681044401A83F31088704770B50446F1
:10351000EFF3108572B6D4E90001884201D0012092
:1035200000E0002042220EA1FFF772FFE168206850
:103530000E5C401C2060A16888420CD302D14FF081
:10354000010001E04FF000004FF0470204A1FFF737
:103550005FFF0020206085F31088304670BD0000BA
:103560002866696C6529000070B50446EFF3108584
:1035700072B6C068626881546068401C6060A1686F
:1035800088420CD302D14FF0010001E04FF000005F
:103590004FF0300209A1FFF73BFF00206060D4E943
:1035A0000001884201D0012000E00020352203A163
:1035B000FFF72EFF85F3108870BD00002866696C48
:1035C000652900002DE9F04114460E460746FFF735
:1035D00081FF844200D220460546002404E0315D8C
:1035E0003846FFF7C1FF641CAC42F8D32846BDE85B
:1035F000F08100F0F5BB00F0F3BB00207047012024
:103600007047002070470020704700002DE9F0410E
:103610008E212148FCF792FF204C214F8E252068F7
:103620001D4EB84210D1A5888E2D01D22A4601E048
:103630004FF08E0201D84FF08E0518491648FCF75E
:10364000BCFE002086F847008E211448FCF776FF68
:103650002760A58041223546F11DE01DFCF7ADFE37
:1036600035F8480F24F8480FA878A070E878E07083
:103670008200094909484C314C30FCF79EFE95F810
:10368000440084F8440095F8450084F84500BDE8FE
:10369000F04100F0C7B8000014430020007F012073
:1036A000646C766B074A92F84B10102901D3002006
:1036B000704702EB8101C86412F84B0F401CC0B286
:1036C00010707047007F012010B5054C4121E01DAE
:1036D000FCF734FF002024F8480FE07010BD000014
:1036E000007F01202DE9F047184F81461D46164600
:1036F0008846F81DFCF7EBFD441CB9F1000002D030
:103700004146FCF71BFF002006B1308005B1287050
:10371000F879002818D0444502D8F91D224604E063
:10372000A4EB0800C1194246C91DB9F1000F02D02F
:10373000B7F84800308016B14846FCF73EFE15B198
:1037400097F84A0028700120BDE8F087007F01202B
:10375000014890F88C007047007F0120054A92F8DC
:103760004B1029B102F14C01016092F84B007047F7
:1037700000207047007F012002488079002800D097
:1037800001207047007F012002488079002800D086
:103790000120704714430020034890F88D00002852
:1037A00000D0012070470000007F01202DE9F0418A
:1037B00088460746FCF78BFD104D441C41263146D8
:1037C000E81DFCF7BBFE412C02D83946224602E038
:1037D000413CE11932462C46E81DFCF7EEFDA4F809
:1037E000488000F09BF808B1012003E000F098F851
:1037F00000B1022084F84A00BDE8F081007F01207A
:10380000014981F88C007047007F012001498871CF
:1038100070470000007F0120014981F88D0070474A
:10382000007F012070477047704770477047000065
:103830002DE9F0410F4606464FF0FF340025DFF832
:103840003C8012E0705D082101F02EFE84EA0064E5
:1038500008204146002C02DA81EA440400E06400BA
:10386000401E10F0FF00F5D16D1CBD42EADB2021A7
:10387000204601F019FEC043BDE8F081B71DC10428
:103880002DE9F0410E4617462021C04301F00CFE01
:1038900004460025DFF83C8012E0705D082101F04D
:1038A00003FE84EA006408204146002C02DA81EA23
:1038B000440400E06400401E10F0FF00F5D16D1CD0
:1038C000BD42EADB2021204601F0EEFDC043BDE809
:1038D000F0810000B71DC10470B514460D460646C0
:1038E000B2F5806F07D240F2DD120AA10020FFF787
:1038F0008FFD022070BD00F05BFC08B1102070BD90
:103900002A462146304600F06FFD0028F7D02020DF
:1039100070BD00002866696C6529000001207047B1
:103920000020704710B500231A4600F07BFA0028EB
:1039300000D0012010BD10B502F012FE012800D009
:10394000002010BD2DE9F041164E144C144D307876
:10395000012806D040F2371213A10020FFF758FDCE
:1039600009E0B078022748B140F23D120EA10020D4
:10397000FFF74EFD37700220BDE8F081204600F0D1
:1039800017F810B137702220F6E704F58064AC42D6
:10399000F4D30120B0700020EEE7000000C0000862
:1039A00000FC0108640200202866696C652900009B
:1039B0002DE9F0412A4E04463078012805D0FF2237
:1039C00028A10020FFF724FD19E04FF4806840464D
:1039D000B4FBF0F108FB1141022511B140F20712CE
:1039E00008E0F17871B1D6E902121144A14209D080
:1039F0004FF487721BA10020FFF70AFD35700220EB
:103A0000BDE8F0811949B4F1006F01D38C4223D392
:103A10000121F170164FC6E902481648BC4201D395
:103A2000844201D323200CE0FFF77AFF01004FF01E
:103A3000260006D039468C4203D142463846FFF76D
:103A40004BFF262803D00028DAD03570D8E720466F
:103A500000F0AEFB0028D3D035702120D0E7000065
:103A6000640200202866696C6529000000BC00081B
:103A700000C0000800FC01084FF48060704700009F
:103A800010B5282804D2064951F82000002805D195
:103A9000F72204A10020FFF7BBFC04A010BD00002A
:103AA0000C7000082866696C6529000000000000A1
:103AB00001460120282901D20148405C70470000DE
:103AC000B00100202DE9F04789460446804600E019
:103AD000641C2078402802D00028F9D163E0607887
:103AE000622847D012DC522853D008DC422841D04B
:103AF000442848D0482840D04D2817D133E05428D6
:103B00003ED0552832D0562810D13FE0722840D000
:103B100006DC642837D068282FD06D2806D122E033
:103B200074282DD0752821D076282FD020A52046A6
:103B3000FCF7CDFB07462846FCF7C9FB0646A01953
:103B4000C11908EB0902891E91422BD2BA1EA11C91
:103B5000FCF778FC324629462046FCF72EFC2078FC
:103B60000028B6D11FE000F03BFE01E000F040FE6F
:103B70000546DCE700F0DAFDFAE700F007FEF7E7BC
:103B800000F032FEF4E700F0FDFDF1E700F038FE52
:103B9000EEE7094890F82A0010B1074D2A35C6E72C
:103BA00006A5C4E73C44A4EB0800BDE8F08700008C
:103BB0004552524F520000007C6F000868747470C8
:103BC0003A2F2F61697233322E636E002DE9F04374
:103BD000A3B0884681461E461746802102A82A9D2A
:103BE000FCF7CEFC002002AC03E02154401C7F28EF
:103BF00002D2295C0029F8D180212046FFF762FF1C
:103C0000CDE9004033463A464146484602F0DEFBE5
:103C100023B0BDE8F08370472DE9F0411E461546FC
:103C20000C46074602F0ACFF2C4890F82010032900
:103C30000FD0022C0FD004B3012C0AD10168A94285
:103C400007D190F82210A9B300214A1E01608260BA
:103C50008161BDE8F0810068A842FAD1304602F0E7
:103C600031FD0446304602F02FFD0646384601F08D
:103C7000A7FE03462246314617E0384601F0A0FE73
:103C80000328E6D0304602F01BFD8007E1D4384619
:103C900001F096FE0746304602F014FD0446304619
:103CA00002F012FD01463B4622462846BDE8F0419F
:103CB00002F030B828220A490848FCF705FC01F058
:103CC00013FF08488178012903D14178022900D1E6
:103CD0008170BDE8F04101F00FBF0000C80F002067
:103CE000EC700008900200202DE9F0411D4E0446C2
:103CF000174696F822008846550260B92946404684
:103D000001F030FE032802D0214601F0C7FF96F8EB
:103D1000220000280FD07068A0420CD8F068A042A2
:103D20000BD008D93069401C00D134613069A04201
:103D300000D204463461BDE8F081F0692A4610449F
:103D4000F061E019F06096F8230020B1BDE8F04181
:103D5000002002F019B841462046BDE8F04101F0CC
:103D600051BF0000C80F0020F0B518A185B0096848
:103D700004910278002104AB5C5C944224D0491C7D
:103D80000329F9D312A1002291E878006F46815CE3
:103D90008DE87800A1F1610CBCF1190F14D920292C
:103DA00001D2052910D14FF0000C17F80CE08E4518
:103DB0000AD00CF1010CBCF1100FF6D3521C0B2AE7
:103DC000E5D3012005B0F0BD0020FBE7E5002000B1
:103DD000222A2B2C2E2F3A3B3C3D3E3F5B5C5D7CE8
:103DE00070B50D4D00202C7874B100212970A97890
:103DF00009B100F0C5FA022C05D06978032902D078
:103E0000002800D1252070BD40F26B1203A10020D4
:103E1000FFF7FEFA022070BD340200202866696CAC
:103E20006529000070B51C460546302901D30120E4
:103E300000E00020472212A1FFF7EAFA286A696A27
:103E4000114E0CB900223271104A91420AD1104928
:103E5000884201D1022070BD0D49FC3988420CD145
:103E6000012070BD284602F02BFB18B11CB90120BF
:103E7000307100E00CB1032070BD002070BD000067
:103E80002866696C6529000034020020089996971D
:103E90008F9E939B2DE9F05F4FF00004DDF828B072
:103EA0005FEA030A904689460746254611D05FEA35
:103EB0000B000ED00020CAF800000646CBF8000028
:103EC000FFF72CFD80B12948022F06D0032F04D024
:103ED00032E0712243E0064618E0B8F1000FFAD054
:103EE0008145F8D01B2428E0FFF71AFD20B3012FED
:103EF00002D0032F0CD01FE04FF00061B8F1000F8B
:103F000003D0894501D01A2417E00E4618480FE067
:103F10001848006980B10C3003E08168012909D09C
:103F2000143001680029F8D141680029F5D1124800
:103F3000056802E00668FAE71C24FFF760FB08B991
:103F4000012F03D024B12046BDE8F09F1C24FAE7DE
:103F500025B1CAF80060CBF80050F4E7B82207A1F9
:103F60000020FFF755FA0220EEE7000000C000082D
:103F7000E87000087C6F0008C07000082866696C53
:103F80006529000030B5154C00236178012904D063
:103F9000022904D003291FD103E0114B17E0114B74
:103FA00015E02179C1B110490969A9B10C3107E0C7
:103FB000844204D84C68844201D34B6806E0143133
:103FC0000C68002CF4D14D68002DF1D123B11044C0
:103FD000984201D3012030BD002030BD34020020C2
:103FE00000BC000800FC01087C6F000810B50C4CF8
:103FF000207830B1DA220BA10020FFF709FA022065
:1040000010BDFF2230210948FCF790FA01202070F2
:1040100000206070A060E0602061A070E07010BDC2
:10402000340200202866696C6529000070050020B4
:104030002DE9F04116460F4605460024FFF770FCB7
:1040400050B1032D08D10648006928B131463846E1
:10405000FFF700FA00B11D242046BDE8F081000002
:104060007C6F00082DE9FE4F06464D4889461546EF
:104070000178012907D0EF224AA10020FFF7C8F9F3
:104080000220BDE8FE8FC1784FF0010A19B9C66061
:10409000066180F803A0804680780327002869D154
:1040A000D8F8101042468E4201D1012000E00020D5
:1040B0002944C8F8101048B39068C0F13004AC42ED
:1040C00000D92C46394A494610442246FCF775F976
:1040D000D8F808002D1B2044A1442644C8F8080045
:1040E000302839D3444602D14FF0010001E04FF0AF
:1040F000000040F211122BA1FFF78AF9D4E9021255
:1041000001232A48FFF78EFE607001E088F80170F5
:1041100001A8009002AB0122444698F80100D8F8AB
:104120000C10FFF7B7FE08BBFFF76BFA28B11F4969
:104130006078A268FFF77CFFC0B9A0784FF49A724C
:1041400080F0010017A1FFF763F9019800F0D0F8A3
:1041500060B984F802A002E098F8020098B14446E1
:104160001249D4E9022000F03DF808B1277088E731
:10417000A07840B12A464946304600F033F810B1E5
:1041800088F800707DE72A4649463046FFF7FAFE78
:104190000028ECD0022188F80010132071E70000FD
:1041A000340200202866696C652900007005002033
:1041B00010B5EFF3108472B6FCF706FB84F3108899
:1041C00010BD01444FF40032A0F10060491E90423E
:1041D00005D2A1F10061914201D201207047002077
:1041E000704700002DE9F0473D4E054600247078E9
:1041F00017468846012807D07B223AA10020FFF706
:1042000007F90220BDE8F087F0784FF0020A50B9B4
:10421000284601F0CBFA040002D086F801A05CE049
:104220000120F0707561B068B5FBF0F100FB115131
:104230006A1A7169B1FBF0F300FB1310081A82428D
:1042400004D0284600F0DAF80400E6D13069B5FB66
:10425000F0F100FB11516A1A7169B1FBF0F300FB38
:104260001310081A824204D0284601F09FFA040075
:10427000D3D1B1464E46D6E901010844A84207D839
:10428000284600F0BBF8040002D089F801A024E021
:104290000FB3D6E903010844A84204D8284601F028
:1042A00085FA0400F1D17068B168B146281A0E1A77
:1042B000B74200D23E460D49324608444146FCF71B
:1042C0007CF836B1002089F802003544B044BF1BA9
:1042D000D0E70120F7E7C9F81450204692E7000024
:1042E000480200202866696C65290000A0050020AE
:1042F00070B51F4D0446687808B1472226E024B304
:10430000606810B3A06800B3E068F0B12069E0B164
:104310006069D0B1A069C0B1E069B0B1FF224FF4CB
:1043200080611448FCF702F90126AE700020E870A5
:104330006860A860E8602861C5E9050420688047D6
:10434000040008D1287838B110E04D220AA10020DD
:10435000FFF75EF8022070BDA8690069804704007D
:1043600004D0A86940688047204670BD6E70FBE7A6
:1043700048020020A00500202866696C652900001D
:1043800070B5154C0025607810B1012807D00AE0FF
:10439000CC2212A10020FFF73BF8022070BD0020C4
:1043A00000F02CF80546A069406880470646FF22C9
:1043B0004FF480610B48FCF7B9F80120A070002190
:1043C000E1706160A160E1602161616161700EB1C5
:1043D000304670BD284670BD480200202866696CD2
:1043E00065290000A005002010B5EFF3108472B617
:1043F000FDF79AF984F3108810BD000070B50E4ED9
:1044000005460024B07840B9B0690C498368D6E904
:104410000102984704460120B070FF220748B168A6
:10442000FCF784F8B068B5FBF0F100FB1150281AD6
:104430007060204670BD000048020020A0050020EA
:104440000748006948B106480069D0F89C0120B1CE
:1044500003480069D0F89C0170470148001DFBE744
:104460007C6F00080748006948B106480069B0F849
:10447000A00120B103480069B0F8A00170470148CD
:104480004088FBE77C6F0008002203461146104677
:1044900018470020704700000248006840F3000001
:1044A000401C7047080C01402DE9F043594885B085
:1044B000816941F004018161816901F00401049185
:1044C000816941F008018161816901F0080104916D
:1044D000816941F010018161816901F0100104914D
:1044E000816941F020018161816901F0200104911D
:1044F000816941F001018161816901F0010104914B
:1045000045494A6822F0E0624A60816941F004014D
:10451000816180694FF4004600F0040004903F4838
:1045200006600124DFF8F490CDE900640325A9F1C9
:104530001409694648460395FCF79AFA0122114688
:104540004846FCF779FB0094694648460395019478
:10455000FCF78EFADFF8C880012240214046FCF7C4
:104560006BFB4020CDE90004694603954046FCF70B
:104570007FFA0122970239464046FCF75DFBCDE900
:104580000074694640460395FCF772FA0122D7028F
:1045900039464046FCF750FBCDE900746946404679
:1045A0000395FCF765FA012211464046FCF744FBEF
:1045B0001120CDE90040694640460294FCF758FAC4
:1045C000002231464046FCF737FBCDE900646946DE
:1045D00040460395FCF74CFA11494FF0A5303431B1
:1045E0000860081F016841F001010160801500901A
:1045F00002200190039569464846FCF739FA00F01D
:10460000F9FA08480490401E0490FCD105B0BDE8BA
:10461000F083000000100240000001401408014037
:10462000000C014040420F0028B100224FF480618D
:104630000248FCF701BB0122F8E70000000C014032
:1046400020B1002204210248FCF7F6BA0122F9E762
:10465000000C014028B100224FF400610248FCF731
:10466000EBBA0122F8E70000000C01402DE9F0430D
:1046700085B081460D481D4616468846DDE90C4149
:104680000DC802AF87E80D00B81C01F078FE0020CD
:10469000CDE900478DF812002B4632464146484688
:1046A00001F0DAF905B0BDE8F0830000B47100084C
:1046B000092800D927303030C0B2704770B5174C88
:1046C00000204BF6FC356060A0604FF00066E060B3
:1046D00029463046FFF775FD20B129463046FFF7E1
:1046E000A7F860600E4D0F4E29463046FFF769FD72
:1046F00020B129463046FFF79BF8A0600A4E4FF4E0
:10470000806529463046FFF75CFD002804D0294625
:104710003046FFF78DF8E06070BD0000D801002042
:10472000FC3B010000C0000800FC01080048704785
:10473000E801002010B50C210948FFF742FD0028D0
:104740000AD04FF00060074A016A914203D1406AE3
:104750000549884201D0002010BD012010BD000095
:1047600020000008939D939B089996970148406804
:1047700070470000D80100200148806870470000A1
:10478000D801002000487047FC0300200048704713
:10479000BA03002010B50C210948FFF712FD0028CC
:1047A0000AD00748074A2038016A914203D1406A7B
:1047B0000549884201D0002010BD012010BD000035
:1047C00020C000088F9E939B0899969710B5FFF71D
:1047D000E1FF002801D00148806A10BD00C0000838
:1047E00000487047AD03002000487047DB030020FD
:1047F000004870477C0300200048704705040020F3
:1048000000487047F201002070B5FFF757FF2048BD
:1048100000F0E0FD00F052FF1D4831212030FBF791
:10482000AFFE1B481B492030FBF7BBFD1949184858
:10483000491D2030FBF7B5FD15495E31A1F13E0061
:10484000FBF7AFFD1249A031A1F18000FBF7A9FDF4
:104850000F4800242030FBF73AFD0D4AC1B2022078
:10486000A93200EB41001070032050700220002399
:10487000A2F1890508E02E5D1654401CC0B2135405
:10488000401C641CC0B2E4B28C42F4D370BD000082
:104890005C030020E801002010B5124C207830B1F4
:1048A000622211A10020FEF7B3FD022010BD0022FC
:1048B00011461046FCF736FF08B11E2010BD00203F
:1048C0006070A070E070A060E060207120616061A5
:1048D000A0614FF480610648FBF730FE0120207094
:1048E000002010BD640200202866696C6529000064
:1048F000A00900202DE9F047DFF8D0900446314FA1
:1049000099F80000304D90468A46012808D040F2C0
:1049100079122FA10020FEF77BFD0220BDE8F08771
:10492000BC4201D3AC4201D32320F7E7FEF7F8FFE6
:1049300078B32E1B301F4146404501D90A4600E09E
:10494000321F5146D9F81800FEF79AFF0146C9F800
:1049500018002148844208D22049E01B08444246FE
:104960005146FBF72AFD0020D8E704EB0800A842D7
:1049700025D10AEB06004D4610F8023C30F8042D14
:10498000C07863F31F4242EA0060814202D02720D0
:10499000C4E714E0524641462046FFF725FD08B122
:1049A0002020BBE74FF480620C493846FEF794FFA5
:1049B0000446FFF783FE012068702046AEE72620FC
:1049C000ACE7000000C0000800FC01086402002001
:1049D0002866696C6529000000C40008A009002051
:1049E00000F098FDFFF760FDFEF710FEFEF731FDC9
:1049F00000F072FD88B90E4C206970B1C06801F0FA
:104A00005FFD50B1FEF7C0FE38B92069094AC168A0
:104A10001160C06803C8FBF7D7FB00F0C0F80022A4
:104A20001146054800F0D6F800F0BEF8FEE7000099
:104A30007C6F000808ED00E04D4A000802490122A1
:104A40000A70487070470000F80100200125FEF749
:104A50009BFE10B1642000F09DF800F0B9F8434FC0
:104A6000B8600020FFF7ECFD0020FFF7DDFD2846D1
:104A7000FFF7F0FDFFF7C8FE01F0FAFB012001F09F
:104A800027FF002001F0F2FB4FF0000887F80380B9
:104A90000120C7F80C80B87001460B2443464246FB
:104AA000334800F09CF8032100F09EF84FF0FF39E6
:104AB00040F2032A4A460021504600F087F886B2A9
:104AC000B00501D5FDF7D8F9F0072FD05A2001F035
:104AD00017FFF878012806D1F86810B1401EF86079
:104AE00001D187F80380B878F0B101280ED00328EF
:104AF00014D004281AD1F878C0B90CB1641E15D1AD
:104B0000002001F0B3FB87F802800FE00CB1641EB7
:104B10000CD1012001F0AAFB032003E001F09EFB71
:104B200020B10220B87001E0FCF7A2FEB007C1D5A9
:104B300038780028BED07878012808D0022806D01E
:104B4000012587F800802846FFF784FDB2E7012D94
:104B500001D0012500E00025002DF4D00128F2D17C
:104B600087F8008087F80180EDE70000F801002059
:104B7000D15B0008FFF73ABA10B5044640F20111C4
:104B8000FBF7DCFC00F0B2FC00202070BDE8104018
:104B9000FFF72CBA10B501F003F8002010BD10B5D6
:104BA00000F0CEFF002010BD10B500F0EFFF002098
:104BB00010BD00207047002070470020704710B5DE
:104BC0000C46084600F09EFF204610BD00F0A4BF32
:104BD0000120704710B500F0D3FF012010BD10B5C3
:104BE00000F0C8FF012010BD10B5084600F0A2FF7C
:104BF000002010BD70B58EB00CA907A8FCF770F9A5
:104C00000B98B0F5005F05D0B0F5205F23D0B0F56C
:104C1000405F22D001202549274D00240968B1FBBF
:104C2000F0F02349B0FBF1F62248C5E90004761EF6
:104C3000C5E903642148AC606C61816941F400619D
:104C40008161806900F400600D902846FCF717FD33
:104C500028B1522223E00220DDE70420DBE71648DA
:104C6000FCF729FD08B1582219E07020CDE90004B5
:104C70000294039404940594002269460E48069415
:104C8000FCF795FC08B1652209E0296870084863C3
:104C900000210948FCF72CFD002804D06C2208A153
:104CA0000020FEF7B5FB0EB070BD0000C40200206E
:104CB00000127A00002C0140F4180020001002407D
:104CC0002866696C652900002DE9FF5F8846DDE9EB
:104CD0000FA5044600EB08060020DDF838B0286078
:104CE00092489146007930B120783A2840F0BA8055
:104CF0008E49002008718D488D4FC078C8B18B490E
:104D00000020C8703A78391D0398FBF756FB3878B5
:104D10000399014403912968084428608348C168C5
:104D2000B7F801006FF30F010843397801447F4859
:104D3000C160B44218BF7D4F7ED020780A2818BFCA
:104D40000D287AD03A282AD03978002900F0DF805F
:104D500010F0100F00F00F0008BF093000F00F0234
:104D600073487978435C1A434254491CC9B279703C
:104D700090F800E00EF1050081426DD300216C4BEC
:104D800008461EF1050213D013F800C0401C614410
:104D9000C0B2C9B28242F7D851B1042763E02521DD
:104DA0006348FBF7CBFB002038707870B87055E093
:104DB000B87800284DD15E4B0120B870B3F80100DF
:104DC00040BAA3F80100D97804297DD005DC69B187
:104DD000012962D0022962D03BE00A2902D00D29C4
:104DE00004D036E0988840BAF88032E0F98839B1CA
:104DF000504A1288914203D04F4A1288914248D1BA
:104E0000F9680A466FF30F021043884204D001206C
:104E1000F8700227641C26E00020F87072464749AB
:104E20000398FBF7CAFA42480178039808440390B4
:104E300028680844286001E014E00FE03C49F86865
:104E4000B1F801106FF30F000143394800780844AE
:104E5000F8603878002866D000203870641CB442AE
:104E60007FF46BAF00272868FF22ABEB00010398AB
:104E7000FBF75CFB2D482968C068401ACAF800009F
:104E8000301BA8EB0000C9F8000004B03846BDE8AC
:104E9000F09F012038710027E5E70127E3E7286844
:104EA000FF22ABEB00010398FBF740FB2868F96891
:104EB000081ACAF80000301BA8EB0000C9F800006F
:104EC0001B480179090300E007E0407941EA00103E
:104ED000F86004B00220BDE8F09F2868FF22ABEB29
:104EE00000010398FBF722FB2868F968081ACAF842
:104EF0000000301BA8EB0000C9F800000C488088B7
:104F000040BA0004F86004B00220BDE8F09F797850
:104F1000252908D210F0100F00F00F0008BF09304B
:104F20000001034A5054012097E70000800200204E
:104F3000A00D00208A02002088020020A40D00207D
:104F40002DE9F05FDFF800810446DFF8F89098F86B
:104F5000000015468B46012805D0A2223BA1002067
:104F6000FEF756FA3FE04FF48060B4FBF0F300FB2D
:104F70001343014602260BB1AB222EE00A469542AE
:104F800004D3B5FBF0F302FB135008B1B22224E0C6
:104F9000B4FBF1F002FB10402844884201D9B92249
:104FA0001BE098F8020078B998F8030050B1D8F8DF
:104FB0000800844204D3D8F80C100844A04203D857
:104FC000C7220AE0C12208E098F8040070B1D8E9CD
:104FD00004010844A04209D0CF221CA10020FEF702
:104FE00017FA88F800600220BDE8F09F1948671999
:104FF000844202D2B7F1006F17D84FF0010A88F847
:1050000004A02A4659462046C8E90445FFF772FC29
:10501000262804D00028E7D088F80060E4E75A4644
:1050200029462046FFF7E0F918B188F800602020F3
:10503000DAE74F4503D3FFF741FB88F801A00020D2
:10504000D2E7000000FC0108640200202866696CB9
:105050006529000000BC00084FF480607047000024
:1050600070B514460E46054620444FF48061B1EBFE
:10507000402F07D240F263220AA10020FEF7C8F9B0
:10508000002070BD4FF400713046FBF757FA35B978
:1050900006480749006942013046FBF78EF9600275
:1050A00070BD00002866696C65290000A802002018
:1050B000F414002010B50B464FF4007408B1002022
:1050C00010BD224602491846FBF777F9204610BD6D
:1050D000341200202DE9F04F8A46410287B00023A8
:1050E0004FEA422B1D460693029130B1BAF1000FF0
:1050F00003D0002007B0BDE8F08F344C20780128A1
:1051000041D0022841D0002631A000905946504697
:10511000029A01F07FF90746304931A0CDE900013C
:105120003B4659465046029A00F096FC0744618877
:105130002DA0CDE900013B4659465046029A00F0A9
:10514000BFFEC4194EB12AA0CDE900062346594638
:105150005046029A00F080FC044406A8FEF7FEFACE
:10516000060030D0069870B323A00090234659461D
:105170005046029A01F04EF9044403AF4FF00A087A
:105180004FF4007919E01FA6BEE721A6BCE723A0D3
:1051900003AB07C883E80700069850F825106D1C7C
:1051A000EDB203A801F0EBF8CDE9007823465946AB
:1051B0005046029A01F00AF90444B54203D204F1C0
:1051C0000A004845E3D3204694E70000A0020020EF
:1051D0004173736572740D0A00000000F00F002027
:1051E00046696C65000000004C696E6500000000B7
:1051F000536F75726365000048657864756D7073F0
:105200000D0A0000426F6F746C6F6164657200007C
:105210004170706C69636174696F6E00000000001A
:10522000000000000D0A000030B413460C46420294
:10523000204630BC590200F07FBE00002DE9FE4F31
:10524000044640028A464FEA422B0026029001F0B3
:1052500037FB0546FEF714FC07462846FEF728FCF8
:1052600005462CB1BAF1000F02D00020BDE8FE8F38
:1052700020A0CDE90007334659465046029A00F077
:10528000EBFB04461DA00090234659465046029A67
:1052900001F0C0F80026044401274FF00208DFF8AF
:1052A000649019E04FB918A1CDE90018234659467A
:1052B0005046029A01F08AF80444E8070AD059F8E7
:1052C00026000090234659465046029A01F0A2F863
:1052D000044400276D08761C0DB1052EE2D30BA106
:1052E000CDE90018234659465046029A01F06EF85F
:1052F0002044BBE76572726F7200000074797065BC
:105300003A200000A07100082C2000000D0A0000C7
:10531000F8B5460255020F46002310B10FB1002028
:10532000F8BD0D48009032462946384601F072F823
:1053300004460AA000902346324629463846FEF726
:1053400045FC044406A000902346324629463846D0
:1053500001F060F82044F8BD147E000840520000BF
:1053600022293B0D0A3C2F7363726970743E0D0A4B
:105370003C2F626F64793E0D0A3C2F68746D6C3E61
:105380000D0A00002DE9F041094C06460D46204665
:10539000FAF79DFF074645B116B10020BDE8F08140
:1053A000024621462846FBF708F83846F6E7000093
:1053B000507D000810B50B464FF4007408B1002072
:1053C00010BD224602491846FAF7F7FF204610BDE5
:1053D0003410002006490B68091D0A68091D096878
:1053E0000360C0E901214FF0A531C16070470000A2
:1053F000E8F7FF1F10B5084654022146FBF79EF858
:10540000204610BD70B5244D4FF0FF346878A97860
:10541000884201D0012000E0002040F2F9121FA1D3
:10542000FDF7F6FF6878022803D0C0B101281AD032
:1054300022E01C484FF4FA7490F82000E0B10128F3
:105440000AD0022818D0032816D040F20B2213A14C
:105450000020FDF7DDFF0FE044F620640CE0A878A3
:10546000022808D008E0A878022801D018B103E08B
:1054700040F6C41400E00024601C05D140F21B2259
:1054800006A1FDF7C5FF0024A868A04201D90120AC
:1054900070BD002070BD0000900200202866696C7D
:1054A00065290000C80F002070B5202903D0002313
:1054B0001A4601260CE090FAA0F070BDC40704D093
:1054C0008D1A6D1E06FA05F423434008521CD2B211
:1054D0008A42F3D3184670BD10B5FEF7DDFF18B948
:1054E000FEF7D7FF002800D0012010BD10B5252100
:1054F0000648FBF723F806480021C160017041709F
:105500008170C170C180017110BD0000A00D00202C
:10551000800200202DE9F0438FB014210AA8FBF788
:105520002FF828216846FBF72BF8FCF75BF9FBF70F
:105530009FFB01254FF00008CDE90A5829460AA82B
:10554000FBF70EFC20B16B224DA10020FDF760FFA0
:105550004FF48039CDE900590224CDF80880CDE917
:1055600007494FF4E01009906846FBF71DFD20B194
:10557000772243A10020FDF74BFF0AA90F2081E805
:1055800011014FF48060CDE90D0802210AA8FBF754
:10559000E7FB20B182223AA10020FDF739FF3A4C07
:1055A000206840F001002060606838490840606071
:1055B0002068374908402060206820F4802020605F
:1055C000606820F4FE0060604FF41F00A060206857
:1055D00020F480302060206820F480202060206843
:1055E00040F4803020603120FCF7CAF80028FAD05F
:1055F0004FF0807797FAA7F0264EB0FA80F046F881
:105600002080012224494846FBF75CF897FAA7F06E
:10561000B0FA80F046F820503920FCF7B1F80028A5
:10562000FAD0606820F0030040F00200606060681B
:1056300020F0F0006060606820F4E06040F480607A
:105640006060606820F46050606095FAA5F0B0FA80
:1056500080F006EB8000C0F880546120FCF790F8E1
:105660000028FAD095FAA5F0B0FA80F046F820505C
:105670002120FCF785F80028FAD00FB0BDE8F083B0
:105680002866696C65290000001002400000FFF8E0
:10569000FFFFF6FE00004242000028107CB5DDE965
:1056A00006540CB103A400E003A4CDE9005400F0BB
:1056B000D3F97CBD31000000300000002DE9F04737
:1056C00000242546FEF7CEFEDFF8D8900646A04619
:1056D0004F4621213448C9F81080FAF72FFF32488D
:1056E00021212130FAF72AFF2F4809214230FAF709
:1056F00047FF87F814802C4FA7F15E0A78195AF8F3
:10570000241000F03CFE641C2844E4B2C5B2042C12
:10571000F4D307F805800025234F2C462137A7F145
:105720006F0A78195AF8241000F029FE641C2844E6
:10573000E4B2C5B2042CF4D307F805801A4F4446EE
:10574000423738464D46D9F8001000F018FEC0B276
:105750003C54FEF775FE0068286112481030047151
:10576000300BFEF7A5FF0F4D15352870C6F303204B
:10577000FEF79EFF6870C6F30310FEF799FFA8704E
:1057800006F00F00FEF794FFE870681D2C713021C1
:10579000017032214170352181703821C17004714E
:1057A000BDE8F087D8010020BA0300202DE9F041C0
:1057B000364E0746B0694169384688470546B069A4
:1057C000816938468847044635B12CB14FF480686A
:1057D00045450AD8012009E040F235122CA10020ED
:1057E000FDF716FE0220BDE8F08100204FF49D7207
:1057F00027A1FDF70DFEB8FBF5F105FB118048B1BF
:10580000002040F23B1222A1FDF702FEAC4203D37E
:10581000012002E00120F4E700204FF49E721CA159
:10582000FDF7F6FDB4FBF5F005FB1040C0B100201C
:1058300040F23D1216A1FDF7EBFDB7FBF4F004FBBF
:105840001070381AC6E903047060444500D344461A
:10585000B460B169096A29B1884704000AD101E03E
:105860000120E5E7307850B1B069C168F068884739
:10587000040004D0B069406880472046B3E7FF22A7
:105880000548B168FAF752FE0020ACE74802002054
:105890002866696C65290000A005002010B5EFF3AB
:1058A000108272B6074C084BD96844F821000720D3
:1058B000491CB1FBF0F400FB141082F31088D8608F
:1058C00010BD0000F8420020D402002010B5094CA1
:1058D000207840B100F05EF86068C16806488847EB
:1058E0000021217010BDC02204A10020FDF790FD11
:1058F000022010BD080200206C0400202866696C9C
:105900006529000070B5134C0546207808B1852242
:1059100002E0022D06D38B220FA10020FDF778FDB7
:10592000022070BDFFF754F9A0604FF482710C485B
:10593000FAF726FE0120207006480C3000EB051017
:1059400060604168064888470028EAD0032121703A
:1059500070BD0000080200202866696C65290000FF
:105960006C0400202DE9F041094D0E460746002445
:1059700005EB0410314602683846904710B12046C6
:10598000BDE8F081641CE4B2022CF1D30320F7E7F8
:105990001402002010B5FFF71BF9064989688842F8
:1059A00001D1012000E00020BDE81040622202A1E8
:1059B000FDF72EBD080200202866696C65290000ED
:1059C00010B500F1080103220C4607A0FAF79EFC6F
:1059D000002806D00322214604A0FAF797FC08B15C
:1059E000032010BD012010BD42494E00484558001B
:1059F00070B5154D06460C462878012806D0A4221D
:105A000012A10020FDF704FD022070BDFFF7C2FFC8
:105A100068682246314683680E4898470446132832
:105A200006D0142C06D02CB103202870204670BD5F
:105A30000220FAE72878012800D00020B22203A132
:105A4000FDF7E6FCF2E70000080200202866696C1A
:105A5000652900006C0400202DE9FC478246DDE941
:105A60000A0700901C4690468946504600F0D2FC3A
:105A7000054602260EA0CDE90006631942464946B6
:105A8000504600F0A3FC054463194246494650467F
:105A9000009700F0BFFC054406A0CDE9000663199D
:105AA00042464946504600F091FC2844BDE8FC8738
:105AB0003A2000000D0A000010B5FFF789F80749E9
:105AC0004968884201D1012000E00020BDE8104073
:105AD00040F2691202A1FDF79BBC00009002002079
:105AE0002866696C6529000002480021C068FFF73C
:105AF00060B80000900200200148C068FFF75DB860
:105B00009002002072B603494A6802434A6062B6B6
:105B100070470000E8020020054903464A68134226
:105B2000FCD0486872B64A6882434A6062B67047E1
:105B3000E80200200149086170470000E8020020E7
:105B400009490020086048608860C86008614861B1
:105B50004FF0E021054A4A61054BF02283F8142DED
:105B60008861072008617047E80200207EFC0A0077
:105B70000FE000E00149C86070470000E802002023
:105B80000149486170470000E8020020034841696C
:105B9000002901D00020084770470000E8020020DB
:105BA0000249886088680028FCD17047E80200201C
:105BB00002480078012800D00020704764020020CD
:105BC000884203D3904201D80120704700207047DB
:105BD00010B50B4C0221A068FEF7F1FF60680321AD
:105BE000B0FBF1F201FB1201401C6060002905D1FD
:105BF000A068BDE810400121FEF7E1BF10BD000024
:105C0000F80100202DE9F041224D16460C4695F88A
:105C1000230038B1BDE8F0414FF430721E49002036
:105C2000FDF7F6BBF00522D000204FF431721A497F
:105C3000FDF7EEFB95F8210040F2C5221649FDF76D
:105C4000E7FB31462046FFF7D3FE012704464FF01D
:105C5000000813280DD0142C17D085F8248068690B
:105C6000304468612046BDE8F04100F08DB8012065
:105C7000DBE7FFF72BFE85F8218085F823700446CB
:105C800085F82470FDF7E8FBE9E7002485F8247027
:105C9000E5E70000C80F0020E05A000870B51B4D72
:105CA00006460C4695F8210088B1002040F2852276
:105CB0001749FDF7ADFB601C00D0012040F28622A1
:105CC0001349FDF7A5FB6868401C02D002E00120E3
:105CD000ECE76C6095F82700032801D185F8276070
:105CE0006868A04203D195F82700B04201D0032094
:105CF00008E03046FFF706FE20B945F80C4F0121B9
:105D00006975A975BDE8704000F03EB8C80F002065
:105D1000E05A000830B4194C94F82050032D02D0FA
:105D200025683DB107E030BC40F2352214A10020C7
:105D3000FDF76EBB2060A068401C00D1A16094F804
:105D40002700032801D184F82730A069904205D9A3
:105D5000E069904202D90AB103200CE0481C02D04D
:105D6000A0688842F8D1032B03D094F8270098420A
:105D7000F2D10020A26130BC00F006B8C80F0020AC
:105D80002866696C652900002DE9F0470446132850
:105D900003D0142C01D0012000E000204FF43A720F
:105DA00043A1FDF735FB444D95F8200003280CD0A6
:105DB000296891B1D5E9060282420ED368B1D5E9CE
:105DC0000102904209D1012008E0BDE8F0474FF4FC
:105DD0003B7237A10020FDF71BBB002085F8250092
:105DE00095F8269019B995F82710032901D00121BB
:105DF00000E00021884620B195F8241009B1012661
:105E000000E0002695F8231011B108B1012000E050
:105E10000020824628690027401C10D06868401C7A
:105E200000D0012040F20A3221A1FDF7F1FA6968A1
:105E30002869401A69694002814200D9012703207C
:105E400014B185F820001DE0B9F1000F09D00FB1A1
:105E50000624F6E7B8F1000FF3D0002EF1D10424A8
:105E6000EFE7BAF1000FECD10EB1022003E0B8F178
:105E7000000F03D0012085F8200012E095F82000E3
:105E800003280BD195F8210030B1FFF71FFD002149
:105E900085F8211004B9044608480470B9F1000FD0
:105EA00003D1BDE8F04700F0F9BCBDE8F087000081
:105EB0002866696C65290000C80F00209002002048
:105EC0002DE9F04186B00F46DDE90C4180461D46C4
:105ED000164602A800F0B2FA02A900220A54CDE93F
:105EE00000412B46324639464046FFF7B5FD06B025
:105EF000BDE8F08110B50D4C207830B10020207045
:105F0000FDF720FA40B11F2010BD832208A1002018
:105F1000FDF77EFA022010BD607810B9FDF7FEFC97
:105F200008B1002010BD252010BD00006402002033
:105F30002866696C652900002DE9FF410746644821
:105F4000009015460E460023384600F063FA0446DA
:105F500060A0009023462A4631463846FDF736FEBB
:105F6000044460A0009023462A4631463846FDF797
:105F70002DFE0444FDF741FB5EA1CDE90010234650
:105F80002A4631463846FFF789FB0444FDF737FBC4
:105F90005BA1CDE9001023462A4631463846FFF77B
:105FA0007DFB0444FDF72FFB5AA1CDE900102346E9
:105FB0002A4631463846FFF771FB0444FDF721FBC2
:105FC00059A1CDE9001023462A4631463846FFF74D
:105FD00065FB0444FDF7E0FB5BA1CDE9001023461F
:105FE0002A4631463846FFF759FB04445AA0009030
:105FF00023462A463146384600F00CFA04445DA098
:10600000009023462A4631463846FDF7DFFD04441A
:10601000FEF7C0FBF8B15EA02346D0E90010CDE941
:1060200002105DA000902A463146384600F0F2F991
:106030000444FEF7CBFB0146042202A800F028FA34
:10604000062102A8CDE9000123462A4631463846FA
:1060500000F0BCF904445548009023462A463146D6
:10606000384600F0D7F90444FEF764FB58B1FEF758
:106070007DFB4FA1CDE9001023462A463146384624
:10608000FEF7F4FA0444FEF777FB4DA1CDE90010CA
:1060900023462A4631463846FEF7E8FA4C4904447E
:1060A0004CA049682346CDE900012A4631463846CE
:1060B000FFF706FF04444BA0009023462A463146D2
:1060C0003846FDF783FD04B02044BDE8F0810000B0
:1060D000D07C0008556E697175652049443A2040AE
:1060E000550D0A004849432049443A2040440D0ACE
:1060F000000000004175746F2052657365740000E4
:106100004175746F6D6174696F6E20616C6C6F772F
:10611000656400004F766572666C6F772064657405
:10612000656374696F6E0000496E636F6D706174B2
:1061300069626C6520696D6167652064657465637B
:1061400074696F6E000000005061676520657261C0
:1061500073696E67000000004461706C696E6B20AB
:106160004D6F64653A20426F6F746C6F6164657245
:106170000D0A0000426F6F746C6F61646572205687
:10618000657273696F6E3A2040560D0A0000000078
:10619000000000000D0A0000496E746572666163BC
:1061A000652056657273696F6E3A2000BC7D0008E9
:1061B000426F6F746C6F61646572204352430000DC
:1061C000496E746572666163652043524300000046
:1061D000A002002052656D6F756E7420636F756E3E
:1061E0007400000055524C3A2040520D0A00000045
:1061F00030B510A187B0D1E900230D48097A0025F8
:106200000260436001720E48094C1822457009343F
:106210000CA16846FAF758F9172269462046FAF7A2
:10622000CCF8A57007B0BDE8304000F02FB80000F2
:10623000B04100200902200001010080FA000000A6
:10624000D00200200904000002080650040705825D
:1062500002400000070502024000000002484078AA
:10626000002800D00120704700030020FBF794BCF9
:10627000054910B50020C870FFF7BAFFFCF776FC9F
:10628000BDE81040FBF77ABE0003002010B5FEF712
:106290009FFC074C60600020FEF78DFCE060FDF77E
:1062A000DDF8002060700349A070A060086010BD98
:1062B000900200202803002070B514460D460646C3
:1062C000FFF7FAFB074B1868002809D00120FEF7FA
:1062D000B5FB224629463046BDE8704000F06ABB57
:1062E00070BD000028030020704700002DE9F04138
:1062F00015460E460746FFF7DFFB104800680028EA
:106300001AD00F490F4C0020886094F82000032811
:1063100012D00120FEF792FB2A463146384600F0A3
:10632000D5FC94F82000032806D02A46314638468A
:10633000BDE8F041FDF7D8BCBDE8F081280300209E
:1063400090020020C80F002006484FF0011201788B
:106350000548C180002101704170C0E9022101613E
:1063600070470000407400080003002010B5EFF3F0
:10637000108472B6FDF7A8F984F3108810BD70B5CB
:106380000D460446090E00F013F80646A019C5F3A1
:10639000074100F00DF80644A019C5F3072100F0ED
:1063A00007F80644E9B2A01900F002F8304470BDC5
:1063B000054A02EB111301F00F011B780370515CC9
:1063C0004170022070470000AC7000082DE9F041D8
:1063D0001446DDE906E55FEA000C18D05F19A74214
:1063E00015D32144994212D3002006462A46A342DF
:1063F00002D2E01A121A00E01E1B8F4201D9791A4C
:10640000521A0EEB00010CEB0600F9F7D6FF2846F6
:10641000BDE8F0812DE9FC418046089C1D461646EA
:106420000F462046F9F753FFCDE900402B46324690
:1064300039464046FFF7CAFFBDE8FC81F0B5064685
:10644000002002460B460A2504E0B3FBF5F3401C8E
:1064500042F10002002BF8D150EA020301D10120E1
:10646000002200231F460EE0B1FBF5F405FB1414D7
:10647000B1FBF5F13034B0EB030CBCF1010C03F1CE
:10648000010306F80C401C1A77EB0204ECD3F0BDB4
:106490002DE9F04115460E460746FFF7CFFF0446AB
:1064A000A8420AD2302229463846FAF73FF8281B7C
:1064B00038443146FFF7C2FF2846BDE8F0810000AE
:1064C000074910B5096831B1096A21B18847002828
:1064D00000D0012010BDBDE8104000F003B800005E
:1064E000AC0100202DE9F0471C4906460C698CB32D
:1064F00004250027D6F800808946D43406E0626877
:106500004046FFF75DFB01281FD0143421680029A5
:10651000F5D160680028F2D1E7B116E07019D9F81A
:1065200010400027D0F800800C3406E06268404636
:10653000FFF746FB012807D0143421680029F5D164
:1065400060680028F2D12FB12D1D0C2DE6D9012055
:10655000BDE8F087FFE70020FAE700007C6F000845
:106560000B49096811B1496A01B1084701783A2914
:106570000AD1007A302809D0322807D0332805D034
:10658000342803D0352801D00020704701207047FF
:10659000AC0100202DE9FF5F994692468B4600989A
:1065A000FDF7E2FB40F295123CA1FCF731FF3D49BB
:1065B00000263D4DB1F80B00497B484309EB000133
:1065C000491EB1FBF0F7B9F1000F19D00024A7F173
:1065D0000108EE6809E0E968481C82B2334800F01F
:1065E00057FCE868401C641CE8604445F3D34FF650
:1065F000FF722E48E96800F04BFCE868401CE86038
:106600002869202802D34FF4D5721CE028492022A3
:1066100001EB4014401C286126492046F9F7CDFEC5
:106620000098016821604168616001892181807A58
:10663000A072C4F81C90300CA0826683A96810294F
:1066400009D34FF4DC7215A10020FCF7E1FE002015
:1066500004B0BDE8F09F164B01EB4100C03B164A69
:1066600043F8202003EB8002144E5660BBF1000F6C
:1066700001D043F820B0BAF1000F01D0C2F804A055
:106680000848491CB0F80B30407B43437B43936080
:10669000A9602878401C28702046D9E72866696CD4
:1066A0006529000034100020A802002034120020C8
:1066B000F414002010740008F5530008716F0008EE
:1066C000C07A7047C0697047C16961B1074A084B19
:1066D000408BB2F80B105B69527BB3FBF1F1801E6B
:1066E00000FB021070474FF0FF307047341000205D
:1066F000A8020020C17270470A4910B50846B1F8D7
:106700001340B0F80B000CB90C6A0CB1444306E01E
:10671000002440F2891204A12046FCF779FE2046AD
:1067200010BD0000341000202866696C6529000047
:106730002DE9F0410F4680464FF4007631464E4831
:10674000F9F71EFF31464D48F9F71AFF4C4C00256A
:10675000C0214C48E560F9F713FF4A487100C0308A
:10676000F9F70EFF256125704748C4E90105324657
:10677000464941486561F9F7A7FE3F4E07F5803766
:1067800040F62D02B6F80B00717BB7FBF0F04A43E0
:10679000B0EB420F09D24FF4AB723DA10020FCF7E1
:1067A00037FE707B41F25A010DE04FF69172514372
:1067B000814209D240F2591235A10020FCF728FE8F
:1067C000707B4FF691714843B0F5803F03D3A6F834
:1067D0001350306202E0A6F813003562717B30225C
:1067E000B0FBF1F040F2FF1101EB4000C0F34F2786
:1067F000F78229492348F9F767FE22497802486160
:10680000086204206561A060002000EB400201EBFB
:10681000820263699268401C1A4462610428F4D3BE
:106820004FF6F87229461548E56000F031FBE16843
:106830004FF6FF72491C1148E16000F029FBE06847
:106840001549401CC4E903050E4D2022C0352846D9
:106850003031F9F7B2FDD8F800102960D8F80410EB
:106860006960B8F80810298198F80A00A872012018
:106870002061BDE8F08100003410002034120020B7
:10688000A802002034140020173C0008C071000842
:106890002866696C65290000C073000810B5FFF711
:1068A00023F9FCF70BFE28B904484178022901D1ED
:1068B00001218170BDE81040FFF71EB99002002051
:1068C00010B5FFF7F9F80148007810BD90020020DC
:1068D00010B50446FFF7F0F8FCF7C0FD0649074A7B
:1068E00024B1022048708870012002E00020487026
:1068F0008870106010BD0000900200202803002066
:106900002DE9F0410446FFF7D7F8FFF7EDF8FCF763
:10691000D5FD80B1FEF776FD214A4EF660239168E1
:10692000994201D22144916028B1947855785470ED
:10693000012C06D103E0BDE8F041FFF7DDB80220ED
:10694000907000269660FFF7D7F80127CDB1012D92
:1069500017D0022D15D1134D95F82000032804D02F
:1069600085F826700020FFF70FFA95F8200003281D
:1069700012D0002040F211120BA1FCF749FD00F0EB
:10698000E3F80B4D54B1012C08D0022C02D1FCF7D6
:1069900065FD2F60BDE8F0810120EBE72E60F9E78F
:1069A00090020020C80F00202866696C652900004D
:1069B000280300202DE9F0478A46044615460026A4
:1069C00051025046F9F7BAFDDFF84890002006EB77
:1069D000460209EB82018442896800EB5121884616
:1069E0000ED38C420CD2A8EB0407AF4200D32F4643
:1069F00059F82230201A3A46514698473C44ED1B3C
:106A0000002D04D0761CF6B24046102EDFD3BDE830
:106A1000F0870000341400200149486070470000EE
:106A2000A80200201CB52E4CE07F10B104F11F001D
:106A300000E02CA04FF08061FFF77AFE2C48FDF7B4
:106A400023FD0346207D10B12548143000E029A025
:106A500000222749FFF79EFD2948FDF715FD034653
:106A60000022274927A0FFF795FDFFF729FF40B136
:106A70002748FDF709FD03460022254925A0FFF719
:106A800089FD274B41219A1C2648FCF72BFE58B163
:106A90002548FDF7F9FC0346002223492348FFF768
:106AA00079FD0021FFF726FE4FF00060019020489D
:106AB0000090FCF735FF78B1DDE900104FF48062FB
:106AC000F9F7D9FB40B91B48FDF7DEFC034600226D
:106AD000184919A0FFF75EFD00F034F81CBD000056
:106AE0007C6F00084441504C494E4B202020200030
:106AF000115300084D4245442020202048544D00A9
:106B00002952000844455441494C532054585400DC
:106B10003D5200084641494C202020205458540042
:106B2000A0020020F00F0020D550000814710008CA
:106B300000C00008855300084E4545445F424C2084
:106B4000545854007047000010B5FCF7E7FE20B120
:106B5000FFF7B6FE08B9FAF78BFEFCF7E1FE40B18D
:106B6000FCF70AFE18B9FCF7F3FD012801D1FAF78A
:106B70007FFE02484168491C416010BDA002002010
:106B8000F8B50C46074600F09DF8002855D1FDF7F2
:106B900083FC10B9FDF77DFC00B1012018B9FCF7AA
:106BA0002EFD002849D0022C47D074B1012C44D1CD
:106BB0000B2240493846F9F75EFB00283DD1FFF72C
:106BC000D5FBBDE8F840FFF769BE01208DF8000055
:106BD000851E6946384600F077F8002863D1354EA7
:106BE00000240C360B2256F834103846F9F743FBD4
:106BF00010B906EBC4000579641C102CF2D3681C94
:106C00004FF0000417D0102D47D2DFE805F0080F31
:106C10004C172224282A2E3034363A3C4042FCF7C6
:106C20007FFE08B30120FCF7F1FD3CE0E22222A147
:106C30000020FCF7EDFB8DF80040F8BD204C2068EB
:106C40000068804720680069804720684068804766
:106C500029E0012000E00020FCF7E5FD23E0012011
:106C600000E00020FCF7E0FD1DE0012000E0002036
:106C7000FCF7DCFD17E0002000E00120FCF7C0FD80
:106C800011E0012000E00020FCF7CFFD0BE0012027
:106C900000E00020FCF7C0FD05E04FF4887206A17B
:106CA0000020FCF7B5FB9DF800000028C5D0FFF7D9
:106CB000F5FDF8BD147100082866696C65290000AF
:106CC000C070000800207047002070472DE9F05F79
:106CD0000446002615468B463046DFF85090DFF814
:106CE00050A01CE006EB460209EB82028442916848
:106CF00000EB512188460DD38C420BD2A8EB040740
:106D0000AF4200D32F465368201A3A465946984757
:106D10003C44ED1B002D06D0761C4046F6B2DAF856
:106D200008108E42DED3BDE8F09F0000341400202E
:106D3000A8020020FEB5044690F8300015460F4624
:106D4000302801D3606B31E0C0F13006AE4200D391
:106D5000164620443246F9F730FB94F830003044B0
:106D6000C1B284F83010302901D20020FEBD0023CA
:106D70003744AD1B1A462046FDF754F808B302A964
:106D80000022009101AB1146FDF784F80028EDD1F7
:106D90000198606394F830202146FDF763F90028DC
:106DA000E4D194F83010606B084460632A46394699
:106DB000FDF758F90028D9D1606B2844606314208E
:106DC000FEBD1C20FEBD00002DE9F84F894681184C
:106DD0004FF48063B3EB412F07D2BDE8F84F4FF477
:106DE0001F7227A10020FCF713BB41024B0951027F
:106DF0004FEA511B0091244901EB431A10B10026C0
:106E0000224F33E00126FBE709EB46140AEB461557
:106E1000202221462846F9F72EFA30B3214628468B
:106E20000B22F9F728FA78B100208046D7F804C081
:106E300023462A4620460221E0472078E52805D04F
:106E4000B8F1000F07D010E00120EEE72A462346F4
:106E50001046012107E02046FCF786FF28B12346B3
:106E60002A46184600217C68A047761C5E45CBD395
:106E700050464946009ABDE8F84FF9F79EBA00001F
:106E80002866696C65290000F4140020A80200201F
:106E900030B44B00012404EB4101B1F5007F06D36F
:106EA00030BC40F2391204A10020FCF7B1BAC25440
:106EB000120A425430BC70472866696C652900008C
:106EC0002DE9F04786B0002416460F460546039488
:106ED00004940DF110080DF10C094FF4807A05941B
:106EE000CDF800A0CDE901986B1C05AA31463846C3
:106EF000FDF7EAFE68B1022813D001281DD004284E
:106F000025D0052801D00628EAD1052821D0012066
:106F100020E0049A22B3691C0398FDF7A3F8044605
:106F20001EE0049A2AB1691C0398FDF79BF804003F
:106F300016D10598361A0744D2E7049A22B1691C83
:106F40000398FDF78FF8044654B9132408E015247C
:106F500006E000204FF4B07203A1FCF759FA1624A2
:106F600006B02046BDE8F0872866696C65290000F8
:106F7000704700C00008000400000000010000008D
:106F80003030303000000000000000000000002021
:106F900048454C505F46415148544D4D41494E542F
:106FA000454E414E434568747470733A2F2F6461A7
:106FB000706C696E6B2E696F0000000000000000AD
:106FC00000000000000000000000000000000000C1
:106FD00000000000000000000000000000000000B1
:106FE00000000000000000000000000000000000A1
:106FF0000000000000000000000000000000000091
:1070000053544152545F494641435400447C000864
:10701000007C0008E07B0008A47C0008EC780008F5
:10702000A87B000804790008C07A0008187B0008D3
:10703000607C00086C7B0008747A0008987A00086D
:10704000E47A0008187C0008A07900087479000828
:107050004C790008D07900084C7B0008887C000837
:10706000807600084076000804760008007A000860
:107070007C780008D8770008A0770008C876000858
:10708000B0780008A4750008D87500087875000865
:107090001875000848750008387800081877000847
:1070A00054770008CC7C0008147800083031323363
:1070B0003435363738396162636465660000000034
:1070C0000000000099480008F55E0008414F0008E4
:1070D000B13900084539000859500008793A0008CC
:1070E000B15B000800000000C47000080000000050
:1070F000FFFFFFFFFFFFFFFFFFFFFFFFFFFFFFFFA0
:10710000000000000000000000000000000000007F
:10711000000000034153534552542020545854005A
:107120000070000800000000247F0008010000003B
:10713000307F000802000000187F000803000000F4
:107140000C7F000804000000007F0008050000001C
:10715000C47E000806000000E87E0008070000006A
:10716000B87E000808000000DC7E0008090000006E
:10717000A07E00080A000000AC7E00080B000000A2
:10718000D07E00080C000000F47E00080D00000016
:107190003C7F00080E000000487F00080F00000040
:1071A000607F00087C7F00086C7F0008747F000807
:1071B000547F00083078000000000000000000004C
:1071C000EB3C904D53443053342E31000208010003
:1071D000022000501FF80100010001000000000023
:1071E00000000000000029741902274441504C4956
:1071F0004E4B2D444E444641543136202020FAB89F
:10720000C0070520018ED0BC0010B8C0078ED8BEC4
:107210006D00E80B00EBFEB40EB700B307CD10C352
:107220008A044608C07405E8EDFFEBF4C3504C45F2
:107230004153452052454D4F564520544845204125
:10724000524D204D424544204441504C494E4B2024
:107250005553422044455649434520414E4420520F
:1072600045424F4F54205448452053595354454D9F
:107270002E2E0000000000000000000000000000B2
:1072800000000000000000000000000000000000FE
:1072900000000000000000000000000000000000EE
:1072A00000000000000000000000000000000000DE
:1072B00000000000000000000000000000000000CE
:1072C00000000000000000000000000000000000BE
:1072D00000000000000000000000000000000000AE
:1072E000000000000000000000000000000000009E
:1072F000000000000000000000000000000000008E
:10730000000000000000000000000000000000007D
:10731000000000000000000000000000000000006D
:10732000000000000000000000000000000000005D
:10733000000000000000000000000000000000004D
:10734000000000000000000000000000000000003D
:10735000000000000000000000000000000000002D
:10736000000000000000000000000000000000001D
:10737000000000000000000000000000000000000D
:1073800000000000000000000000000000000000FD
:1073900000000000000000000000000000000000ED
:1073A00000000000000000000000000000000000DD
:1073B000000000000000000000000000000055AACE
:1073C000B5530008716F000800020000B5500008B6
:1073D000716F000800000000B5500008716F0008D0
:1073E0000000000061500008C96D000800040000A2
:1073F0000000000000000000000000280000000065
:10740000000000000000418EBB32000000000000C0
:10741000000000000000000000000001000000006B
:10742000764876480000DC837648000000000000C3
:107430000000000000000000010203040607080924
:107440000000004002024000000240000000000076
:10745000000000000000000000000000000000002C
:10746000311C000800000000552200080000000048
:10747000000000000000000000000000000000000C
:1074800000000000000000000000000000000000FC
:1074900000000000000000000000000000000000EC
:1074A00000000000000000000000000012011001B8
:1074B00000000040280D0402000101020301000049
:1074C0000000040309040803410072006D0020035A
:1074D00041006900720033003200200043004D007B
:1074E0005300490053002D004400410050001A038E
:1074F00030003000300031004100300030003000FA
:1075000030003000300030001003550053004200BE
:107510005F004D0053004300496E206170706C693C
:10752000636174696F6E2070726F6772616D6D69EF
:107530006E6720736563746F722065726173652076
:107540006661696C65642E00496E206170706C69BB
:10755000636174696F6E2070726F6772616D6D69BF
:107560006E67206D6173732065726173652066615B
:10757000696C65642E000000496E206170706C6952
:10758000636174696F6E2070726F6772616D6D698F
:107590006E67207772697465206661696C65642E18
:1075A00000000000496E206170706C69636174694D
:1075B0006F6E2070726F6772616D6D696E672069A2
:1075C0006E697469616C697A6174696F6E20666155
:1075D000696C65642E000000496E206170706C69F2
:1075E000636174696F6E2070726F6772616D6D692F
:1075F0006E6720756E696E6974206661696C65647A
:107600002E000000546865206865782066696C6506
:107610002063616E6E6F742062652070726F677296
:10762000616D6D65642E204C6F67696320666169CA
:107630006C757265206F636375727265642E0000ED
:10764000546865206865782066696C652063616EA2
:107650006E6F74206265206465636F6465642E20BC
:10766000506172736572206C6F676963206661692F
:107670006C757265206F636375727265642E0000AD
:10768000546865206865782066696C652063616E62
:107690006E6F74206265206465636F6465642E207C
:1076A000436865636B73756D2063616C63756C61B2
:1076B00074696F6E206661696C757265206F6363B3
:1076C00075727265642E0000546865206170706C7C
:1076D00069636174696F6E2066696C6520666F729C
:1076E0006D617420697320756E6B6E6F776E2061AB
:1076F0006E642063616E6E6F7420626520706172CB
:1077000073656420616E642F6F722070726F6365A1
:10771000737365642E000000496E206170706C699F
:10772000636174696F6E2070726F6772616D6D69ED
:107730006E67206E6F7420737570706F72746564FD
:10774000206F6E2074686973206465766963652EA6
:1077500000000000496E206170706C69636174699B
:107760006F6E2070726F6772616D6D696E672066F3
:1077700061696C6564206265636175736520746816
:1077800065207570646174652073656E742077611F
:107790007320696E636F6D706C6574652E000000F8
:1077A000546865207374617274696E6720616464E3
:1077B0007265737320666F722074686520696E74D9
:1077C00065726661636520757064617465206973B4
:1077D0002077726F6E672E00546865207374617233
:1077E00074696E67206164647265737320666F727A
:1077F0002074686520626F6F746C6F6164657220BD
:107800007570646174652069732077726F6E672E7E
:107810000000000054686520626F6F746C6F6164D3
:1078200065722043524320646964206E6F74207037
:107830006173732E00000000496E206170706C69E6
:10784000636174696F6E2070726F6772616D6D69CC
:107850006E672061626F7274656420647565207460
:107860006F20616E206F7574206F6620626F756E79
:10787000647320616464726573732E0054686520BC
:107880006865782066696C65206F6666736574202C
:107890006C6F616420616464726573732069732026
:1078A0006E6F7420636F72726563742E0000000047
:1078B000546865206170706C69636174696F6E20D3
:1078C000696D616765206973206E6F7420636F6DE9
:1078D00070617469626C652077697468207468658A
:1078E000207461726765742E000000005468652082
:1078F0007472616E736665722074696D6564206F61
:1079000075742E0046696C652073656E74206F7502
:1079100074206F66206F7264657220627920504314
:107920002E20546172676574206D69676874206EDB
:107930006F742062652070726F6772616D6D65642F
:1079400020636F72726563746C792E00466C61738C
:107950006820616C676F726974686D2077726974F2
:107960006520636F6D6D616E64204641494C5552D0
:1079700045000000466C61736820616C676F726936
:1079800074686D20657261736520616C6C20636F33
:107990006D6D616E64204641494C555245000000B2
:1079A000466C61736820616C676F726974686D20E2
:1079B000657261736520736563746F7220636F6DA8
:1079C0006D616E64204641494C55524500000000EF
:1079D000466C61736820616C676F726974686D20B2
:1079E00077726974652076657269667920636F6D58
:1079F0006D616E64204641494C55524500000000BF
:107A0000546865206865782066696C6520796F75B3
:107A10002064726F707065642069736E27742063D0
:107A20006F6D70617469626C652077697468207429
:107A3000686973206D6F6465206F72206465766974
:107A400063652E2041726520796F7520696E204D27
:107A500041494E54454E414E4345206D6F64653F4C
:107A6000205365652048454C50204641512E4854CE
:107A70004D0000004661696C656420746F20696E7A
:107A8000697469616C697A652074686520746172D3
:107A9000676574204D4355004661696C65642074C8
:107AA0006F20756E696E697469616C697A6520749E
:107AB000686520746172676574204D43550000004D
:107AC0004661696C656420746F2072657365742FFC
:107AD00068616C74207468652074617267657420D5
:107AE0004D43550050726F6772616D6D696E67200E
:107AF00061626F727465643A20696D6167652077B1
:107B00006F756C64206C6F636B2074617267657451
:107B1000204D4355000000004661696C6564207487
:107B20006F20646F776E6C6F616420666C61736840
:107B300020616C676F726974686D20746F20746166
:107B400072676574204D435500000000456E642047
:107B50006F662073747265616D2068617320626561
:107B6000656E207265616368656400004661696CDA
:107B7000656420746F20646F776E6C6F616420742D
:107B8000686520666C617368206461746120636F4E
:107B90006E74656E747320746F2062652070726FEE
:107BA0006772616D6D656400506F737369626C65B7
:107BB000206D69736D6174636820626574776565B3
:107BC0006E2066696C652073697A6520616E642039
:107BD00073697A652070726F6772616D6D6564009C
:107BE000416E20696E7465726E616C206572726F91
:107BF0007220686173206F63637572726564000040
:107C0000416E206572726F7220686173206F6363CA
:107C100075727265640000004661696C6564207469
:107C20006F20756E6C6F636B207461726765742072
:107C30004D435520666F722070726F6772616D6D73
:107C4000696E67004F7065726174696F6E2077614D
:107C500073207375636365737366756C0000000051
:107C6000466C61736820616C676F726974686D201F
:107C70006D697373696E6720666F7220612072652B
:107C800067696F6E00000000456E64206F662073A8
:107C9000747265616D20697320756E6B6E6F776E9F
:107CA00000000000416E206572726F72206F636386
:107CB000757272656420647572696E672074686598
:107CC000207472616E73666572000000000000002F
:107CD00023204441504C696E6B204669726D776178
:107CE0007265202D207365652068747470733A2F57
:107CF0002F67697465652E636F6D2F6F70656E4CAD
:107D00007561742F6C7561746F732D736F632D6162
:107D100069723332663130332F0D0A4275696C64F3
:107D20002049443A2076303235372D34302D67667D
:107D300065373132666432202861726D63632C20AE
:107D40006C6F63616C206D6F6473290D0A00000015
:107D50004120626F6F746C6F61646572207570642E
:107D60006174652077617320737461727465642037
:107D700062757420756E61626C6520746F20636F2C
:107D80006D706C6574652E0D0A52656C6F616420B0
:107D900074686520626F6F746C6F616465722074C3
:107DA0006F206669782074686973206572726F72DB
:107DB000206D6573736167652E0D0A004769742035
:107DC0005348413A20666537313266643236363878
:107DD000323038393531376137306637336532669E
:107DE000303937366364623034646232360D0A4C9F
:107DF0006F63616C204D6F64733A20310D0A5553E7
:107E00004220496E74657266616365733A204D5312
:107E1000440D0A003C21646F6374797065206874B6
:107E20006D6C3E0D0A3C68746D6C3E0D0A3C6865D5
:107E300061643E0D0A3C6D65746120636861727314
:107E400065743D227574662D38223E0D0A3C7469B6
:107E5000746C653E4169723332204441504C696E06
:107E60006B3C2F7469746C653E0D0A3C2F6865612C
:107E7000643E0D0A3C626F64793E0D0A3C73637286
:107E80006970743E0D0A77696E646F772E6C6F634C
:107E90006174696F6E2E7265706C61636528220073
:107EA0004D53445F4F4E2020434647004D53445F9F
:107EB0004F464620434647004F56464C5F4F4E20A4
:107EC000434647004155544F5F4F4E2043464700BD
:107ED000434F4D505F4F4E20434647004F56464C50
:107EE0005F4F4646434647004155544F5F4F464615
:107EF00043464700434F4D505F4F46464346470079
:107F0000484152445F525354434647004155544FF1
:107F10005F52535443464700455241534520202069
:107F2000414354004153534552542020414354008F
:107F3000524546524553482041435400504147451D
:107F40005F4F4E2041435400504147455F4F4646E6
:107F500041435400696E7465726661636500000098
:107F6000696E7465726E616C0000000075736572F5
:107F70000000000074617267657400007472616EC5
:107F80007369656E740000004D4245442020202036
:107F90005646532020202020202020202020202052
:107FA000302E3100C47F0008000000205C03000078
:107FB000280100082C8000085C030020D446000043
:107FC00084010008320113726F2A08081112C022BE
:107FD000084A020C01BE122004D580012038080195
:107FE000010206020208013A04063F0101060606E4
:107FF00004017A10010D1C0899969748011A13255F
:10800000391408754B1408356D1408F3351B0837FF
:10801000101A791013C16E1B08F71001912CE6DFBE
:108020000CCF9B887F9C126002804000FFFFFFFF07
:10803000FFFFFFFFFFFFFFFFFFFFFFFFFFFFFFFF50
:10804000FFFFFFFFFFFFFFFFFFFFFFFFFFFFFFFF40
:10805000FFFFFFFFFFFFFFFFFFFFFFFFFFFFFFFF30
:10806000FFFFFFFFFFFFFFFFFFFFFFFFFFFFFFFF20
:10BBF000FFFFFFFFFFFFFFFFFFFFFFFFF949A3AFBD
:00000001FF
:040000050800C0ED42
:020000040800F2
:10C00000A887002025C3000853C300086FE6000876
:10C0100057C3000859C300085BC3000866C1FAAFE4
:10C020008F9E939B089996970201000039C20008E1
:10C030005FC3000834820108C1C2000811C30008B0
:10C0400065C3000865C3000865C3000865C3000830
:10C0500065C3000865C3000865C3000865C3000820
:10C0600065C3000865C3000865C3000865C3000810
:10C0700065C3000865C3000865C3000865C3000800
:10C0800065C3000865C3000865C3000865C30008F0
:10C090007518010865C3000865C3000865C300087A
:10C0A00065C3000865C3000865C3000865C30008D0
:10C0B00065C3000865C3000865C3000865C30008C0
:10C0C00065C3000865C3000865C3000865C30008B0
:10C0D00065C3000865C3000871F3000865C3000864
:10C0E00065C3000865C3000865C3000800F002F8D6
:10C0F00000F05AF80AA090E8000C82448344AAF1A8
:10C100000107DA4501D100F04FF8AFF2090EBAE8A5
:10C110000F0013F0010F18BFFB1A43F0010318477B
:10C12000ACD70000CCD700000A444FF0000C10F848
:10C13000013B13F0070408BF10F8014B1D1108BFA5
:10C1400010F8015B641E05D010F8016B641E01F845
:10C15000016BF9D113F0080F1EBF10F8014BAD1C95
:10C160000C1B09D16D1E58BF01F801CBFAD505E0B3
:10C1700014F8016B01F8016B6D1EF9D59142D6D30D
:10C18000704700000023002400250026103A28BF35
:10C1900078C1FBD8520728BF30C148BF0B60704739
:10C1A0001FB51FBD10B510BD00F001FB114603B453
:10C1B00005F06EFC03BCFFF7F3FF07F081FA00F017
:10C1C0001BFB03B4FFF7EEFF03BC00F01FFB0000F6
:10C1D00080F309887047EFF309807047684680F361
:10C1E000098804480078C00714BF0220032080F3A8
:10C1F00014887047F48A0108DFF818C0EFF305834C
:10C200001B0618BF6047EFF31483DB0708BF6047C6
:10C2100000DF704719470108DFF818C0EFF3058306
:10C220001B0618BF6047EFF31483DB0708BF6047A6
:10C2300000DF704725490108EFF30980816911F893
:10C24000021C39BB90E80F10E047EFF3098C194B43
:10C2500093E80600914218D059B10CB44FF0010395
:10C2600081F821302CE9F00FC1F824C008F0F2FD6C
:10C270000CBC1A60D2F824C0BCE8F00F92F8213050
:10C280008CF309881BB192F82000CCF800006FF005
:10C29000020E704710B5084A1268914209D8074C3F
:10C2A00054F8214090E80F10A047EFF3098C8CE878
:10C2B0000F0010BDC40400201CC800081CC80008E2
:10C2C00008F0B2FC114B93E8060091421BD00CB46D
:10C2D0004FF0000381F82130EFF3098C2CE9F00FC7
:10C2E000C1F824C008F0B6FD0CBC1A60D2F824C016
:10C2F000BCE8F00F8CF3098892F821301BB192F85A
:10C300002030CCF800306FF0020E7047C4040020DB
:10C3100008F064FED6E7000007F04AFC08F05EFE75
:10C32000D0E7000013484FF001010160124A134B9F
:10C330001360134B1360134B1360134B9361134C37
:10C340004FF0A53525604FF0000111488047114896
:10C350000047FEE7FEE7FEE7FEE7FEE7FEE7FEE753
:10C36000FEE7FEE7FEE700000B480C490C4A0D4BC8
:10C3700070470000F0100240006C0140863AD9A7D7
:10C38000CDDF12AB2635EDCDFF8301208C2202409C
:10C3900079F00008EDC00008A8810020A8870020DF
:10C3A000A8830020A883002000487047488100200F
:10C3B000B2F120030AD5C2F1200320FA02F001FAFB
:10C3C00003F321FA02F140EA0300704721FA03F077
:10C3D0004FF00001704740EA010310B59B070FD1F1
:10C3E000042A0DD310C808C9121F9C42F8D020BAE5
:10C3F00019BA884201D9012010BD4FF0FF3010BD9D
:10C400001AB1D30703D0521C07E0002010BD10F86A
:10C41000013B11F8014B1B1B07D110F8013B11F830
:10C42000014B1B1B01D1921EF1D1184610BD10B556
:10C43000431C02E010F8011B71B18107FAD14FF0E3
:10C44000013202C88C1A8C4314EAC211F9D0C01A06
:10C450000A0603D0C01E10BDC01A10BD0A0401D0C8
:10C46000801E10BD0902FCD0401E10BD40EA010331
:10C4700070B59B072ED14FF00136042A2AD308C885
:10C4800010C99D1B9D43121F15EAC61517D0D8B2BF
:10C49000E1B2401A50EA056110D198B2A1B2401A37
:10C4A00050EA05410AD123F07F4024F07F41401A31
:10C4B00050EA052102D1180EA0EB146070BDA34212
:10C4C000DBD018BA21BA884201D9012070BD4FF0E3
:10C4D000FF3070BD0AB9002070BD10F8013B11F8A3
:10C4E000014B63B1A3420AD1521E08D010F8013BA0
:10C4F00011F8014B1BB1A34201D1521EEDD1181B03
:10C5000070BD421E12F8013F002BFBD111F8013B18
:10C51000002B02F8013BF9D17047032A40F230802A
:10C5200010F0030C00F0158011F8013BBCF1020F74
:10C53000624498BF11F801CB00F8013B38BF11F8F5
:10C54000013BA2F1040298BF00F801CB38BF00F80C
:10C55000013B11F0030300F06780083AC0F0088047
:10C5600051F8043B083A51F804CBA0E80810F5E76D
:10C57000121D5CBF51F8043B40F8043BAFF3008050
:10C58000D20724BF11F8013B11F801CB48BF11F8C5
:10C59000012B24BF00F8013B00F801CB48BF00F895
:10C5A000012B7047431A28BF9A427FF6B6AF032A81
:10C5B0001044114440F2268010F0030F1EBF11F802
:10C5C000013D521E00F8013D10F0030F7FF4F6AF5D
:10C5D00011F0030300F0C180083AC0F00B8051F85D
:10C5E000043D083A51F804CD40F8043D40F804CD2C
:10C5F000FFF7F3BF121D5CBF51F8043D40F8043D46
:10C60000AFF30080D20724BF11F8013D11F801CD2E
:10C6100048BF11F8012C24BF00F8013D00F801CDFE
:10C6200048BF00F8012C704710B5203AC0F00B80CD
:10C63000B1E81850203AA0E81850B1E81850A0E826
:10C640001850BFF4F5AF5FEA027C24BFB1E8185080
:10C65000A0E8185044BF18C918C0BDE810405FEAF0
:10C66000827C24BF51F8043B40F8043B08BF70476C
:10C67000D20728BF31F8023B48BF11F8012B28BF71
:10C6800020F8023B48BF00F8012B704702F0FF037F
:10C6900043EA032242EA024200F002B84FF00002ED
:10C6A0000429C0F0128010F0030C00F01B80CCF1C4
:10C6B000040CBCF1020F18BF00F8012BA8BF20F832
:10C6C000022BA1EB0C0100F00DB85FEAC17C24BF86
:10C6D00000F8012B00F8012B48BF00F8012B704730
:10C6E0004FF0000200B5134694469646203922BF0B
:10C6F000A0E80C50A0E80C50B1F12001BFF4F7AF56
:10C70000090728BFA0E80C5048BF0CC05DF804EB37
:10C71000890028BF40F8042B08BF704748BF20F8A5
:10C72000022B11F0804F18BF00F8012B70477047A3
:10C7300070477047431A28BF9A427FF675AF10447E
:10C7400010F0030F11441EBF11F8013D521E00F8F6
:10C75000013D10F0030F7FF4F6AF103AC0F00A80ED
:10C7600010B531E91850103A20E91850BFF4F9AF6C
:10C77000BDE81040530724BF31E9081020E9081034
:10C7800044BF51F8043D40F8043D12F0030F08BFC8
:10C790007047D20728BF31F8023D48BF11F8012C7D
:10C7A00028BF20F8023D48BF00F8012C70477546AD
:10C7B000FFF7FAFDAE4605006946534620F0070034
:10C7C000854618B020B5FFF7CFFDBDE820404FF0FB
:10C7D00000064FF000074FF000084FF0000B21F06B
:10C7E0000701AC46ACE8C009ACE8C009ACE8C00938
:10C7F000ACE8C0098D46704710B50446AFF3008021
:10C800002046BDE81040FFF7DCBC000001491820BD
:10C81000ABBEFEE7260002007047000000000000EB
:10C820002DE9F84F1E4D8246012090468B464FF071
:10C830000009C5F8F0001C4C1A4820601B48206015
:10C840001B482060184E1836306800901948306038
:10C85000194F4FF0A530C7F88C0218480123002269
:10C86000D0F80CC04146584607F52377E047686882
:10C8700020F4403040EA0A00686000983060C5F853
:10C88000F0900848C04320600848C0432060084832
:10C89000C04320604FF05A3038600120BDE8F88F67
:10C8A00000100240863AD9A7006C0140CDDF12ABE0
:10C8B0002635EDCDFF8301200020024000D0FF1F70
:10C8C0002DE9F04102787F2A03D0BDE8F04100F065
:10C8D0007DB801F8012B10F8015F01F8015B461CDF
:10C8E0000C464FF0021708E02146304600F06EF883
:10C8F000074406EB104680B204446D1EF4D238465D
:10C90000BDE8F08170B5002402460B462046092A96
:10C910003FD00ADC2B49092A086951D2DFE802F02E
:10C92000505050151920262C2F004021FC2A47D0AA
:10C9300004DCF02A33D0F12A42D132E0FD2A3FD084
:10C94000FE2A3AD0FF2A3BD133E01C4606F006FD12
:10C9500022E0062422461C491846FFF7DEFD2FE0A0
:10C96000A8B1D0F8A41104E018460CE078B1D0F8D2
:10C97000A8110029F8D10AE01846C96F02E0D1F8E1
:10C980008010184619B107F0ADFE044618E00024E7
:10C9900016E00C4606F0EAFC01462046F3E731209B
:10C9A0000CE01970422159700F219970D87004243D
:10C9B00006E019705870022402E064201870012407
:10C9C000204670BD34820108B88201082DE9F84F75
:10C9D0000278A2F180031F2B03D800F04FF9BDE8C5
:10C9E000F88FA2F1A0035E2B02D800F0E3F9F6E77E
:10C9F00001F8012B0C4610F801CBDFF864920027F8
:10CA00000125DFF85CA2FF21964B974ADFF85CB264
:10CA1000A9F110094FF00116BCF11E0F72D2DFE828
:10CA20000CF00F172950C4CDE771F6627271717165
:10CA30007171767A8B9BA8BFC2717171717171A48B
:10CA40000078611CFFF75EFF207000F10210C6E75E
:10CA5000027822B1012A53D021701846EAE04078CA
:10CA6000C1074FF4006001D0514601E07C49091D27
:10CA7000086045E007782FB1012F04D00027277008
:10CA80003046D7E00127A84615700D21484607F02B
:10CA90009FFA4FF400505546CAF800000E21484650
:10CAA00007F096FA4FF48040286001220C21484696
:10CAB00007F03CFA0021484607F0BCFAC5F80080B0
:10CAC000DDE7177000220D214E46484607F02EFA8A
:10CAD00000220E21304607F029FA00220C213046B0
:10CAE00007F024FA23E001886148624A0068B0FB3D
:10CAF000F2F00322801CB0FBF2F04843401EFDD14F
:10CB00002770AAE7A8E067702770022092E021460C
:10CB100000F062FC8EE085780388C07865F31F43DF
:10CB2000554D53EA006005D0906002F065FA277019
:10CB300028467FE02170FBE710F8015B0DB94FF448
:10CB400080750146284602F023FAED1D2770E8089B
:10CB5000000400F101106DE0007800F00301491CB1
:10CB60001177C0F38000507789E7214600F072F911
:10CB700060E0217001210C4610F8013B0BE000BF82
:10CB800010F8012B12F03F0200D14022D21DD20832
:10CB900011441044491C5B1EF2D244EA014049E0B2
:10CBA00000782170D4E721706AE701781174B0F839
:10CBB00001109182B0F80300D0824BE01278214638
:10CBC000012A12D0421C12F8013B43B112F8014B6A
:10CBD000A50701D5E40600D5121D5B1EF6D1101A7B
:10CBE0000F7000044F70801C24E000F07BF921E0FE
:10CBF00005461078214601280AD00F704F70A770A3
:10CC00000321E878800708D541F4802012E00CE089
:10CC1000284600F049FB0146F3E7B5F801004FF460
:10CC2000802202EB8040084304E01278012A04D0FD
:10CC30002170584600F10110D1E6C278B0F8011019
:10CC4000007962F31F4141EA0060009069460020CC
:10CC500001F022FE2770ECE704F8011C3046BEE626
:10CC6000100C014001000200000600200100050038
:10CC7000E802002040420F00010004002DE9FC47BB
:10CC8000027801F8012B0D4610F8011B4FF001143A
:10CC900006460020670080394FF0010804F10109C1
:10CCA0000E2978D2DFE801F007141F2E3C77777742
:10CCB00047576165697A06F051FB0646FFF7B7FBF7
:10CCC000C4B22C70681C22463146FFF726FC23E0D4
:10CCD0000724684602F060FD224669462846FFF7B1
:10CCE0001CFC324C57E0684602F056FD306800905C
:10CCF000684602F071FD002002F0E4FD85F8008036
:10CD00002B4C48E03E21681C09F022FF040002D0B1
:10CD1000012006F0EBFC2C7004F58034A41C3AE0F2
:10CD20003778701C394609F0D9FF012006F0DEFC87
:10CD300085F800802BE085F80080317811B1012959
:10CD400002D005E0002000E0012006F045FE00E0F2
:10CD500028703C461FE085F8008005F015F810B9F2
:10CD6000022009F097FC4C4615E0307808F022FCD0
:10CD7000EEE708F0EDFB2870F5E716F8017B0120DF
:10CD800006F0C4FC3946304608F0B6FC287004EBC7
:10CD9000074404F101142046BDE8FC872870307870
:10CDA00000B1012006F02CF8D3E7000009000100D3
:10CDB00002000500FF2008704FF0011070470000CE
:10CDC00038B52248816941F004018161816901F02F
:10CDD00004010091816941F008018161816901F0DC
:10CDE00008010091816941F010018161816901F0C0
:10CDF00010010091816941F0200181618069144D29
:10CE000000F0200000900D21284607F0E1F8104CBA
:10CE10006814103420600E21284607F0D9F84FF42A
:10CE20008040206001220C21284607F07FF8002175
:10CE3000284607F0FFF8012020600B21284607F064
:10CE4000C7F8E014211D086038BD00000010024042
:10CE5000000C01402DE9F05F002201F8012B0125B3
:10CE600010F8016B8A46A94604464FF4804B31E026
:10CE700014F8017B17F03F0000D14020C01D4FEA9D
:10CE8000D008380608D500220E21154807F04EF8C4
:10CE900013495846103106E00E21114807F098F862
:10CEA0000F4958461431086052462146384601F071
:10CEB00083FC3EB90E210A4807F08AF8084914316C
:10CEC000C1F800B0380602D5C244C14401E0444470
:10CED00045446D1C761ECBD249EA0540BDE8F09F63
:10CEE000000C01402DE9F04F87B08B4601F102089C
:10CEF00004460590EA490020029008700190667887
:10CF0000A41C8146002E75D0DFF898A314F8015BAD
:10CF1000A90770D5B9F1000F50D0BAF8147005F018
:10CF2000110001280AD0DFF8789369460E2001F03D
:10CF3000B3FC022812D04FF0000905E069462846EC
:10CF400001F0AAFC022802D0012806D10FE07F1EC2
:10CF500003D3D34909780029F0D04FE17F1E03D3D2
:10CF600099F800100029E0D04FF0000946E100993F
:10CF700088F80010009A08F10101120A01F8012B4B
:10CF8000009A120C01F8012B009A120E01F8012BE5
:10CF90008846B9F1000F11D029060FD5DAF80C2018
:10CFA00008F1010188F80020130A01F8013B130C75
:10CFB00001F8013B120E01F8012B8846E90651D514
:10CFC000A17834F8030B61F31F4014F8011B40EA09
:10CFD00001600490BAF816000390E80714D0BAF87C
:10CFE00014700021284601F057FC022804D00128C3
:10CFF000B3D109E022E197E07F1E791CADD0A849AA
:10D0000009780029EDD0F9E0BAF81470694628468D
:10D0100001F042FC022802D0012817D106E07F1E51
:10D0200014D39F4909780029F0D00FE0DAF81810DE
:10D03000009A1140049A914208D00399491E039125
:10D04000491C03D0964909780029DDD0DAF8181078
:10D05000009A1140049A914201D040F0100001283A
:10D0600016D15FE0BAF81470E90727D0B9F1000FC4
:10D0700058D10021284601F00FFC022802D00128D7
:10D0800006D106E07F1E03D3854909780029F0D038
:10D09000B4E029060FD5DAF80C2008F1010188F870
:10D0A0000020130A01F8013B130C01F8013B120E9A
:10D0B00001F8012B88464FF0010933E06946284604
:10D0C00001F0EAFB022802D0012806D106E07F1E0B
:10D0D00003D3734909780029F0D08FE029060FD5D2
:10D0E000DAF80C2008F1010188F80020130A01F891
:10D0F000013B130C01F8013B120E01F8012B88468D
:10D10000009988F80010009A08F10101120A01F84C
:10D11000012B009A120C01F8012B009A120E01F853
:10D12000012B884600215EE0B9F1000F25D0BAF846
:10D13000147069460E2001F0AFFB022802D00128CE
:10D140005CD106E07F1E59D3554909780029F0D0FB
:10D1500054E0009888F80000009908F10100090ADD
:10D1600000F8011B00994FF00009090C00F8011BA1
:10D170000099090E00F8011B8046A17834F8030BD2
:10D1800061F31F4014F8011B40EA01600090A906FA
:10D1900003D5CAF81800012026E0BAF814706946D1
:10D1A000284601F079FB022802D0012826D107E0A9
:10D1B0007F1E791C22D03A4909780029EFD01DE062
:10D1C00029060FD5DAF80C2008F1010188F80020B3
:10D1D000130A01F8013B130C01F8013B120E01F890
:10D1E000012B8846012101910299491C02912C4989
:10D1F000097819B9761E7FF489AE09E046B114F8B2
:10D20000011B8A0701D5C90600D5241D761EF5E746
:10D21000012837D1B9F1000F24D0BAF81450204EAC
:10D2200069460E2001F038FB022802D0012829D1DE
:10D2300005E06D1E26D331780029F1D022E0009957
:10D2400088F80010009A08F10101120A01F8012B78
:10D25000009A120C01F8012B009A120E01F8012B12
:10D2600088460FE0019969B1BAF814500C4E0021BC
:10D270000E2001F011FB022804D16D1E02D331787B
:10D280000029F4D002998BF800108BF80100059862
:10D29000A8EB0B01201A07B041EA0040BDE8F08F6F
:10D2A00000000020000600202DE9F84FDFF8208163
:10D2B0000027044638460D4601F1030A88F800703D
:10D2C000B4F80160E41C002E79D014F8019BDFF85B
:10D2D00004B15FEA897160D55FEAC9713CD0BBF8DF
:10D2E00014400021484601F0D7FA022802D0012854
:10D2F00065D131E0641E62D398F800100029F0D0A7
:10D300005DE026B95FEAC97001D04FF00E09BBF8A5
:10D3100014406946484601F0BFFA022802D00128AD
:10D320004DD106E0641E4AD398F800100029F0D0D1
:10D3300045E000998AF80010009A0AF10101120AEA
:10D3400001F8012B009A120C01F8012B009A120E21
:10D3500001F8012B8A467F1C761ED2D22FE0A178DD
:10D3600034F8030B61F31F4014F8011B40EA01601D
:10D370000090BBF814806946484601F08DFA0228F7
:10D3800002D001281BD107E0B8F1010817D31049DA
:10D3900009780029EFD012E07F1C761E701CDED1C8
:10D3A000BBF814400A4E00210E2001F075FA022845
:10D3B00005D1641E611C02D031780029F3D02F7092
:10D3C000390A6970A870AAEB0500BDE8F88F000063
:10D3D00000000020000600202DE9F0478A4605786D
:10D3E000447802794188407962F31F4141EA00663E
:10D3F0003648E10700F1040706D0EA074FF4005170
:10D4000001D0016000E03960A10706D5AA074FF4FA
:10D41000804101D5016000E0396021060DD5E909A0
:10D42000C9074FF0010802D0C0F8008005E0284984
:10D43000284808F019FFC7F80080DFF89090A9F19C
:10D440000409A9F104086EB32348864200D90646B0
:10D4500001F048FE0746E00705D0D9F80000C0F308
:10D460004030A84219D1A00706D5D8F80000C0F373
:10D470000030B0EB550F10D1600701D5A8080CD1D2
:10D48000A00601D5680908D120060BD5D8F8000000
:10D4900000F00100B0EBD51F04D001F023FEC01B4B
:10D4A000B042D8D3D9F80000D8F80020C0F34031FA
:10D4B000C2F30032D8F8000041EA420141EAC0104C
:10D4C0008AF800000548BDE8F0870000100C014014
:10D4D0000400FA050CED00E0C0C62D0001000600B6
:10D4E000094910B500220A70084888600A7464234C
:10D4F0008B82CA8201238A610B774A7701F07CFD17
:10D50000BDE81040FFF75CBC000600208096980044
:10D510000078832805D0842803D08C2801D00120EE
:10D520007047002070472DE9F04100F58054054612
:10D53000D4F8C8091E4617468846002835D0084644
:10D54000FFF7E6FF10B1012006F0D8F8402F00DD0C
:10D550004027D4F8C8093A46401EC4F8C809D4F890
:10D56000D009414605EB801004F6C814FEF7D5FF3C
:10D57000A06805EB80114046FFF7A2F9A16805EB12
:10D58000410101F58051A1F80009A068642105EB73
:10D5900080103060A068401CB0FBF1F201FB12006B
:10D5A000A0606068401C60600120BDE8F08110B59B
:10D5B00000F58053D3F8CC490CB3641EC3F8CC49B2
:10D5C000D3F8D44900EB84140C60D3F8D41900EBE1
:10D5D000410000F580506421B0F800091060D3F8D4
:10D5E000D409401CB0FBF1F201FB1200C3F8D409CE
:10D5F000D3F8C809401CC3F8C809012010BD002099
:10D6000010BDA0F5C760002200F5005064218260C3
:10D61000C260C0E90012704701078A0E07490A4438
:10D62000D2F8001C000602D548F6CF7001E04CF697
:10D630008F700140C2F8001C70470000005000408D
:10D640000207930E0C4A30B51344D3F8002C0006A1
:10D6500048F68F7502EA050048F2800482EA01026A
:10D6600002D502F0300101E002F4405108432043AA
:10D67000C3F8000C30BD00000050004030B585B04C
:10D680000546002400F03AF900200090CDE901059C
:10D690000120039004A9684600F092F800B101242B
:10D6A00000F0E2F805B0204630BD00000649002039
:10D6B000C8610648016941F004010161016941F056
:10D6C0004001016170470000301C00200020024032
:10D6D000064A0021D16106490A6942F002020A6144
:10D6E0004861086940F0400008617047301C002024
:10D6F00000200240044B0022DA61044A136943F01F
:10D700000103136101807047301C0020002002409B
:10D710000E49C868C2060E4803D5C26942F002022B
:10D72000C261CA68520703D5C26942F00102C261F0
:10D73000CA69D20707D0C26942F00402C261C8694F
:10D7400020F00100C8611420C8607047002002402A
:10D75000301C002070B5054600F0C6F90646114C95
:10D7600009E0681C07D025B100F0BEF9801BA84273
:10D7700001D9032070BDE068C007F2D1E0688006DF
:10D7800001D52020E060E068C00605D4E069C0074C
:10D7900002D1E068400703D5FFF7BAFF012070BD52
:10D7A000002070BD0020024031B500F09DF9044614
:10D7B00000F09AF90099001B8842F9D338BD0000A7
:10D7C0002DE9F047054626480F460126017E01292E
:10D7D0000FD00121814601762868DFF888804CF25D
:10D7E0005034022808D0A2462046FFF7B3FFA8B164
:10D7F00031E00220BDE8F0872046FFF7ABFF08BB11
:10D800000120FFF753FF2046FFF7A4FFD8F81010C0
:10D81000064621F00401C8F810101CE04FF0FF305C
:10D820003860AC6811E02046FFF752FF5046FFF722
:10D8300091FFD8F81010060021F00201C8F810106E
:10D8400001D03C6007E004F58064D5E9020100EBFB
:10D850008120A042E7D8002189F818103046C9E796
:10D86000301C0020002002400348016941F0800183
:10D870000161002070470000002002402DE9F05FA8
:10D8800007461C4888460024017E15461E4601298D
:10D8900009D00121814601764CF2503A5046FFF7FB
:10D8A00059FF18B122E00220BDE8F09F012F02D0FD
:10D8B000022F00D00427D346DFF83CA022012846DF
:10D8C0003146FEF775FD81B208EB4400FFF712FF09
:10D8D0005846FFF73FFFDAF8102022F00102CAF89D
:10D8E000102018B9641CE4B2BC42E7D3002289F8C6
:10D8F0001820D9E7301C00200020024005480169AB
:10D90000090605D50449416004494160002070477B
:10D91000012070470020024023016745AB89EFCD0D
:10D920002DE9F84FDFF890A100220AF1040B14460C
:10D9300001274FF00F090BF1040E00BF0B6807FA27
:10D9400004F52B40AB4274D1DFF870C14E68A6EBF2
:10D950000C0866452BD00DDC032E34D005DC36B325
:10D96000012E19D0022E2FD11BE0112E16D0122E0F
:10D970002AD119E0B8F5881F19D006DCB8F5803F28
:10D9800015D0B8F5801F1FD111E0B8F5001F0ED0DB
:10D99000B8F5041F18D10AE0CA6815E0CA68121D5C
:10D9A00012E0CA6808320FE0CA680C320CE08A68DC
:10D9B0002AB1012A4FF0080203D0456104E0042295
:10D9C00002E0056100E00022FF2B01D8064601E0DD
:10D9D00000F104064FEA840501D9A5F12005D6F827
:10D9E00000C009FA05F82CEA080C02FA05F54CEA21
:10D9F000050CC6F800C04D68ED0057D5304DAE6936
:10DA000046F00106AE61AD6924F0030605F001059C
:10DA100000952C4D06EB050CDCF80850A6074FEAE4
:10DA2000167809FA08F6B543274EB04202D100260F
:10DA300010E03BE0254EB04201D101260AE0244E21
:10DA4000B04201D1022605E0224EB04201D10326A8
:10DA500000E0042606FA08F62E43CCF808604D686C
:10DA6000DAF80060ED03554601D51E4300E09E4301
:10DA70002E604D68DBF80060AD035D4601D51E43A6
:10DA800000E09E432E604D68DEF80060ED027546B2
:10DA900001D51E4300E09E432E604D68AD020E4D41
:10DAA0002E6801D51E4300E09E432E60641C102C9E
:10DAB000FFF444AFBDE8F88F0004014000001110EE
:10DAC000001002400000014000080140000C01402D
:10DAD00000100140001401400C0401400AB1016132
:10DAE00070470904FBE70000EFF3108172B60748A6
:10DAF0000068406A064A1368C3EB9000C0F30D004B
:10DB0000184481F31088106070470000F41B002057
:10DB1000E4020020074810B5016841F010010160DF
:10DB2000032000F05DF80F2000F006F800F056F832
:10DB3000002010BD0020024010B588B006A901A841
:10DB400000F024F90498B0F5806F08D0B0F5A06F0C
:10DB500035D0B0F5C06F34D0B0F5E06F33D00120D0
:10DB60001A494FF0804200240968B1FBF0F04FF4ED
:10DB70007A61B0FBF1F11648491E02604FF6FF7260
:10DB8000C0E90324C0E9011444611248C16941F0AD
:10DB90000101C161C06900F0010000900C4800F073
:10DBA00018FC002809D10C480460094800F02DFC3D
:10DBB000002802D1064800F045FC08B010BD022044
:10DBC000CEE70420CCE70820CAE70000E8020020E6
:10DBD000F41B002000100240E40200207047000007
:10DBE000064900F0070208684FF6FF03184040EAB4
:10DBF0000220034A10430860704700000CED00E06B
:10DC00000000FA052DE9F047DFF8708105460E4661
:10DC1000D8F8000000F00700B0420CD2D8F800108D
:10DC200021F007013143C8F80010D8F8000000F0D7
:10DC30000700B04277D12878514C800705D560683D
:10DC4000A96820F0F000084360602878C00759D028
:10DC50006968012001290DD0022929D05FF0020353
:10DC600093FAA3F2B2FA82F242F02002520904D0EF
:10DC7000226803E04FF40033F2E7626A93FAA3F3F9
:10DC8000B3FA83F303F01F03984002424BD060685D
:10DC900020F0030008436060FFF726FF696807462D
:10DCA00041F2883001290DD00229814617D025E0A4
:10DCB0004FF00073D4E700BFFFF716FFC11B4945C3
:10DCC00001D918E081466068C0F381000128F3D1D2
:10DCD00018E000BFFFF708FFC11B49450BD860687B
:10DCE000C0F381000228F5D10CE000BFFFF7FCFE75
:10DCF000C11B494502D90320BDE8F087606810F0D8
:10DD00000C0FF3D1D8F80010404601F00701B142E2
:10DD10000BD9016821F0070131430160006800F070
:10DD20000700B04201D00120E6E72878400705D57A
:10DD30006068E96820F4E0600843606028780007C4
:10DD400006D56068296920F4605040EAC10060602F
:10DD500000F03CF86168F02292FAA2F201F0F001C2
:10DD6000B2FA82F2D140074A515CC84006490860C5
:10DD70000F20FFF7E1FE0020BEE700000020024078
:10DD800000100240A4880108E80200200F2202606F
:10DD90000C4A536803F003034360536803F0F00335
:10DDA0008360536803F4E063C36052684FF4E06338
:10DDB00003EAD20202610448006800F0070008602C
:10DDC00070470000001002400020024010B519A367
:10DDD00085B00FCB8DE80F001AA01B4B0068049094
:10DDE0005A681A4802F00C0104291DD008291BD1D9
:10DDF0004FF4701494FAA4F402F47011B4FA84F499
:10DE0000E140D2031DF8011010D55A684FF40033D9
:10DE100093FAA3F302F40032B3FA83F3DA4004ABCB
:10DE20009A5CB0FBF2F0484305B010BD0848484387
:10DE3000FAE7000002030405060708090A0B0C0DA7
:10DE40000E0F1010010200000010024000127A00B4
:10DE500000093D002DE9F84F04460078F74DC00752
:10DE60004FF0010625D068687704C0F381000128CF
:10DE700007D06868C0F3810002281BD16868C0031E
:10DE800018D597FAA7F0B0FA80F040F020004009CA
:10DE900001D0286800E0686A97FAA7F1B1FA81F129
:10DEA00001F01F0106FA01F108425ED06068002807
:10DEB0007CD05AE06068B0F5803F0BD010B1B0F56F
:10DEC000A02F11D0286820F480302860286820F422
:10DED000802002E0286840F480302860606828B321
:10DEE000FFF702FE80460BE0286840F4802028609F
:10DEF000F0E700BFFFF7F8FDA0EB0800642871D839
:10DF000097FAA7F0B0FA80F040F02000400901D065
:10DF1000286800E0686A97FAA7F1B1FA81F101F088
:10DF20001F0106FA01F10842E4D01EE0FFF7DCFD14
:10DF3000804605E0FFF7D8FDA0EB08006428DED896
:10DF400097FAA7F0B0FA80F040F02000400901D025
:10DF5000286800E0686A97FAA7F1B1FA81F101F048
:10DF60001F0106FA01F10842E4D12078DFF8D082DF
:10DF700080074FF000094FF002075BD568684FF04B
:10DF8000F80B10F00C0F07D06868C0F3810002286E
:10DF90001CD16868C00319D497FAA7F0B0FA80F0D2
:10DFA00040F02000400902D0286801E08BE0686A58
:10DFB00097FAA7F1B1FA81F101F01F0106FA01F118
:10DFC00008422CD0206901287DD128E0206990B337
:10DFD00096FAA6F0B0FA80F048F82060FFF784FDCA
:10DFE000824607E011E100BFFFF77EFDA0EB0A00CB
:10DFF000022884D897FAA7F0B0FA80F040F0200009
:10E00000400901D0286800E0686A97FAA7F1B1FAE0
:10E0100081F101F01F0106FA01F10842E4D02868FD
:10E020009BFAABF26169B2FA82F220F0F8009140FB
:10E030000843286025E0FFE796FAA6F1B1FA81F1DE
:10E0400048F82190FFF750FD824605E0FFF74CFDB0
:10E05000A0EB0A000228CCD897FAA7F0B0FA80F01B
:10E0600040F02000400901D0286800E0686A97FA73
:10E07000A7F1B1FA81F101F01F0106FA01F108429E
:10E08000E4D1207800076ED5A069B8B396FAA6F05F
:10E09000B0FA80F008EB8000C0F88064FFF724FD40
:10E0A000824605E0FFF720FDA0EB0A000228A0D879
:10E0B00097FAA7F0B0FA80F040F06000B6EB501F7E
:10E0C00002D128680CE062E197FAA7F0B0FA80F07C
:10E0D00040F06000B7EB501F01D1286A00E0686A89
:10E0E00097FAA7F1B1FA81F101F01F0106FA01F2E6
:10E0F0001042D7D00120FFF757FB34E0FFE796FA34
:10E10000A6F1B1FA81F108EB8101C1F88094FFF723
:10E11000EBFC824606E000BFFFF7E6FCA0EB0A003E
:10E12000022872D897FAA7F0B0FA80F040F06000A9
:10E13000B6EB501F01D128680BE097FAA7F0B0FAB0
:10E1400080F040F06000B7EB501F01D1286A00E07A
:10E15000686A97FAA7F1B1FA81F101F01F0106FA96
:10E1600001F21042D8D12078400765D5E86940F027
:10E170008050E861E869DFF8CCB000F08050009092
:10E18000DBF8001041F48071CBF80010FFF7ACFC15
:10E19000824605E0FFF7A8FCA0EB0A00642834D80B
:10E1A000DBF80000C005F5D5E06801280AD008B109
:10E1B000052813D0286A20F001002862286A20F080
:10E1C000040002E0286A40F001002862E06841F2A1
:10E1D000883B90B3FFF788FC82460BE0286A40F04A
:10E1E00004002862EEE700BFFFF77EFCA0EB0A0107
:10E1F00059450AD897FAA7F0B0FA80F040F04000ED
:10E20000B6EB501F02D128680CE0A3E097FAA7F004
:10E21000B0FA80F040F04000B7EB501F01D1286AFF
:10E2200000E0686A97FAA7F1B1FA81F101F01F02E4
:10E2300006FA02F10842D7D031E005E000100240B2
:10E240000000424200700040FFF74EFC824605E0AD
:10E25000FFF74AFCA0EB0A0159457BD897FAA7F0D3
:10E26000B0FA80F040F04000B6EB501F01D12868B2
:10E270000BE097FAA7F0B0FA80F040F04000B7EB5F
:10E28000501F01D1286A00E0686A97FAA7F1B1FA35
:10E2900081F101F01F0206FA02F10842D8D1E069CB
:10E2A00080B36968C1F38101022970D04FF0807199
:10E2B0004F000228484609D091FAA1F1B1FA81F144
:10E2C00048F82100FFF710FC044669E08A4691FAFD
:10E2D000A1F1B1FA81F1C14648F82100FFF704FC31
:10E2E000804605E0FFF700FCA0EB0800022854D8A8
:10E2F00097FAA7F0B0FA80F040F02000400902D071
:10E30000286801E061E0686A97FAA7F1B1FA81F143
:10E3100001F01F0106FA01F10842E3D1206AB0F5CD
:10E32000803F05D16868A16820F400300843686028
:10E33000D4E908010843696821F47411084368604E
:10E340009AFAAAF0B0FA80F049F82060FFF7CCFB07
:10E35000044606E021E000BFFFF7C6FB001B0228D1
:10E360001BD897FAA7F0B0FA80F040F020004009DF
:10E3700001D0286800E0686A97FAA7F1B1FA81F144
:10E3800001F01F0106FA01F10842E5D01DE01EE090
:10E39000FFF7AAFB001B022802D90320BDE8F88F73
:10E3A00097FAA7F0B0FA80F040F02000400901D0C1
:10E3B000286800E0686A97FAA7F1B1FA81F101F0E4
:10E3C0001F0106FA01F10842E2D10020E6E7012030
:10E3D000E4E710B50446022084F839002068016A99
:10E3E00041F21112114207D1016A9210114203D178
:10E3F000016821F001010160204600F021F80020B1
:10E4000084F8390084F8380010BD10B5040003D03A
:10E4100094F8390010B107E0012010BD002084F805
:10E420003800204600F00DF8022084F83900211D44
:10E43000206800F067FE012084F83900002010BD3C
:10E4400070477047022180F8391001680A6842F06D
:10E4500001020A60012180F839100020704770B570
:10E46000044690F838000D4601280DD0012684F8A6
:10E470003860022084F8390042B1042A18D0082AF2
:10E480002AD00C2A4DD139E0022070BD206800F05E
:10E4900077FE2068816941F0080181612068816907
:10E4A00021F004018161206881692A69114311E02A
:10E4B000206800F08DFE2068816941F4006181616F
:10E4C0002068816921F480618161206881692A69FD
:10E4D00041EA0221816124E0206800F0A5FE206865
:10E4E000C16941F00801C1612068C16921F00401DE
:10E4F000C1612068C1692A69114311E0206800F0F8
:10E50000BFFE2068C16941F40061C1612068C16932
:10E5100021F48061C1612068C1692A6941EA022150
:10E52000C16184F83960002084F8380070BD10B5EE
:10E530000446022084F839002068016A41F2111271
:10E54000114207D1016A9210114203D1016821F0F2
:10E5500001010160204600F021F8002084F8390014
:10E5600084F8380010BD10B5040003D094F83900C9
:10E5700010B107E0012010BD002084F838002046CB
:10E5800000F00DF8022084F83900211D206800F009
:10E59000B9FD012084F83900002010BD7047704794
:10E5A00010B504460068012200F0DEFD074920682E
:10E5B000884203D1416C41F4004141642068016804
:10E5C00041F001010160002010BD0000002C01405D
:10E5D00070B5040018D0022084F839002068C168A2
:10E5E00021F40051C16020680025C56020680561E4
:10E5F00020684561204600F038F8E56384F839501A
:10E6000084F83850002070BD012070BD70B5040042
:10E6100004D094F83900002510B106E0012070BD47
:10E6200084F83850204600F021F8022084F83900A0
:10E630002068C16821F40051C160204600F042FE0C
:10E640002068016921F4904101612068416921F04D
:10E650002A0141612068C16841F40051C160E5634D
:10E66000012084F83900002070BD7047704703F026
:10E6700065F9002070471CB507F0BCFA00281BD0D4
:10E680009E208DF80000E7208DF8010069461020DB
:10E6900000F07EFC07F0AEFA00280DD000208DF8C7
:10E6A00000006946082000F073FC01A9002007F073
:10E6B00033FA012800D000201CBD000070B5104CBA
:10E6C0000D21204605F09DFC0D4D6014103528608D
:10E6D0000E21204605F095FC4FF480402860012271
:10E6E0000C21204605F04BFC206820F00F00206034
:10E6F000206840F0070020600120286070BD000005
:10E70000000C01402DE9F04117460D4680460026D9
:10E71000FFF7F4F8A80706D000206E220DA103F041
:10E72000B9F900240EE00120F7E700BF57F82420D4
:10E7300008EB840100230220FFF7A0F808B10126AE
:10E7400003E0641CB4EB950FF0D3FFF78DF830466F
:10E75000BDE8F0812E2E5C2E2E5C2E2E5C736F7524
:10E760007263655C6869635F68616C5C73746D3368
:10E77000325C73746D33326631303378625C666C50
:10E780006173682E630000000246002053090949A6
:10E79000012B0BD0022B0BD0D1F8241002F01F025A
:10E7A000012393400B4200D0012070470968F5E730
:10E7B000096AF3E7001002402DE9F00710F03F036B
:10E7C00008BF402310F0800FDFF8C090DFF8C0A032
:10E7D0004FF40054A9F104062CD0002B12BFDFF82F
:10E7E000B480BDE8F007704700274FF0080CDAF856
:10E7F000045010E0491EFDD1D8F800003460C0F389
:10E8000000312846401EFDD178085B1E40EAC11742
:10E81000BCF1010C05D0002B1CBFC9F800402946F3
:10E82000E8D127FA0CF002F8010B002BDCD1BDE88F
:10E83000F0077047002B19BF4FF4804CDAF8042022
:10E84000BDE8F007704700BF11F8015B082712E030
:10E85000E80714BFC6F800C0C9F800C0C9F80040F6
:10E860001046401EFDD134601046401EFDD16D089B
:10E870005B1E7F1E04D0002BEAD1BDE8F007704775
:10E88000002BE1D1BDE8F00770470000140C0140F7
:10E8900000060020080C0140034A52780AB100F03B
:10E8A00005B800F055B90000000600202DE9F04F32
:10E8B000A04F4FF4804AC7F800A07E143D1D2E6083
:10E8C0003E60C20714BFC7F800A0C5F800A02E60C4
:10E8D0003E6042085FEAC27C14BFC7F800A0C5F8DA
:10E8E00000A02E603E60830802445FEAC37C14BF30
:10E8F000C7F800A0C5F800A02E603E601344C2080F
:10E900005FEAC27C14BFC7F800A0C5F800A02E6063
:10E910003E601A44D20714BFC7F800A0C5F800A093
:10E920002E603E60C5F800A02E603E60C7F800A0D3
:10E930002E603E60DFF800B2DBF8042022F0706247
:10E94000CBF80420DBF80420CBF80420C7F800A0A3
:10E95000DFF8E8E19EF81C20131E03D02E603E6015
:10E96000521EFBD12E60DFF8D891D9F800203E600E
:10E97000C2F300322E60D9F800C03E60CCF3003CF8
:10E9800042EA4C022E60D9F800C03E60CCF3003C55
:10E9900042EA8C02012A1DD0022A18BF042A7DD027
:10E9A00013F1210003D02E603E60401EFBD1DBF846
:10E9B000040020F07060CBF80400DBF8040040F0A5
:10E9C0004070CBF80400C5F800A0C7F800A01046BE
:10E9D000BDE8F08F10F0020F4AD00024A04620239B
:10E9E0002E60D9F800C03E60CCF3003C6408E044DF
:10E9F00044EACC745B1EF3D12E60D9F800303E603F
:10EA000088EA133313F0010F18BF0822002918BF3A
:10EA10000C609EF81C1019B12E603E60491EFBD19F
:10EA2000DBF8041021F07061CBF80410DBF804105F
:10EA300041F04071CBF80410C5F800A010F0800F31
:10EA40000AD0404840490068B0FBF1F03F494968AE
:10EA5000B1FBF0F0CEF80C009EF81000002818BFB3
:10EA6000C5F800A061D02E603E60401EFBD15CE086
:10EA70001BB12E603E605B1EFBD1DBF8043023F03F
:10EA80007063CBF80430DBF8043043F04073CBF80C
:10EA90000430C5F800A00968002300E017E04FF03B
:10EAA000200CCC0714BFC7F800A0C5F800A02E604A
:10EAB0003E600B444908BCF1010CF2D1D90714BFE8
:10EAC000C7F800A0C5F800A02E603E60B6E79EF82B
:10EAD0001DC0BCF1000F1CBF10F0020F212103D09C
:10EAE0002E603E60491EFBD11BB12E603E605B1E56
:10EAF000FBD1DBF8041021F07061CBF80410DBF8D7
:10EB0000041041F04071CBF80410C5F800A0BCF12E
:10EB1000000F0AD010F0020F04BFC5F800A021209A
:10EB200003D12E603E60401EFBD1C7F800A0104606
:10EB3000BDE8F08F100C0140000C014000060020E1
:10EB4000080C0140E802002040420F00001000E0E5
:10EB50002DE9F04FDFF810A44FF4804E4FF0000C79
:10EB6000CAF800E00AF104094FF40057C9F8007030
:10EB7000FE4D6A6813465B1EFDD1CAF8007013464D
:10EB80005B1EFDD1C30714BFCAF800E0C9F800E05E
:10EB9000C9F8007013465B1EFDD1CAF80070134619
:10EBA0005B1EFDD10CEB00044FEA500C5FEACC7306
:10EBB00014BFCAF800E0C9F800E0C9F800701346B5
:10EBC0005B1EFDD1CAF8007013465B1EFDD1644484
:10EBD0004FEA900C5FEACC7314BFCAF800E0C9F8A2
:10EBE00000E0C9F8007013465B1EFDD1CAF8007042
:10EBF00013465B1EFDD164444FEAD00C5FEACC7330
:10EC000014BFCAF800E0C9F800E0C9F80070134664
:10EC10005B1EFDD1CAF8007013465B1EFDD104EBEC
:10EC20000C03DB0714BFCAF800E0C9F800E0C9F81C
:10EC3000007013465B1EFDD1CAF8007013465B1EC0
:10EC4000FDD1C9F800E0C9F8007013465B1EFDD184
:10EC5000CAF8007013465B1EFDD1CAF800E0C9F87F
:10EC6000007013465B1EFDD1CAF8007013465B1E90
:10EC7000FDD1BF4BD3F804C02CF0706CC3F804C0B6
:10EC8000D3F804C0C3F804C0CAF800E02C7FB4F184
:10EC9000000C0BD0C9F8007013465B1EFDD1CAF8FA
:10ECA000007013465B1EFDD1641EF3D1C9F80070DD
:10ECB00013465B1EFDD1DFF8BCB2DBF80030CAF8AA
:10ECC0000070C3F300331446641EFDD1C9F8007010
:10ECD0001446641EFDD1DBF80040CAF80070C4F38E
:10ECE00000341646761EFDD143EA4403C9F800708D
:10ECF0001446641EFDD1DBF80040CAF80070C4F36E
:10ED0000003415466D1EFDD143EA8408B8F1010FA9
:10ED100024D0B8F1020F18BFB8F1040F72D01CF163
:10ED200021010BD0C9F800701046401EFDD1CAF871
:10ED300000701046401EFDD1491EF3D18C48416839
:10ED400021F070614160416841F040714160C9F853
:10ED500000E0CAF800E04046BDE8F08F10F0020F76
:10ED600051D0002635464FF0200C00BFC9F8007086
:10ED700013465B1EFDD1DBF80030CAF80070C3F308
:10ED8000003413465B1EFDD17308254443EAC47664
:10ED9000BCF1010CEAD1BC46C9F80070734C1346B3
:10EDA0005B1EFDD1DBF80030CAF800C0C3F30033AE
:10EDB000521EFDD185EA030212F0010F18BF4FF079
:10EDC0000808002918BF0E60257F002D18BF636852
:10EDD0000CD000BFC9F800C01A46521EFDD1CAF8B7
:10EDE00000C01946491EFDD16D1EF3D160494A6825
:10EDF00022F070624A604A6842F040724A60C9F884
:10EE000000E047E069E0BCF1000F0CD0C9F80070E9
:10EE100013465B1EFDD1CAF8007013465B1EFDD180
:10EE2000BCF1010CF2D1524BD3F804C02CF0706C41
:10EE3000C3F804C0D3F804C04CF0407CC3F804C04D
:10EE4000F446C9F800E000240B682025D90714BF58
:10EE5000CAF800C0C9F800C0C9F800701146491EC0
:10EE6000FDD1CAF800701146491EFDD11C445B0853
:10EE70006D1EEBD1E10714BFCAF800C0C9F800C08D
:10EE80003B46C9F800701146491EFDD1CAF8003052
:10EE9000521EFDD110F0800F0AD037483749006864
:10EEA000B0FBF1F036494968B1FBF0F02F49C8607A
:10EEB0002E48027C002A1CBFC9F800E0416851D0EE
:10EEC000C9F800700846401EFDD1CAF80070084617
:10EED000401EFDD1521EF3D144E024494C7F002C4A
:10EEE0001CBF10F0020F21230CD000BFC9F8007026
:10EEF0001146491EFDD1CAF800701146491EFDD1C8
:10EF00005B1EF3D1BCF1000F0DD000BFC9F800703B
:10EF10001146491EFDD1CAF800701146491EFDD1A7
:10EF2000BCF1010CF2D112494B6823F070634B60C5
:10EF30004B6843F040734B60C9F800E094B110F0A7
:10EF4000020F04BFC9F800E021210BD1C9F80070FD
:10EF50001046401EFDD1CAF800701046401EFDD17B
:10EF6000491EF3D10EE00000100C01400006002005
:10EF7000000C0140080C0140E802002040420F0054
:10EF8000001000E0CAF800E04046BDE8F08F000045
:10EF90002DE9F001441E3CBFBDE8F00170474FF47D
:10EFA00080474FF400581348114DD0F804202E1F0D
:10EFB00011F8013B4FF0080C13F0010F14BF37603C
:10EFC0002F60C5F800801046401EFDD1C6F80080B5
:10EFD0001046401EFDD15B08ACF1010C641E3CBF25
:10EFE000BDE8F0017047BCF1000FE5D1E0E700009B
:10EFF000140C0140000600200C490A680C49B0EBD3
:10F00000920F02D3012048700DE000EB5202521E15
:10F01000B2FBF0F000234B70022803D90322B0FBAF
:10F02000F2F000E00120486070470000E802002094
:10F03000000600200B4A50680B4910F00C030B48E7
:10F0400003D0042B01D0082B09D001605168084A75
:10F05000C1F30311515C0268CA4002607047054960
:10F06000F3E700000010024000127A00E8020020DE
:10F07000A488010800E6DF0C0D48016841F0010199
:10F08000016041680B4A1140416001680A4A114021
:10F090000160016821F480210160416821F4FE01D2
:10F0A00041604FF41F0181600449C003086070474C
:10F0B000001002400000FFF8FFFFF6FE08ED00E040
:10F0C000BFF34F8F05480168054A01F4E061114321
:10F0D0000160BFF34F8F00BFFDE700000CED00E0C3
:10F0E0000400FA05044805490068B0FBF1F0044942
:10F0F0004968B1FBF0F07047E802002040420F0081
:10F10000001000E0F0B50268144B154C154D4FF09F
:10F110008047984205D0B84203D0A04201D0A8420F
:10F1200003D122F070064A683243984205D0B842B3
:10F1300003D0A04201D0A84203D122F44074CA688F
:10F14000224302608A68C2620A688262984201D1E0
:10F150000969016301214161F0BD0000002C0140FB
:10F16000000400400008004010B50123046A8B40F1
:10F170009C430462036A8A401343036210BD00008B
:10F1800030B5026A22F001020262026A43688469B1
:10F1900024F073050C682C4322F002058A682A4388
:10F1A0000A4DA8420BD122F00805CA6823F4407327
:10F1B0002A434D6922F004021D438B692B434360AF
:10F1C000846149684163026230BD0000002C014047
:10F1D00030B5026A22F010020262026A4368846952
:10F1E0000D6824F4E64444EA05248D6822F02002E8
:10F1F00042EA05120B4DA8420ED1CD6822F08002E2
:10F2000042EA05124D6923F4406343EA85038D69A0
:10F2100022F0400243EA85034360846149688163C8
:10F22000026230BD002C014030B5026A22F48072C7
:10F230000262036A4268C46923F4007324F0730510
:10F240000C682C438D6843EA05230C4DA8420ED16F
:10F25000CD6823F4006343EA05234D6922F440524C
:10F2600042EA05128D6923F4806342EA0512426086
:10F27000C4614968C163036230BD0000002C0140D5
:10F2800030B5026A22F480520262046A4268C3699D
:10F290000D6823F4E64343EA05238D6824F4005403
:10F2A00044EA0534064DA84204D14D6922F4804257
:10F2B00042EA85124260C36149680164046230BD5C
:10F2C000002C0140F0B501680A69C36822F440527D
:10F2D0001A430A6102698168036811434269114354
:10F2E000DA6841F20C64A2430A43DA6001684A69B1
:10F2F000836922F440721A434A610468194B4068DA
:10F30000642132229C424FEA800001D1164B00E07A
:10F31000164B6FF01807B3FBF0F5B5FBF1F5B3FB37
:10F32000F0F67D4306EB8505B3FBF0F602EB051521
:10F33000B5FBF1F5B6FBF1F605F0F00505EB0615AA
:10F34000B3FBF0F6B3FBF0F0B0FBF1F0784306EB63
:10F35000800002EB0010B0FBF1F000F00F00284439
:10F36000A060F0BD003801400076DD4100BBEEA09A
:10F3700070B515480468154DA00612D52868C6B2A8
:10F38000134802F01BFC132804D93146104802F040
:10F3900079FC06E005D14FF013020EA10C4802F0F3
:10F3A000C3FC200607D5104802F015FC20B10E481A
:10F3B00002F02CFC286070BD0448083001680B4A3C
:10F3C0001140016070BD0000004400400444004052
:10F3D000603000203C4441504C696E6B3A4F76657A
:10F3E00072666C6F773E0A00501C00207FFFFFEFB3
:10F3F0001CB50020009001AA69460848FEF7D7F81E
:10F4000040B10748DDE90012007840F0800002F0CA
:10F41000FFF91CBD0349012008701CBD7067002066
:10F42000DA880108EC05002038B5164D164C2888FE
:10F430006188421A15486168007801F01FFE616812
:10F4400080B201446160618801448AB26280298887
:10F450008A4206D20F4B0E491B7831F813108142B5
:10F460000FD96B460C490D48FEF75DF8002528B111
:10F47000207818B10020FFF7BBFF25706580064893
:10F48000606038BDE0880108EC050020DB880108D9
:10F49000DC8801086B050020BA4600207067002058
:10F4A00010B50446400702D50020FFF7BDFF200736
:10F4B00004D5BDE810400020FFF79ABF10BD002022
:10F4C000704700000348D0E90410081A024909886F
:10F4D000081A704728050020D088010870B50B4D28
:10F4E0000C460346D5E90C0188420BD9401A8442E8
:10F4F00000DD044622461846FDF70FF8686B2044ED
:10F50000686300E00024204670BD0000280500204C
:10F51000002070472DE9F041194C0D460746D4E90B
:10F520000401401A17490988081A002802DC002043
:10F53000BDE8F081854200DD0546D4E906020026DB
:10F5400090420FD3104A431911448B420AD30E1A2A
:10F55000904632463946FCF7E0FF3744AD1B404643
:10F56000C4F8188035B12A463946FCF7D6FFA069A1
:10F570002844A0612169A81901442161D8E700004D
:10F5800028050020D08801083A46002010B5054C17
:10F590006068002805D10120606000F005F80020B7
:10F5A000606010BD280500202DE9F047234CA068BD
:10F5B00000283DD0D4E90401421AE0684FF000066B
:10F5C000104337D020461E4FDFF87880DFF8789060
:10F5D0001E4DC1697AB1A069814205D338888B1864
:10F5E0002844834200D3421A99F8003038F81300B7
:10F5F000904200DA02461648E660007840F080004B
:10F6000002F006F9E1690144E16162690244626164
:10F610003B882B448B4200D1E561216991420BD19B
:10F6200099F8002038F81210814205D10120E060DD
:10F63000BDE8F087A660FBE7E660F9E72805002053
:10F64000D0880108D48801086B0500203A460020C4
:10F65000CE88010810B50B4C206A18B1A06A401C76
:10F66000A06210BD01202062606200F00DF8002051
:10F6700060622062D4E90C018842F2D0401AFFF7A0
:10F6800047FF10BD2805002010B5134C1348164B3A
:10F69000216B0A1A12481B780088821A114830F828
:10F6A000130082420EDB1148007801F0E7FC216B69
:10F6B00008442063A06A00280CD0616A002909D19F
:10F6C000401E06E00120E062606A002802D0A06AC5
:10F6D000401CA06210BD0000280500207A460020D2
:10F6E000D2880108D48801086B050020CF88010862
:10F6F00010B50446400702D52046FFF7ABFF2007B0
:10F7000004D52046BDE81040FFF740BF10BD70474C
:10F71000002070470020704710B50B4800F03CF8FF
:10F72000002810D0084A0948116801700B0A43707C
:10F730000B0C8370090EC1701179017151794171FF
:10F7400091798171012010BD6005002038450020AD
:10F750000E4810B5002141608160C1600C4A016112
:10F76000C0E90512C0E9072141620A4A8162C0E985
:10F770000B124263018038304FF41652026001715F
:10F7800041710821817100F015F810BD2805002095
:10F790003A4600207A46002005490A6802600A7944
:10F7A00082714A79427189790171012070470000A4
:10F7B000F805002010B507F06FF903F0AFFF012046
:10F7C00010BD10B507F0CCF9012010BD10B507F041
:10F7D0006FFA012010BD0000064902680A608279B4
:10F7E0000A7142794A71007988710020C87108460F
:10F7F00007F0C8B9F805002010B5104800241049DA
:10F8000044608460C4600461C0E90541C0E9071434
:10F8100044620C498462C0E90B4141630480FFF7F4
:10F82000D0FF06484FF4165138300160047144711E
:10F8300008218171FFF7D0FF10BD000028050020CE
:10F840003A4600207A46002010B5FFF7D5FF10BDDC
:10F8500070B51948007800282DD0184C00250126D5
:10F86000206A50B9D4E90C10814206D11448814273
:10F8700003D02063E56225626063A06A70B1206AEC
:10F8800060B9E06A50B92662FFF7FEFE2562D4E94E
:10F890000C01884202D0401AFFF73AFED4E9010178
:10F8A000084308D1D4E90401884204D06660A66008
:10F8B000FFF77AFE656070BD69050020280500200D
:10F8C0007A46002070B505460D480068C06980473B
:10F8D000A0B90C4C35B104F09DF82060002006F072
:10F8E000D9FE0BE004F096F82168401AB0F5967F37
:10F8F00001D3012000E0002003F018FF012070BDBB
:10F9000090830108F4050020002070470020704714
:10F91000024910B50880FFF759FF10BD28050020E7
:10F920000A4810B58278018862F31F41C27841EA23
:10F93000026207490A6002790A7142794A71807944
:10F9400088710846FFF748FF10BD000038450020C9
:10F950006005002000B50346FDF75EFE43F230016E
:10F9600018465DF804EBFDF76BBE0000F0B5837838
:10F97000204A03F00F041E0657688188158803F09B
:10F980000F0307EB031304D5491C21F001011D608F
:10F9900011E09D603E2909D91F3121F01F014FF070
:10F9A000FF3505EB411545F4004503E0491C21F006
:10F9B00001014D02DD6013880B441380C07810F004
:10F9C000030006D0012807D0022808D003280AD156
:10F9D00007E04FF4007106E04FF4806103E000217E
:10F9E00001E04FF4C061044A214302EB8400C0F8F7
:10F9F000001CF0BD9C04002000500040002802D1F3
:10FA00000149D020088070479C04002000F0CABA49
:10FA10000949CA1350B101200860002008600B1D7D
:10FA200018604FF4E0500860044803E003200860C9
:10FA30000248001D02607047405C00401008014011
:10FA400010B50B4C0B49A0880A78904200D80246AA
:10FA50001AB907490020143908718020216801F083
:10FA6000D7FE216801442160A188081AA08010BD3A
:10FA70007C050020B788010810B5064C0020A2883C
:10FA8000216801F0FBFA216801442160A188081A6D
:10FA9000A08010BD7C05002070470021FDF7D0BD7F
:10FAA00043F22001FDF7CCBD2DE9F0476F4C07462E
:10FAB00080074FF00009A4F10805A4F11C0623D526
:10FAC00001F070FE2078C009FFF7E6FFE088A8800B
:10FAD0002078C0F3411121B101295CD0022971D1F4
:10FAE00067E06178DFF888810C296BD2DFE801F0EC
:10FAF000060D6A156A1A296A2D333A4801F0EAFBA5
:10FB000021E000BFFFF79CFF68E0002006E000BF97
:10FB100001F058FED8F8000039E0012001F018FC8F
:10FB2000C0B3F5E710F01F0F4CD1A078012140F0D1
:10FB30008000307000F07F0001F026FE01F042FEF0
:10FB40004CE001F0C7FA28B3DCE710F01F0F39D101
:10FB500046481B3812E001F04BFCD8B101F032FEF0
:10FB6000444813E000F01F0001282BD1707888B1C1
:10FB70002079B178884225D23F4908442860C1E7FE
:10FB800001F000FD30B101F01DFE3C48006828B3D3
:10FB9000804723E016E010F01F0013D0012811D198
:10FBA00000F004F9D0B900F05DF9B8B900F0AEF892
:10FBB00007E010F01F0F05D100F082F970B900F0D6
:10FBC000C3F958B92078000603D4E08808B10020B2
:10FBD00000E0802001F0E2FDA5F80490780721D52F
:10FBE000207800061CD4A888E0B1FFF745FFA8885C
:10FBF000C0B92078C0F3411161B101290AD110F0D8
:10FC00001F0007D0012805D100F062F850B900F0BC
:10FC100037F838B9802001F0C1FDA5F8049001E063
:10FC200001F0D6FD380712D52078000606D5A88841
:10FC3000317908430BD0FFF703FF08E03078010665
:10FC400005D500F07F003070002101F09DFD7806A1
:10FC500002D50020FFF77EFE380604D5BDE8F04748
:10FC60008020FFF777BEBDE8F08700008405002004
:10FC700040890108388901088B0400203C8901086B
:10FC800010B51048104A01791278914203D00F4AFA
:10FC90001278914214D1417821B1022905D020294E
:10FCA0000ED10AE0FFF730FE02E04088FFF72EFE9B
:10FCB00030B101F087FD012010BDFFF731FEF7E7FD
:10FCC000002010BD84050020FC020020FD02002061
:10FCD00010B50B480B4A01791278914203D00A4AB9
:10FCE0001278914209D14078092806D100F008FB2A
:10FCF00018B101F067FD012010BD002010BD00000B
:10FD000084050020000300200203002070B5224972
:10FD1000224A08791278904203D0214A1278904200
:10FD200038D11D4849781F4C1F4D408804291FD0E9
:10FD300007DC79B101290FD002290BD0032929D181
:10FD400011E0202906D021291AD022291BD02329ED
:10FD500020D11BE02C6011E0FFF7DCFC05E02C60FB
:10FD6000FFF76EFE0AE0FFF7D3FC0028F7D111E0A1
:10FD7000FFF7A5FB0CE000BF01F024FD012070BDE2
:10FD8000FFF7CAFCF1E7FFF7C3FD01E0FFF79AFDBB
:10FD90000028F1D1002070BD84050020FC02002065
:10FDA000FD020020384500207C0500202DE9F041AF
:10FDB000244C254920790978884203D023490978C1
:10FDC00088423DD16078224D224E234F0C2837D2F5
:10FDD000DFE800F03606212D363636363616243268
:10FDE00000F0AEF960B3E078012802D0032803D018
:10FDF00003E01A48286000E02E60FFF721FE13E0C0
:10FE0000E078022802D0032803D00DE014482860CF
:10FE10000AE02E6008E000F07BF90AE000F04AFA00
:10FE20000CE000BF01F0CEFC0120BDE8F08100F045
:10FE30007DF928B12F60E0E700F058FA0028F1D1F1
:10FE40000020F2E7840500200003002002030020C8
:10FE50007C050020980400203845002079450020CA
:10FE6000BA45002010B51248124A01791278914221
:10FE70001CD1014642784888C988FE2A09D0FF2A49
:10FE800014D198B991B901F049F878B101F09AFC10
:10FE90000AE058B9012909D100F058FD30B10749ED
:10FEA00005480860FFF7CCFD012010BD002010BD03
:10FEB0008405002001030020384500207C05002037
:10FEC00070B51B4D1B4900266878097888422CD1F3
:10FED000A888022829D1184CA97811B3002003E082
:10FEE000227802B11444401C421C9142F8D8207878
:10FEF000B0B103F0EDF90146E01CFCF702FB0F493D
:10FF000001260C602078EA8882420BD988800C494F
:10FF10000978491E084206D10A490120087002E00A
:10FF2000002602E08A80FFF78BFD304670BD00009E
:10FF300084050020D8880108580400207C05002092
:10FF4000B78801086C05002010B5104A104900243C
:10FF500050780978884217D19088072814D10E4824
:10FF60000C49012401600989D2888A4209D981801B
:10FF70000A480078401E014204D109490120087056
:10FF800000E08280FFF75CFD204610BD8405002064
:10FF9000D9880108080300207C050020B7880108E3
:10FFA0006C050020074800214170C160016141617A
:10FFB000418081808161C161C18001810162418193
:10FFC000704700008C0500202DE9F047494CA088BF
:10FFD00061884A4DDFF820816F1C0026884216D3C5
:10FFE000A069A0B96661A680012329786A1C184619
:10FFF00007F026F96080608848B1656198F80000D4
:020000040801F1
:10000000012801D8676102E06088401C6080608838
:100010004FF00109B0BBE06808B1E66032E020694A
:1000200080B398F8001001290DD82E70A680022305
:100030006A1C0021012007F003F96080608800B18C
:10004000676126611EE02F78C846202F00D3002765
:1000500008FA07F1014218D0781CC1B22970A680B5
:1000600002236A1C012007F0EBF86080608818B159
:1000700065616088401C6080206908FA07F820EA02
:1000800008002061608830B902E07F1CFFB2DCE725
:10009000A069002829D06088A188DFF86880401A0C
:1000A00085B2174F98F8000037F81000A84200D228
:1000B00005461548007828B140F080002A4661695D
:1000C00001F0A6FB6069114928446061A0882844BA
:1000D00080B2A0800988884209D298F8000037F8D9
:1000E0001000A84203D1C4F81890BDE8F087A661BB
:1000F000FBE700008C050020C2880108784500203D
:10010000BE8801086B050020B8880108C488010872
:10011000034804498078085C03490870012070474F
:1001200084050020960400203845002010B507F013
:1001300085F802490870012010BD000038450020F4
:100140000B4910B5C8780022012804D0022804D039
:10015000032806D103E0074A02E0002010BD064A4A
:10016000521C8978002307F06BF8012010BD0000B5
:100170008405002078450020970400202DE9F05FD9
:100180004348007800287DD04248042300250278A7
:10019000A946511C017040490C7804EB440B03FA4A
:1001A0000BF35B1E9A4202DB80F8009001253B496D
:1001B00000220B88FF2B01D25B1C0B80384B374988
:1001C00033F814A009888A4500D10122354B8646B0
:1001D000002100699EF8006093F800C03FE000270E
:1001E00065B1314B5C5CFF2C01D2641C5C542F4C1C
:1001F000645C1CB15B5CA34200D301272B4B4FF026
:10020000020808FA0BF85B5C03FA08F4544502DABA
:100210000BB1012400E0002432B12CB14FF00108F1
:1002200008FA01F848EA0000DFF8848018F8018035
:1002300043450AD01C4B5B5C434503D301238B40F1
:1002400018430026194B03F8018037B114B9012374
:100250008B401843144B03F80190491CC9B2614507
:10026000BDD3CEF8100071468EF8006012B10B4A73
:10027000A2F80090002808D04888002805D1BDE8E1
:10028000F05F00E001E0FFF79FBEBDE8F09F0000D7
:10029000690500208C0500206B05002092040020D9
:1002A000BA880108C288010894040020950400203F
:1002B00096040020094809498078C97810B1084A95
:1002C000815409E0084A0020064B127802E01954D4
:1002D000401CC0B29042FAD3012070478405002030
:1002E0009504002096040020C2880108034810B538
:1002F000807807F035F8012010BD0000840500204B
:100300000C4908B5C8780022012804D0022804D07E
:10031000032806D103E0002008BD074A00E0074A91
:10032000521C00230093CB88897807F01BF801202A
:1003300008BD000084050020B94500209704002076
:100340002DE9F041EFF3108072B6354D00212C6994
:1003500080F310882961600507D501F0ABF907F03B
:10036000ABF83048006800B18047200505D501F0A2
:1003700039FA2D48006800B18047E00405D501F046
:100380003DFA2A48006800B18047A00503D52848F7
:10039000006800B18047274E600403D5316809B179
:1003A00002208847DFF89080A00426D5316821B369
:1003B000012021E0EFF3108072B620490B2351F8A1
:1003C0002210521CB2FBF3F603FB162280F31088B6
:1003D0000F0C8EB2AA60380604D558F8261009B161
:1003E00008208847380408D558F8261029B1380560
:1003F00001D5022000E00420884720040DD5EFF34A
:10040000108072B6D5E902218A4201D1012100E0B3
:10041000002180F310880029CCD0BDE8F0810000D5
:100420009C040020E4880108E8880108EC880108A1
:10043000F0880108F4880108F8880108FC460020CB
:100440000A4810B541680A4A114041604168094AAA
:1004500011434160C16941F40001C161142001F000
:100460005FFA05494FF40040086010BD00100240DB
:10047000FFFF3F7F000080801408014070B500F04E
:1004800005F900281CD00F4802220F4D027042705F
:100490000E4C03202A632870A068022803D9A4F117
:1004A0001F008260A2600A480649007840F0800080
:1004B00001F0AEF9A068296B401AA06001202073FA
:1004C00070BD0000FA450020B00500208B4D0020D3
:1004D000C6880108114810B50178022908D00329FF
:1004E00010D0042912D0052901D10021017010BDBE
:1004F0000B48C07B282801D0A828F8D1BDE81040BF
:1005000000F068BABDE8104000F040BD0548007832
:1005100040F0800000F052FDF4E70000B00500203C
:100520006C4D0020C6880108204910B50A786AB3CE
:10053000012A0ED01E48052A00781BD0072A2BD08E
:1005400000F03CFD1B4902200873BDE8104000F09C
:100550001DBD18481F38C07B2A2803D02F2805D07E
:10056000AA2822D1BDE8104000F008BBBDE8104029
:1005700000F09ABA012181400F480068014201D081
:10058000012000E0002040F23F4200E009E0BDE829
:1005900010400AA101F07EBA00200870086B1F28E5
:1005A00003D1BDE8104000F0D5B810BDB005002063
:1005B000C78801088B4D0020740500202E2E5C2E6C
:1005C0002E5C2E2E5C736F757263655C7573625C56
:1005D0006D73635C757362645F6D73632E6300009B
:1005E000104810B54168C16009B1012010BD0E4925
:1005F00001F11F048A687AB1097B090604D50B480A
:10060000007840F0800005E0A168006B814203D0D3
:100610000748007800F0D2FC0120207300F0B6FCFF
:10062000002010BDB00500206C4D0020C6880108D8
:10063000C78801081048007900F08F02100605D520
:1006400002F00F004FF48031814001E00121914020
:100650000A48007840F0800090420CD1084A1268A5
:100660000A4208D00749084A0968914203D10D227D
:10067000044901F0CDB8704784050020C688010800
:10068000740500208B4D00205553425370B50A4825
:10069000022400F11F05816831B1007B000608D4F7
:1006A0000648007800F08AFC2C7300F06FFC0020F4
:1006B00070BD012070BD00006C4D0020C78801088E
:1006C00010B50E480E4C8068216B884202D820631A
:1006D000032000E0042020700A480B49226B0078B8
:1006E00040F0800001F094F80448226B1F308168CC
:1006F000891A81600021017310BD00006C4D00203B
:10070000B0050020C6880108FA450020064810B54B
:10071000028807480549007800F0B0FC05490863E5
:10072000BDE81040FFF700BFCC880108FA45002063
:10073000C7880108B005002010B50446400702D55F
:100740000020FFF7E3FF200703D5BDE81040FFF7C7
:10075000C1BE10BD2DE9F047754E764C316B1F2997
:1007600002D20A46002005E01F220020724B1B5CCB
:100770002354401C9042F9D3714FDFF8C0A14FF0D1
:10078000010838781F2940F080007CD121686D4A2B
:10079000914278D1674D61681F356960A168A96091
:1007A000617B19B9A17B09B1102902D985F80C80A8
:1007B0008CE0E17B4FF002092A293ED022DC1A2985
:1007C00050D00FDC0429F1D006DCE9B30329EDD1C8
:1007D000BDE8F04700F060BB1229E7D1BDE8F04763
:1007E00000F0BCB8232945D007DC1B2936D01E29D0
:1007F000DCD1BDE8F04700F0DFB825293ED028293C
:10080000D4D149E09E2943D00FDC5529CED004DC59
:100810002F2956D03529C9D103E05A2926D091294C
:10082000C4D1BDE8F04700F0F9BBA1292AD0A32923
:1008300060D0A82930D0AA29B8D100F079FA0028D0
:1008400006D0207B000600E004E04FD486F800804C
:10085000BDE8F087BDE8F04700F0E8BBBDE8F04731
:1008600000F0C2BBBDE8F04700F03ABABDE8F0477F
:1008700000F00ABABDE8F04700F0D8BABDE8F0478A
:1008800000F0ACBA00E038E0BDE8F047FFF7F6BD95
:10089000BDE8F04700F054BB00F04AFA0028D7D07A
:1008A000207B000605D586F80090BDE8F04700F0F3
:1008B00091B89AF8000000BF00F080FB85F80C901A
:1008C00004E0207C800705D400202873BDE8F047B1
:1008D00000F05CBB00F02CFA0028B9D0207B0006A9
:1008E00004D486F80080C6F82080B1E7387840F05C
:1008F0008000E1E700F062FB58E700F05FFB38782A
:10090000114C00F00F014FF48030884021685546AB
:10091000084320609AF8000000F050FB297808FA9C
:1009200001F02168084320600620307090E7000045
:10093000B00500206C4D0020FA450020C788010852
:10094000C68801085553424378050020024900201B
:1009500008700120704700003845002010B5FFF7EF
:1009600095FE002820D0114800218022017042709D
:1009700002228270C2702023037141718171C171A2
:100980000B490A680821147814B14454521C00E041
:100990004354491CC9B22429F5D3064924200863CD
:1009A000BDE81040FFF78CBE10BD0000FA450020E6
:1009B00054040020B00500200548C07CC10704484D
:1009C00000F11F0000D00121017300F0DFBA000028
:1009D0006C4D00202DE9F0412E4C2F4F0026A169CF
:1009E000606ADFF8B88088420AD33878002540F082
:1009F000800000F0E3FA88F80C6000F0C7FA08E025
:100A000028492748E56A097830F81100A84200D241
:100A10000546FFF7E5FD00B90025A06A48B375B1AA
:100A2000A16AE0692A460144387840F0800000F06D
:100A3000EFFEA06A2844A062E06A401BE062D4E9AD
:100A40000410A26A4143914203D1A662616A08443C
:100A50006062D8F808104046491BC8F80810002DFD
:100A600005D0E16A002902D1032121700673BDE897
:100A7000F081002DE3D0E16A20690144491EB1FBF9
:100A8000F0F26069824200D90246E169606A06F0CC
:100A9000CBFCC5E7B0050020C68801088B4D0020BF
:100AA000C88801086B0500202DE9F0412F4C002576
:100AB0002F4EA169606A884207D32E4825630078CB
:100AC00000F07CFA357300F061FAFFF789FD20B180
:100AD000206B08B3A06A10B10FE0256320E0E16A43
:100AE00020690144491EB1FBF0F26069824200D9DD
:100AF0000246E169606A06F097FC00201E4BA26A7C
:100B0000216B0BE0D4F81CC017181CF8077013F801
:100B100000C0674501D0256202E0401C8842F1D345
:100B2000A16A206B0B18A362E16A0A1AE262D4E997
:100B300004714F439F4203D1A562636A1944616205
:100B4000B168091AB16000280DD012B120780528CB
:100B500009D1206A28B100203073BDE8F04100F0CF
:100B600015BA0120F8E7BDE8F0810000B0050020CB
:100B70008B4D0020C7880108FA4500202DE9F0417F
:100B8000344C0025344FA169606A884207D333484A
:100B90002563007800F012FA3D7300F0F7F9FFF7D3
:100BA0001FFD00B92563A26A216B23695018984282
:100BB00006D9BDE8F041FE2229A1002000F06ABF5D
:100BC0000020304EE36906E016F800C002EB000E8C
:100BD000401C03F80EC08842F6D3216BA06A08447B
:100BE000A062E26A521AE26209B392B988B121693D
:100BF0000844401EB0FBF1F66069864200D9064603
:100C00003246E169606A06F029FCA562606A3044F8
:100C10000CE0D4E904125143814208D1E169606AD1
:100C200006F01CFCA5626169606A08446062B968EC
:100C3000206B091AB960002809D0E06A10B1207849
:100C4000052804D13D73BDE8F04100F09FB9BDE82F
:100C5000F0810000B00500208B4D0020C7880108FE
:100C60002E2E5C2E2E5C2E2E5C736F757263655C6F
:100C70007573625C6D73635C757362645F6D7363DF
:100C80002E630000FA45002010B5FFF7FFFC002896
:100C90001FD0FFF7A5FC00281BD00E48002106221C
:100CA000017042700C4A8170137ADB01C3700171CC
:100CB00041718171C1710949082010638A68082A4D
:100CC00003D9A1F11F0290608860BDE81040FFF7D2
:100CD000F7BC10BDFA450020B00500208B4D002068
:100CE00010B5FFF7D3FC00281BD0FFF779FC0028D4
:100CF00017D00C480321002201700B4942700B7A77
:100D0000DB018370C2700420086308498A68042AE2
:100D100003D9A1F11F0290608860BDE81040FFF781
:100D2000CFBC10BDFA450020B00500208B4D00203F
:100D300070B5264C264DB4F81100E17C40BA000491
:100D400040EA0120217D08430021C5E90901E17B3A
:100D50002F290AD004DC28290BD02A2919D104E034
:100D6000A8290DD0AA2914D106E0FFF739FC0028E4
:100D700029D0E08A40BA0CE0FFF732FC002822D0EC
:100D8000B4F81500E17D40BA000440EA0120217E5C
:100D9000084329690D4E4843E862A16801251F36C2
:100DA00069B1814210D0207B000604D50948007843
:100DB00040F0800001E00848007800F0FFF835734B
:100DC00000F0E4F8002070BD012070BD6C4D0020E3
:100DD000B0050020C6880108C788010810B5FFF7D4
:100DE00055FC00281CD0FFF7FBFB002818D00D4A4B
:100DF0000D489169491E0B0E03700B0C43700B0AD2
:100E00008370C17011690B0E03710B0C43710B0AD7
:100E10008371C17108201063BDE81040FFF750BC1A
:100E200010BD0000B0050020FA45002010B5FFF706
:100E30002DFC002829D0FFF7D3FB002825D013482C
:100E40000021134A0170417081700821C1709169BD
:100E50000B0E03710B0C43710B0A8371C1710221DC
:100E6000017211690B0C43720B0A8372C17209493A
:100E70000C2010638A680C2A03D9A1F11F0290602C
:100E80008860BDE81040FFF71BBC10BDFA4500208C
:100E9000B00500208B4D002010B5FFF7F7FB0028B0
:100EA00035D01B4870211B4A017000214170D46865
:100EB000536833EA040406D006248470282404739B
:100EC0004173D36008E0DBB1134B1B7BE3B1052317
:100ED0008370202303734173C1700171417181716B
:100EE0000A23C371017241728172C1728173C1732D
:100EF0000174417412201063BDE81040FFF7E0BB9D
:100F0000022383703A23E5E781700173E3E710BDA4
:100F1000FA450020B00500208B4D00200449002038
:100F200008600449086004490720087001207047E0
:100F3000780500208B4D0020B0050020FFF7EEBFA4
:100F400010B5FFF7A3FB002817D00C482022002182
:100F5000027041700A4CC177032022632070094857
:100F60000649007840F0800000F052FC0648226BF1
:100F70008168891A81600121017310BDFA45002042
:100F8000B0050020C68801088B4D0020084910B527
:100F90000648086007480D22007840F0800000F005
:100FA00037FC05490520087010BD00005553425319
:100FB0008B4D0020C6880108B005002010B50446FE
:100FC00000F0ECFB200605D504F00F004FF4803153
:100FD000814001E00121A140024802681143016003
:100FE00010BD0000740500200A4810B5817C00F196
:100FF0001F0429B101202073BDE81040FFF7C6BFD0
:10100000C07C054900F00100486006F025FA002088
:10101000F1E700006C4D0020B005002002490020DF
:101020000873FFF7B3BF00008B4D00200F4810B5C9
:10103000816800F11F0469B1007B000604D50C48EB
:10104000007840F0800001E00A480078FFF7B6FF22
:10105000012004E0FFF7C4FA002805D00020207327
:10106000BDE81040FFF792BF10BD00006C4D00209E
:10107000C6880108C78801087047000070B5124B88
:10108000054600F00F005B68104C03EB00139868F6
:101090009B8904EB4000C3F30904944200D9144631
:1010A0000022631C05E000BF30F8046B21F8026BDE
:1010B000521CB2EB530FF7D34FF440512846FCF7C4
:1010C000BFFA204670BD00009C0400200060004074
:1010D000FFF7B0BA2DE9FC414E48A0F11C0501789C
:1010E000A0F1080411F01F0102D001296DD179E0AF
:1010F000494AC77849491378464A494E1C3A062F4F
:10110000D27810D006DC012F09D0022F14D0032F83
:101110007ED141E0072F2AD00F2F79D156E04148E8
:10112000206012205CE0002B72D01AB13E48206093
:101130000A2055E03D48FAE70BB9012A68D002239E
:1011400022B1009673700021827809E000914B7003
:10115000F9E70098037813B1438818440090491CBC
:101160008A42F6D10098017879B3206037E063B302
:10117000072322B100914B700021827809E000968C
:101180007370F9E70098037813B14388184400900E
:10119000491C8A42F6D1E5E7254900918178032967
:1011A00001D0002108E002F0DDF80BE0009B1A7886
:1011B0000AB11A440092491C82788A42F6D10098FA
:1011C000017811B1206000780AE021E01948007828
:1011D00000281BD01848009020600178C1B14088D9
:1011E000019005E001A9684600F02AF800280DD01A
:1011F000A1880198814208D9104980B2A08009785D
:10120000491E084201D1012028710120BDE8FC815E
:101210000020FBE784050020B58801087044002009
:10122000FF020020688901087B8901087A8901088A
:10123000B6890108B68801087C890108B7880108C9
:1012400070B5194A194B1B4DD678194A1C78212EB6
:101250001378154A127902D0222E22D116E0A2422A
:1012600001D09A421DD1144A1378144A12780BB94E
:10127000012A16D042B1124A02601046114A128861
:1012800010442860092009E00F4AF5E7A24201D086
:101290009A4206D10D4828600D4800880860012058
:1012A00070BD002070BD00008405002000030020F8
:1012B000020300207C050020B58801086B05002092
:1012C000FF0200200603002070440020448901082A
:1012D0006689010870B51C481B4D0078A5F108050A
:1012E00010F01F040AD01848A5F11401174B4A78D2
:1012F0000079012C06D0022C24D109E012481638BE
:1013000028601DE0F2B1897888421BD2002015E0E8
:1013100000F08F04200605D504F00F064FF480304E
:10132000B04001E00120A0400AB922070AD18A6832
:10133000024207D0C9680142E8D0012018802B6022
:10134000012070BD002070BD8405002038450020BC
:1013500070B5264A0146A2F11C04107810F01F0354
:101360001046408804D0012B28D0022B26D110E053
:10137000012823D129B100F049FAE08840F00200A9
:1013800005E0002000F042FAE08820F00200E08052
:1013900029E0127902F08F06320605D506F00F0219
:1013A0004FF48035954001E00125B54062782AB1BF
:1013B000320703D0A2682A4200D008B1002070BDD5
:1013C00029B1304600F0EAF9E06828430AE02069D4
:1013D000284208D13046FEF7BDFA3046FFF778FEC6
:1013E000E068A843E060012070BD00008405002093
:1013F0002DE9F84F5D4F00200090387810F01F0F56
:1014000071D1B8784FF000094FF0010B4FF4803ADA
:10141000A7F11C0600287CD0554801783046C078DA
:1014200009B901285FD008B1524C6EE0524C6CE013
:101430006078022805D0042846D0052847D0072820
:1014400061D16179B87881423CD1707020794C4982
:10145000B0700020494A098803E000BF02F80090FC
:10146000401C8842FAD301254FEA06080BFA05F022
:10147000D8F80810084202D02846FEF70EFBD8F82C
:1014800008100AFA05F0084203D045F08000FEF784
:1014900004FB6D1C102DE9D34FF00110C8E90209BF
:1014A0000120C8F81090FEF7A9FAE0794006B8F8D4
:1014B000060002D540F0010001E020F00100A8F88C
:1014C000060020E060881FE0E07800901BE00098B4
:1014D000C8B9A07800F08F05280606D505F00F01E1
:1014E0000AFA01F003E03BE013E00BFA05F0B16803
:1014F00001432046B160FEF739FA2846FEF7D0FADC
:10150000284600F02FF920780444207800288FD155
:1015100022E04D4686F801900124D8464FEA0A0998
:10152000B16808FA04F0084202D02046FEF7B5FA86
:10153000B16809FA04F0084203D044F08000FEF7D5
:10154000ACFA641C102CEBD34FF00110C6E9020575
:1015500000203561FEF752FAB8787178884202D0DF
:101560000020BDE8F88F0120FBE700008405002083
:10157000B5880108FF020020704400208B04002081
:10158000040300202DE9FC5F454E00273D463078DE
:10159000BB4600F01F00B84601287ED1A6F11C0111
:1015A0004878002876D03F48BA4602780846C07886
:1015B0000AB9012871D0894608B13B4C66E03B4C22
:1015C00064E06078022805D004280AD0052819D0E4
:1015D000072859D1617999F80100814254D0608877
:1015E00053E0A7783079E5784FF00008B8424BD146
:1015F000B078A84248D12E484FF0010A10F807B041
:10160000C55541E03079B8423ED1A07800F08F0056
:101610000190000605D5019800F00F014FF48030CD
:1016200001E00199012088400090B078A84217D1CC
:10163000D9F80810009A20461143C9F80810D9F8C3
:101640000C109143C9F80C10FEF790F90198FEF7C1
:1016500027FA019800F086F8009948EA010813E09B
:101660005D4511D1009918EA010F0DD1D9F8081084
:10167000009A9143C9F80810D9F80C109143C9F8A1
:101680000C100198FEF709FA20780444207800280D
:1016900097D15046BDE8FC9FFFE70020FAE7000025
:1016A00084050020B5880108FF0200207044002056
:1016B0008B0400204FF0E0224FF480110020C2F88C
:1016C0008011BFF34F8FBFF36F8F1F4908601F4911
:1016D000096819B14FF400514A0001E000210A469F
:1016E00011431B4A1268002A02D000BF4FF4007257
:1016F00041EA020102D04FF4807201E04FF0000293
:1017000041EA0201134A41F41C411160134B124992
:101710004FF050021860486802604FF090028260FB
:101720004FF0D0020A8048F2FF71C1600C494FF4BB
:1017300048500860A3F104014FF0800008604FF0AA
:10174000140000F0EDB80000445C0040F48801088B
:10175000F0880108405C00409C040020505C004080
:10176000005C0040FBF758BF10B5FEF76DF8BDE810
:101770001040FFF7E3BB10B5FEF700FDFEF768F879
:1017800000F0AFF910BD0000002903D1024940F07C
:1017900080000860704700004C5C004041F210017E
:1017A000FBF74EBF082202490020FFF767BC00008C
:1017B0008405002002484FF40071006902F052B91C
:1017C0004C00002000221146802000F021B80000CB
:1017D0000248034902780020FFF750BCB78801088F
:1017E000384500200448016841F0080101600168A3
:1017F00041F0040101607047405C0040024801680C
:1018000021F0080101607047405C00407047000013
:10181000F0B5154F064600F00F037868144600EB4C
:101820000310124A006802EB40020020651C04E02D
:1018300031F802CB42F804CB401CB0EB550FF7D384
:1018400078680B4900EB0310446001EB8300D0F88B
:10185000000CC0F30110012803D030213046FBF703
:10186000EFFE2046F0BD00009C0400200060004018
:10187000005000402DE9F047254D2868DFF894809E
:1018800020F01F0200F4FE41D8F810301A43C9437B
:10189000C8F810202960DFF88090000448F2800723
:1018A00025D427E010F00F0009EB8006D6F8004C95
:1018B00008D1210406D5210504D4D8F8041089895B
:1018C00089051BD064F31F4003F02AFE200406D5CF
:1018D00044EA070040F68F710840C6F8000C200665
:1018E00005D53C4348F60F700440C6F8004C286804
:1018F0000104D7D4BDE8F047FFF75CBF2106E7D568
:10190000C4F30E0161F31F4003F00AFEE0E700009C
:10191000445C00409C0400200050004000207047C0
:10192000002809DB00F01F020121914040098000DE
:1019300000F1E020C0F8001170470000EFF30884C8
:1019400000F00F010D2901D1EFF30984A18B04F1FF
:101950002005890500D52D1DC10600D4483500F0AD
:101960007FFAEFF3098000F07BFAEFF3088000F0D4
:1019700077FAEFF3148000F073FA284600F070FA5B
:10198000606900F06DFAA06900F06AFAE06900F0A1
:1019900067FA1248006800F063FA1048001F0068F8
:1019A00000F05EFA0D48001D006800F059FA0B487F
:1019B0001030006800F054FA08480830006800F061
:1019C0004FFA06480C30006800F04AFA432204A19E
:1019D000002000F05FF8FDF773FBFEE72CED00E060
:1019E0002E2E5C2E2E5C2E2E5C736F757263655CE2
:1019F0006461706C696E6B5C486172644661756CA1
:101A0000745F48616E646C65722E630010B5002AC5
:101A100006DA22F00042D21D22F00703102203E072
:101A2000D21C22F003030C2213B19C188C4201D962
:101A3000012010BD024401448360C0E90021C91A9D
:101A4000D018884202D810600246F9E700201060E2
:101A500010BD000010B5044603F05AFB002805D065
:101A60004FF6FF71DFF808C0206800DF10BD0000EE
:101A7000C14B010810B5044603F04AFB002803D00F
:101A8000DFF808C0206800DF10BD0000114B01081E
:101A9000704700002DE9F04115460E46002819D187
:101AA000EFF3108472B600231A461946184600F068
:101AB000F7F9070003D12946304600F04DFA84F3C8
:101AC0001088002F06D100BFEFF30380C00601D1BC
:101AD00005F0EEFFBDE8F0817047704700207047C9
:101AE000704770477047704710B528220D490E485F
:101AF000FAF79AFD06F09EF80C4806F095F805F006
:101B0000C7FE0B490B4A0C4B08604FF40071B0FB49
:101B1000F1F01160094901221A600860094908487A
:101B2000086010BDD08301088C120020E924010850
:101B3000E4050020C0050020C4050020C8050020E1
:101B40008C100020CC05002000B591B0FDF7BAFC48
:101B5000402801D9402000E060B181B2684604F01D
:101B6000F7FF010006D06846FDF7D4FC10B1012054
:101B700001F0BCFD05F0C4F80146402801D9402120
:101B800000E059B16846FDF7A9FC38B181B268465A
:101B900005F0A4F810B1012001F0A8FD01F0BEFD90
:101BA00011B000BD044841788078814201D0012005
:101BB00070470020704700000801002030B505463E
:101BC000EFF3108472B600F006F8A968081A84F3DF
:101BD0001088401E30BDEFF3108172B6D0E90023AB
:101BE000934201D3981A02E080681844801A81F366
:101BF00010887047EFF3108372B6C0E9022100210C
:101C0000016083F3108841607047000070B505469D
:101C1000EFF3108472B6D5E90001884201D00120AB
:101C200000E0002042220EA1FFF734FFE968286897
:101C30000E5C401C2860A96888420CD302D14FF08A
:101C4000010001E04FF000004FF0470204A1FFF750
:101C500021FF0020286084F31088304670BD00000A
:101C60002E2E5C2E2E5C2E2E5C736F757263655C5F
:101C70006461706C696E6B5C636972635F627566E8
:101C80002E63000070B50546EFF3108472B6C0688D
:101C90006A6881546868401C6860A96888420CD3EF
:101CA00002D14FF0010001E04FF000004FF0300290
:101CB00009A1FFF7EFFE00206860D5E90001884226
:101CC00001D0012000E00020352203A1FFF7E2FE51
:101CD00084F3108870BD00002E2E5C2E2E5C2E2EFC
:101CE0005C736F757263655C6461706C696E6B5C6C
:101CF000636972635F6275662E6300002DE9F041CF
:101D000017460D460646FFF766FF874200D3074693
:101D1000002404E03046FFF779FF2855641CBC42DC
:101D2000F8D33846BDE8F0812DE9F04117460D465D
:101D30000646FFF743FF874200D30746002404E02E
:101D4000295D3046FFF79EFF641CBC42F8D338463D
:101D5000BDE8F08110B508494FF4A0542246A1F126
:101D60001000FFF747FF22460449BDE81040A1F1EB
:101D70001000FFF73FBF0000601C00207030002003
:101D800000F0A6BC00F0A4BC02488079002800D076
:101D900001207047624D00200248C079002800D021
:101DA00001207047624D00200248407A002800D090
:101DB00001207047624D00200248007A002800D0C0
:101DC00001207047624D00202DE9F0418E2121480D
:101DD000FAF764FC204C214F8E2520681D4EB84236
:101DE00010D1A5888E2D01D22A4601E04FF08E0237
:101DF00001D84FF08E0518491648FAF78EFB0020DF
:101E000086F847008E211448FAF748FC2760A58021
:101E100041223546F11DE01DFAF77FFB35F8480FEA
:101E200024F8480FA878A070E878E070820009498B
:101E300009484C314C30FAF770FB95F8440084F8AF
:101E4000440095F8450084F84500BDE8F04100F0F5
:101E5000BFB80000D44C0020007F0120646C766B7A
:101E6000074991F84B20102A01D30020704701EB5D
:101E70008202D06411F84B0F401CC0B2087070474A
:101E8000007F012010B5054C4121E01DFAF706FC4A
:101E9000002024F8480FE07010BD0000007F0120F2
:101EA0002DE9F047184C81461E4617468846E01D2E
:101EB000FAF7BDFA451CB9F1000002D04146FAF725
:101EC000EDFB002007B1388006B13070E0790028C2
:101ED00018D0454502D8E11D2A4604E0A5EB0800CC
:101EE00001194246C91DB9F1000F02D0B4F84800EB
:101EF000388017B14846FAF710FB16B194F84A003B
:101F000030700120BDE8F087007F0120014890F883
:101F10008C007047007F0120054A92F84B1029B1D0
:101F200002F14C01016092F84B00704700207047AD
:101F3000007F012002488079002800D001207047EE
:101F4000007F0120034890F88D00002800D0012078
:101F500070470000007F01202DE9F04188460646C9
:101F6000FAF765FA104D441C41273946E81DFAF787
:101F700095FB412C02D83146224602E0413CA11992
:101F80003A46E81DFAF7C9FAA5F8488000F00CF9BE
:101F900008B1012003E000F009F900B1022085F842
:101FA0004A00BDE8F0810000007F0120014981F86E
:101FB0008C007047007F0120014988717047000044
:101FC000007F0120014981F88D007047007F0120CA
:101FD00070B5002211461046FCF74BFB1848174D10
:101FE0000168296041686960008928810A211548D3
:101FF00000F0FEFD144E134C60B12068B04209D1D0
:10200000A0880A2801D2A28800E00A220D490B48C4
:10201000FAF783FA0A202E60A8800146094800F0EA
:10202000E7FD28B12068B04202D1A0880A2804D276
:10203000BDE87040014802F017B870BD624D002045
:102040000C8B010800FC0108646C766B02498871F6
:10205000084602F009B80000624D00200249C8712C
:10206000084602F001B80000624D002002494872A3
:10207000084601F0F9BF0000624D002002490872D5
:10208000084601F0F1BF0000624D00202DE9F0414B
:102090000F4606464FF0FF340025DFF83C8012E083
:1020A000705D082102F0F2FA84EA006408204146DB
:1020B000002C02DA81EA440400E06400401E10F0C3
:1020C000FF00F5D16D1CBD42EADB2021204602F065
:1020D000DDFAC043BDE8F081B71DC1042DE9F04130
:1020E0000E4617462021C04302F0D0FA04460025D0
:1020F000DFF83C8012E0705D082102F0C7FA84EA44
:10210000006408204146002C02DA81EA440400E021
:102110006400401E10F0FF00F5D16D1CBD42EADBEB
:102120002021204602F0B2FAC043BDE8F081000051
:10213000B71DC10470B514460D460646B2F5806F52
:1021400007D240F2DD120AA10020FFF7A3FC022013
:1021500070BD00F00FFD08B1102070BD2A46214669
:10216000304600F0A1FE0028F7D0202070BD00000E
:102170002E2E5C2E2E5C2E2E5C736F757263655C4A
:102180006461706C696E6B5C647261672D6E2D6446
:10219000726F705C6961705F666C6173685F696EB5
:1021A00074662E6300000000002070470120704715
:1021B00010B500231A4600F0C3FA002800D0012011
:1021C00010BD10B505F07AFA012800D0002010BD2E
:1021D0002DE9F041154D144E4FF000642878012888
:1021E00006D040F2371212A10020FFF753FC09E09D
:1021F000A878022748B140F23D120DA10020FFF758
:1022000049FC2F700220BDE8F081204600F02CF838
:1022100010B12F702220F6E704F58064B442F4D3A5
:102220000120A8700020EEE700BC0008DC000020C0
:102230002E2E5C2E2E5C2E2E5C736F757263655C89
:102240006461706C696E6B5C647261672D6E2D6485
:10225000726F705C6961705F666C6173685F696EF4
:1022600074662E630000000070B5214C054620788E
:10227000012805D0FF221FA10020FFF70BFC18E06A
:102280004FF48060B5FBF0F100FB1151022611B153
:1022900040F2071208E0E17869B1D4E90212114472
:1022A000A94208D04FF4877212A10020FFF7F2FB79
:1022B0002670022070BD1D4A1D49954204D38D42EF
:1022C00002D22670212070BD0121E170C4E90250C4
:1022D000284601F099F9262803D00028F3D026706B
:1022E00070BD284600F046FC0028EAD170BD000011
:1022F000DC0000202E2E5C2E2E5C2E2E5C736F7563
:102300007263655C6461706C696E6B5C647261675A
:102310002D6E2D64726F705C6961705F666C6173A5
:10232000685F696E74662E630000000000C00008DC
:1023300000FC01084FF480607047000010B52828A9
:1023400004D2064951F82000002805D1F72204A143
:102350000020FFF79FFB0AA010BD0000CC820108FF
:102360002E2E5C2E2E5C2E2E5C736F757263655C58
:102370006461706C696E6B5C6572726F722E630063
:10238000000000000121282801D20249095C08460A
:1023900070470000010000202DE9F04789460446FF
:1023A000064600E0641C2078402802D00028F9D1BD
:1023B00063E06078622847D012DC522853D008DCF2
:1023C000422841D0442848D0482840D04D2817D131
:1023D00018E054283ED0552817D0562810D13FE099
:1023E000722840D006DC642837D068282FD06D28AA
:1023F00006D107E074282DD0752806D076282FD076
:102400001FA004E000F0A2FF01E000F0A7FF80465B
:102410002046FAF70CF805464046FAF708F8074652
:10242000E019411906EB0902891E914224D2AA1E25
:10243000A11CFAF7B7F83A4641462046FAF76DF87C
:1024400020780028AFD118E000F042FFDFE700F06D
:1024500079FFDCE700F07EFFD9E700F06FFFD6E7F9
:1024600000F084FFD3E7084890F82A0010B106482E
:102470002A30CCE705A0CAE72C44A01BBDE8F087B2
:102480004552524F52000000348201086874747043
:102490003A2F2F61697233322E636E002DE9F043BB
:1024A000A3B0884681461E461746802102A82A9D71
:1024B000FAF716F9002002AC03E02154401C7F28F3
:1024C00002D2295C0029F8D180212046FFF764FF61
:1024D000CDE9004033463A464146484605F02EF8DD
:1024E00023B0BDE8F08370472DE9F0411E46154644
:1024F0000C46074605F04CFC2C4890F820100329A8
:102500000FD0022C0FD004B3012C0AD10168A942CC
:1025100007D190F82210A9B300214A1E0160826001
:102520008161BDE8F0810068A842FAD1304605F02B
:1025300095F90446304605F093F90646384603F00F
:10254000C3F803462246314617E0384603F0BCF88C
:102550000328E6D0304605F07FF98007E1D43846FD
:1025600003F0B2F80746304605F078F904463046E5
:1025700005F076F901463B4622462846BDE8F04183
:1025800004F088B928220A490848FAF74DF803F000
:10259000ADFE08488178012903D14178022900D194
:1025A0008170BDE8F04103F0A9BE00008C1200204C
:1025B000D0830108080100202DE9F0411D4C05469B
:1025C000174694F822008846560260B931464046C4
:1025D00003F036F8032802D0294604F005F994F8F0
:1025E000220000280FD06068A8420CD8E068A842FA
:1025F0000BD008D92069401C00D125612069A84270
:1026000000D205462561BDE8F081E06932461044FC
:10261000E061E819E06094F8230020B1BDE8F041E2
:10262000002004F087B941462846BDE8F04104F097
:1026300077B800008C120020F0B51BA185B00968A6
:1026400004910278002104AB5C5C944229D0491CBF
:102650000329F9D315A10022D1E90243D1E900757C
:102660006E46815CCDE90243CDE90075A1F1610CB4
:10267000BCF1190F15D9202901D2052911D14FF02C
:10268000000C00BF16F80CE08E450AD00CF1010CCE
:10269000BCF1100FF6D3521C0B2AE2D3012005B077
:1026A000F0BD0020FBE70000E5002000222A2B2CD3
:1026B0002E2F3A3B3C3D3E3F5B5C5D7C034800690E
:1026C00008B1012070470020FCE7000034820108B7
:1026D00070B50D4C0020257875B100212170A178CE
:1026E00009B100F097FB022D05D06178032902D0D3
:1026F000002800D1252070BD40F26B1203A10020FC
:10270000FFF7C8F9022070BDAC0000202E2E5C2E11
:102710002E5C2E2E5C736F757263655C6461706CE9
:10272000696E6B5C647261672D6E2D64726F705C94
:10273000666C6173685F6465636F6465722E6300C5
:1027400070B51C460646302901D3012000E0002068
:10275000472212A1FFF79EF9316A706A1C4D0CB92D
:1027600000222A711B4A90420AD11B48814201D1A2
:10277000022070BD1848FC3881420CD1012070BD88
:10278000304604F057FF18B11CB90120287100E051
:102790000CB1032070BD002070BD00002E2E5C2EF9
:1027A0002E5C2E2E5C736F757263655C6461706C59
:1027B000696E6B5C647261672D6E2D64726F705C04
:1027C000666C6173685F6465636F6465722E630035
:1027D000AC000020089996978F9E939B2DE9F05F9F
:1027E0004FF00004DDF828B05FEA030A90468946FE
:1027F0000746264611D05FEA0B000ED00020CAF82B
:1028000000000546CBF80000FFF7CEFC88B1284851
:10281000022F07D0032F05D030E0712241E005469A
:10282000244827E0B8F1000FF9D08145F7D01B24E8
:1028300025E0FFF7BBFC08B3012F02D0032F09D01E
:102840001CE04FF00060B8F1000FE8D08145E6D001
:102850001A2414E01848006980B10C3003E0816844
:10286000012909D0143001680029F8D141680029F4
:10287000F5D11248066802E00568FAE71C24FFF764
:102880008BFA08B9012F03D024B12046BDE8F09F90
:102890001C24FAE726B1CAF80050CBF80060F4E730
:1028A000B82207A10020FFF7F5F80220EEE70000AC
:1028B00000C00008CC83010834820108908301081D
:1028C0002E2E5C2E2E5C2E2E5C736F757263655CF3
:1028D0006461706C696E6B5C647261672D6E2D64EF
:1028E000726F705C666C6173685F6465636F64656A
:1028F000722E6300144910B54B78012B04D0022BC3
:1029000004D0032B1ED103E010490FE010490DE065
:102910000979B9B10F490969A1B10C310CE08342C1
:1029200009D84B68834206D3496859B1104488429C
:1029300008D3012010BD14310B68002BEFD14C6877
:10294000002CECD1002010BDAC00002000BC000821
:1029500000FC01083482010810B50C4C207830B11D
:10296000DA220BA10020FFF795F8022010BDFF220C
:1029700030211448F9F78AFE012020700020607091
:10298000A060E0602061A070E07010BDAC0000208D
:102990002E2E5C2E2E5C2E2E5C736F757263655C22
:1029A0006461706C696E6B5C647261672D6E2D641E
:1029B000726F705C666C6173685F6465636F646599
:1029C000722E6300340800202DE9F04116460F46B0
:1029D00005460024FFF7EAFB50B1032D08D1064855
:1029E000006928B131463846FFF778F800B11D2458
:1029F0002046BDE8F0810000348201082DE9FE4F39
:102A000005464D48894617460178012907D0EF222F
:102A10004AA10020FFF73EF80220BDE8FE8FC178F2
:102A20004FF0010A19B9C560056180F803A080461E
:102A30008078032600286AD1D8F8101040468D42CD
:102A400001D1012200E000223944C8F810104AB335
:102A50008168C1F13004BC4200D93C46444A501858
:102A600022464946F9F759FDD8F808003F1B204493
:102A7000A1442544C8F80800302822D3444602D196
:102A80004FF0010001E04FF0000040F211122BA1C5
:102A9000FFF700F8D4E9021201233548FFF750FE92
:102AA000607001E088F8016001A8009002AB01228B
:102AB000444698F80100D8F80C10FFF78FFE10BBC1
:102AC00003E098F80200B8B92AE0FFF76DF928B1E1
:102AD00027496078A268FFF777FFA0B9A0784FF484
:102AE0009A7280F0010015A1FEF7D4FF019800F062
:102AF00027F940B984F802A044461D49D4E90220D0
:102B000000F086F808B1267087E7A07840B13A4611
:102B10004946284600F07CF810B188F800607CE750
:102B20003A4649462846FFF7E5FE0028ECD0022148
:102B300088F80010132070E7AC0000202E2E5C2EC9
:102B40002E5C2E2E5C736F757263655C6461706CB5
:102B5000696E6B5C647261672D6E2D64726F705C60
:102B6000666C6173685F6465636F6465722E630091
:102B70003408002010B5EFF3108472B6FAF77EFD2A
:102B800084F3108810BD0000FEB5184D07466A7822
:102B90006C68BA4226D0002672B194F838008007DB
:102BA00000D5F7B90096019602966168002304F1FA
:102BB000180002F025FE38B19FB194F83800800764
:102BC00004D5687810B10CE00C20FEBDCDE900768C
:102BD00002962168002304F11800EA6802F010FE52
:102BE00010B16F700020FEBD0B20FEBD70000020F4
:102BF00001444FF40032A0F10060491E904205D21A
:102C0000A1F10061914201D201207047002070477C
:102C10002DE9F0473B4D06460024687817468A4662
:102C2000012807D07B2238A10020FEF733FF0220C5
:102C3000BDE8F087E8784FF0020858B9304602F056
:102C4000DFFB040003D000BF85F8018058E00120BD
:102C5000E8706E61A868B6FBF0F100FB1161721AB2
:102C60006969B1FBF0F300FB1310081A824204D02B
:102C7000304600F023F90400E6D12869B6FBF0F1F4
:102C800000FB1161721A6969B1FBF0F300FB1310CC
:102C9000081A824204D0304602F0B2FB0400D3D1BD
:102CA000D5E901010844B04204D8304600F006F9E5
:102CB0000400C9D11FB3D5E903010844B04204D8C8
:102CC000304602F09DFB0400BED16868A968301A46
:102CD000091A8F4200D23946894618494A460844A3
:102CE0005146F9F71AFCB9F1000F06D00020A87080
:102CF0004E44CA44A7EB0907D2E70120F7E76E610B
:102D0000204695E7C00000202E2E5C2E2E5C2E2E35
:102D10005C736F757263655C6461706C696E6B5C2B
:102D2000647261672D6E2D64726F705C666C617386
:102D3000685F6D616E616765722E630064080020D4
:102D40002DE9F0411F4C0546607808B1472225E087
:102D5000002615B3686800B3A868F0B1E868E0B170
:102D60002869D0B16869C0B1A869B0B1E869A0B1FB
:102D70000127FF22B9021448F9F788FCA770E67012
:102D80006660A660E6602661C4E90565286880473C
:102D9000050008D1207840B111E04D220BA10020A0
:102DA000FEF778FE0220BDE8F081A0690069804747
:102DB000050004D0A069406880472846F3E76770A3
:102DC000FBE70000C0000020640800202E2E5C2ECF
:102DD0002E5C2E2E5C736F757263655C6461706C23
:102DE000696E6B5C647261672D6E2D64726F705CCE
:102DF000666C6173685F6D616E616765722E6300FA
:102E000010B50446FFF7DEF80148047010BD00005D
:102E1000C000002070B5154C0025607810B1012865
:102E200007D00AE0CC2212A10020FEF733FE0220D8
:102E300070BD002000F042F80546A0694068804758
:102E40000646FF224FF480611648F9F71FFC012067
:102E5000A0700021E1706160A160E16021616161A9
:102E600061700EB1304670BD284670BDC0000020B4
:102E70002E2E5C2E2E5C2E2E5C736F757263655C3D
:102E80006461706C696E6B5C647261672D6E2D6439
:102E9000726F705C666C6173685F6D616E616765AF
:102EA000722E63006408002010B5EFF3108472B630
:102EB000FBF728FC84F3108810BD000070B50E4CA1
:102EC00006460025A07840B9A0690C498368D4E97A
:102ED0000102984705460120A070FF220748A1681B
:102EE000F9F7D4FBA068B6FBF0F100FB1160301AD3
:102EF0006060284670BD0000C0000020640800200B
:102F00000748006948B106480069D0F89C0120B123
:102F100003480069D0F89C0170470148001DFBE799
:102F2000348201080748006948B106480069B0F8D2
:102F3000A00120B103480069B0F8A0017047014822
:102F40004088FBE734820108002203461146104600
:102F5000184700000E4910B509690E4A0C3109E006
:102F6000834206D84B68834203D30868D06008695F
:102F700010BD14310B68002BF2D14C68002CEFD13E
:102F800090680028F4D00168D160006910BD00008D
:102F90003482010870000020002070470248006859
:102FA00040F30000401C7047080C01402DE9F0433D
:102FB000594885B0816941F004018161816901F05E
:102FC00004010491816941F008018161816901F086
:102FD00008010491816941F010018161816901F06A
:102FE00010010491816941F020018161816901F042
:102FF00020010491816941F001018161816901F041
:103000000101049145494A6822F0E0624A60816901
:1030100041F00401816180694FF4004600F0040032
:1030200004903F4806600124DFF8F490CDE9006485
:103030000325A9F11409694648460395FAF770FC7F
:10304000DFF8E080012204214046FAF747FD042022
:10305000CDE90004694603954046FAF761FC012278
:10306000D70239464046FAF739FDCDE90074694682
:1030700040460395FAF754FC012297023946404630
:10308000FAF72CFDCDE90074694640460395FAF73E
:1030900047FC012211464846FAF720FD0094694694
:1030A000484603950194FAF73BFC0122114640463D
:1030B000FAF714FD1120CDE900406946404602941C
:1030C000FAF72EFC002231464046FAF707FDCDE91B
:1030D0000064694640460395FAF722FC11494FF017
:1030E000A53034310860081F016841F0010101601A
:1030F0008015009002200190039569464846FAF732
:103100000FFC00F057FD08480490401E0490FCD1CD
:1031100005B0BDE8F083000000100240000001404F
:1031200014080140000C014040420F0070470000AD
:1031300008B1012200E000224FF480610148FAF753
:10314000CDBC0000000C014008B1012200E00022CB
:1031500040210148FAF7C2BC000C014008B101222D
:1031600000E0002201210148FAF7B8BC0008014044
:1031700010B50E4CE07978B9FFF70EFF48B10C4856
:103180000068C069804700280FD103F083FA01204E
:103190000AE0E079002808D0FFF7FEFE002804D1FD
:1031A000022003F077FA0020E07110BD4C000020EF
:1031B000908301082DE9F04385B01E460D4B17465C
:1031C00088468146DDE90C510DCB02AC84E80D0048
:1031D000A01C04F08CF90020CDE900548DF81200F9
:1031E00033463A464146484602F0D0FA05B0BDE8BB
:1031F000F083000098840108092800D92730303076
:10320000C0B270471CB501AA69460A48FAF7CFF95F
:10321000002807D00198402805DD312206A10020B2
:10322000FEF738FC1CBD40220020009904F044F851
:103230001CBD0000984D00202E2E5C2E2E5C2E2EE4
:103240005C736F757263655C7573625C6869645CFE
:10325000757362645F757365725F6869642E63007D
:1032600070B5174C00204BF6FC356060A0604FF045
:103270000066E06029463046FFF7BAFC20B12946D7
:103280003046FEF703FF60600E4D0F4E2946304674
:10329000FFF7AEFC20B129463046FEF7F7FEA060EE
:1032A0000A4E4FF4806529463046FFF7A1FC0028FE
:1032B00004D029463046FEF7E9FEE06070BD00000C
:1032C0002C000020FC3B010000C0000800FC0108AD
:1032D000004870473C00002010B50C210948FFF75A
:1032E00087FC00280AD04FF00060074A016A91422B
:1032F00003D1406A0549884201D0002010BD012059
:1033000010BD000020000008939D939B089996979C
:1033100010B5FFF7E1FF002802D04FF00060806A8F
:1033200010BD000001484068704700002C000020DC
:1033300001488068704700002C000020004870475A
:10334000C0060020004870477E06002000487047F5
:1033500071060020004870479F0600200048704713
:103360004006002000487047C9060020004870470A
:103370004600002070B5FFF773FF204801F00AF9FE
:1033800001F0B6FF1D4831212030F9F7A9F91B489B
:103390001B492030F9F7B5F819491848491D203064
:1033A000F9F7AFF815495E31A1F13E00F9F7A9F838
:1033B0001249A031A1F18000F9F7A3F80F480024C9
:1033C0002030F9F734F8C2B2022000EB42010B487A
:1033D000A930A0F189050170032141700221002369
:1033E00008E02E5D4654491CC9B24354491C641C74
:1033F000C9B2E4B29442F4D370BD000020060020AC
:103400003C00002010B5124C207830B1622211A18E
:103410000020FEF73FFB022010BD0022114610469F
:10342000FBF727F908B11E2010BD00206070A070C6
:10343000E070A060E060207120616061A0614FF4E5
:1034400080611248F9F72AF901202070002010BD90
:10345000DC0000202E2E5C2E2E5C2E2E5C736F75F1
:103460007263655C6461706C696E6B5C64726167E9
:103470002D6E2D64726F705C6961705F666C617334
:10348000685F696E74662E6300000000640C0020A3
:1034900070B50E4D2868002816D10024FFF742FDB4
:1034A0000B4A08E029B10988814202D152F8240070
:1034B00009E0641CE4B252F824104B1CF2D12868D5
:1034C000002801D10348286070BD0000DC04002002
:1034D000E0040020188B010810B5002305E0DC0093
:1034E00021FA04F4C4545B1CDBB29342F7D310BD41
:1034F0002DE9F047DFF8CC808A46044698F80010A2
:103500002F4E17464FF00060012908D040F2791283
:103510002DA10020FEF7BEFA0220BDE8F08781460B
:103520004C4501D3B44201D32320F6E7FEF73EFE1B
:10353000A8B3351B281FB84201D93A4600E02A1F1C
:103540005146D8F81800FEF7C9FD2D49C8F81800F3
:103550008C4209D22B48A4F1006420443A465146DB
:10356000F8F7DBFF0020D8E7E119B14225D10AEBDB
:103570000501454611F8023C31F8042DC97863F382
:103580001F4242EA0161884201D02720C5E7524626
:1035900039462046FFF788FC10B12020BDE70CE03B
:1035A0004FF4806217494846FEF7C4FD0446FFF712
:1035B00057FE012068702046AFE72620ADE70000E7
:1035C00000BC0008DC0000202E2E5C2E2E5C2E2E6F
:1035D0005C736F757263655C6461706C696E6B5C63
:1035E000647261672D6E2D64726F705C6961705FCB
:1035F000666C6173685F696E74662E63000000001C
:1036000000040008640C002070B5134904461148FA
:1036100009784FF00065012907D040F2BB120FA1D5
:103620000020FEF737FA022070BDAC4201D384427D
:1036300001D3232070BDFEF7B9FD48B1284684426E
:1036400006D1BDE870404FF480621249FEF772BDAA
:10365000262070BD00BC0008DC0000202E2E5C2E51
:103660002E5C2E2E5C736F757263655C6461706C8A
:10367000696E6B5C647261672D6E2D64726F705C35
:103680006961705F666C6173685F696E74662E63F2
:103690000000000000C000080A460146074810B5B7
:1036A00000EB820050F8040C002805D001F006FB66
:1036B000BDE8104001F0F2BA10BD0000C44C00207B
:1036C00008490748086001F02BFD00F0A9F9002225
:1036D0001146054800F0EEF900F0A8F9FEE70000F9
:1036E00000C0000808ED00E03D3701080249012252
:1036F0004A700871704700004C0000200249012206
:103700000A70C870704700004C0000200249012276
:103710008A704871704700004C00002002484FF446
:103720000061006900F09EB94C00002002480421AD
:10373000006900F097B900004C0000204FF0000A2B
:10374000D046D1461626FEF73FFB00F0ADF9914D6D
:103750002861FFF72BFC5046FFF7F6FC4046FFF7C9
:10376000E7FC4846FFF7FAFCF9F7BAFE8A4C2088D6
:10377000012800D000204FF4957288A1FEF78AF945
:10378000E06E00B18047FFF783FE9148006810B1FA
:10379000C06800B18047207B800702D5012002F07D
:1037A00037FA207BC00702D00120FFF729FBFFF783
:1037B000E1FDFEF798F903F013FEFEF7A7FB0028E2
:1037C0005AD0002004F062F9002003F035FD0120FA
:1037D0002872002301460B271A467E4800F090F914
:1037E000032100F095F94FF0000B00BF4FF0FF32BE
:1037F000002140F63F2000F049F984B2A00506D52B
:10380000A87910B1012000F0FDF8FCF799FD6007E0
:1038100002D5022002F03EFFE00613D5032002F09D
:1038200039FF0020FFF782FC002003F005FD002097
:10383000FFF78AFC0020FFF77BFC0020FFF78EFCDF
:10384000FEF74EF9A00602D5032002F023FF200563
:1038500001D5FEF779F9200701D5FEF73EF9E0071B
:1038600038D05A2004F03EF9287A062832D2DFE810
:1038700000F0270E271731050120A3E785F808B0CF
:103880000020FFF753FC002003F0D6FC22E00FB12C
:103890007F1E1FD1012003F0CFFC0320287218E007
:1038A00003F0C2FC18B10120FFF740FC0BE00EB1A1
:1038B000761E0FD10120FFF739FC85F808B009E02A
:1038C00003F0B2FC10B10220287203E085F808B0C2
:1038D0000B271626A00789D5FFF74AFCFEF7FCF850
:1038E000287858B1E878012827D0022825D04FF051
:1038F000000A85F800B05046FFF726FCA87858B1BA
:103900006879012828D0022826D04FF0000985F8D0
:1039100002B04846FFF722FC687800283FF466AF03
:103920002879012827D0022825D04FF0000885F8F3
:1039300001B04046FFF7FCFB58E7BAF1010F02D097
:103940004FF0010AD7E74FF0000A0128D3D185F8DC
:1039500000B085F803B0CEE7B9F1010F02D04FF007
:103960000109D6E74FF000090128D2D185F802B04D
:1039700085F805B0CDE7B8F1010F02D04FF001088E
:10398000D7E74FF000080128D3D185F801B085F8BA
:1039900004B0CEE74C000020348201082E2E5C2EAD
:1039A0002E5C2E2E5C736F757263655C6461706C47
:1039B000696E6B5C696E746572666163655C6D618E
:1039C000696E5F696E746572666163652E6300007F
:1039D000DC040020ED660108014988717047000091
:1039E0004C000020FEF7B8BF10B5044640F20111AC
:1039F000F8F754FE00F062FE00202070BDE8104091
:103A0000FEF7AABF80B2DFF808C000DF00207047D1
:103A100029480108DFF804C000DF70471D50010885
:103A20000149002008607047B00400200020704762
:103A300089B2DFF808C000DF00207047C14B0108E1
:103A40000248DFF80CC000DF00487047D04A002071
:103A5000014B0108DFF808C000DF002070470000BC
:103A6000114B010810B50C464FEA0001EFF303803B
:103A7000C006A0B202D0FFF70FFE02E0DFF808C0D8
:103A800000DF204610BD00008948010891B280B2D5
:103A90000022DFF80CC000DFDFF808C000DF70474D
:103AA000E948010831480108DFF804C000DF704729
:103AB0001151010870B50D4D06460024286860B10B
:103AC00000231A460B213046DFF824C000DF0446ED
:103AD0002868401C2860204670BDF8F77FFB054A27
:103AE00005493046DFF814C000DFF1E7B0040020DC
:103AF00095500108284700200A200300894E01083C
:103B0000024A00215060084670470000B0040020BF
:103B100005480023054A816048F60B010448DFF898
:103B200014C000DF00207047B0040020484A002085
:103B30002950010895500108012805D0022805D018
:103B400003280BD0C72202E0BB2200E0BF2204A161
:103B50000020FDF79FFFFBF7B3FAFEE7C322F6E76D
:103B60002E2E5C2E2E5C2E2E5C736F757263655C40
:103B700072746F735C5254585F436F6E6669672E40
:103B800063000000FEE70000074801684FF0E020F6
:103B9000416100218161072101610448016841F010
:103BA0007F41016040177047F08A010820ED00E076
:103BB0007047704770B590B00EA909A8FAF7E6F8FB
:103BC0000D98B0F5005F05D0B0F5205F23D0B0F5BB
:103BD000405F22D001202549274C00250968B1FB10
:103BE000F0F02349B0FBF1F62248C4E90005761E47
:103BF000C4E903652148A5606561816941F40061FC
:103C00008161806900F4006008902046FAF78FFC1B
:103C100028B1522223E00220DDE70420DBE716482A
:103C2000FAF7A1FC08B1582219E07020CDE901058E
:103C30000395049505950695002201A90E48079560
:103C4000FAF70DFC08B1652209E0216870084863A5
:103C500000210948FAF7A4FC002804D06C2208A12E
:103C60000020FDF717FF10B070BD0000E802002033
:103C700000127A00002C0140B81B00200010024006
:103C80002E2E5C2E2E5C2E2E5C736F757263655C1F
:103C90006869635F68616C5C73746D33325C737404
:103CA0006D33326631303378625C6770696F2E63D2
:103CB000000000002DE9FF5F8846DDE90FA50446FE
:103CC00000EB08060020DDF838B0286092489146E5
:103CD000007930B120783A2840F0BA808E4900202F
:103CE00008718D488D4FC078C8B18B490020C870CD
:103CF0003A78391D0398F8F710FC38780399014495
:103D000003912968084428608348C168B7F8010016
:103D10006FF30F010843397801447F48C160B44212
:103D200018BF7D4F7ED020780A2818BF0D287AD082
:103D30003A282AD03978002900F0DF8010F0100FDF
:103D400000F00F0008BF093000F00F0273487978C7
:103D5000435C1A434254491CC9B2797090F800E0A0
:103D60000EF1050081426DD300216C4B08461EF117
:103D7000050213D013F800C0401C6144C0B2C9B2A0
:103D80008242F7D851B1042763E025216348F8F750
:103D900085FC002038707870B87055E0B87800283D
:103DA0004DD15E4B0120B870B3F8010040BAA3F8C2
:103DB0000100D97804297DD005DC69B1012962D0E0
:103DC000022962D03BE00A2902D00D2904D036E056
:103DD000988840BAF88032E0F98839B1504A1288A0
:103DE000914203D04F4A1288914248D1F9680A465D
:103DF0006FF30F021043884204D00120F8700227AD
:103E0000641C26E00020F870724647490398F8F7D2
:103E100084FB4248017803980844039028680844CA
:103E2000286001E014E00FE03C49F868B1F80110A7
:103E30006FF30F000143394800780844F860387880
:103E4000002866D000203870641CB4427FF46BAF49
:103E500000272868FF22ABEB00010398F8F716FC57
:103E60002D482968C068401ACAF80000301BA8EB2A
:103E70000000C9F8000004B03846BDE8F09F0120FA
:103E800038710027E5E70127E3E72868FF22ABEB5D
:103E900000010398F8F7FAFB2868F968081ACAF8CD
:103EA0000000301BA8EB0000C9F800001B48017996
:103EB000090300E007E0407941EA0010F86004B02F
:103EC0000220BDE8F09F2868FF22ABEB00010398B9
:103ED000F8F7DCFB2868F968081ACAF80000301BFC
:103EE000A8EB0000C9F800000C48808840BA000424
:103EF000F86004B00220BDE8F09F7978252908D247
:103F000010F0100F00F00F0008BF09300001034A45
:103F10005054012097E70000F800002064100020B2
:103F200002010020000100206810002070B5012A65
:103F300012D0022A10D0002301248C400F268D00BD
:103F4000082911D3203D4168AE40B143416041682A
:103F5000AB400B4343600FE00823EDE7046170BD05
:103F6000022AFCD1446170BD0168AE40B1430160DA
:103F70000168AB400B430360012AF1D1EEE770B555
:103F8000012A12D0022A10D0002301248C400F26CF
:103F90008D00082911D3203D4168AE40B1434160F6
:103FA0004168AB400B4343600FE00823EDE7046139
:103FB00070BD022AFCD1446170BD0168AE40B143BE
:103FC00001600168AB400B430360012AF1D1EEE7C9
:103FD00010B50F2403238A00082909D3203A416829
:103FE0009440A1434160416893400B43436010BD3E
:103FF00001689440A1430160016893401943016046
:1040000010BD10B50F2403238A00082909D3203AD4
:1040100041689440A1434160416893400B43436031
:1040200010BD01689440A1430160016893401943A9
:10403000016010BD10B50F2407238A00082909D399
:10404000203A41689440A1434160416893400B434A
:10405000436010BD01689440A14301600168934032
:104060001943016010BD00007FB50C4C0546204689
:10407000FEF780FD002810D1FF2210216846F8F7D6
:1040800005FB28680090686801902889ADF8080051
:104090006A4610212046FEF707FF7FBD00FC01089D
:1040A0002DE9F05FDFF800810446DFF8F89098F81A
:1040B000000016468B46012805D0A2223BA1002015
:1040C000FDF7E8FC3EE04FF48060B4FBF0F100FB4C
:1040D0001141022509B1AB222EE001468E4204D3E4
:1040E000B6FBF1F300FB13620AB1B22224E0B4FB89
:1040F000F0F200FB12403044884201D9B9221BE0A3
:1041000098F8020078B998F8030050B1D8F8080080
:10411000844204D3D8F80C100844A04203D8C72224
:104120000AE0C12208E098F8040070B1D8E904015F
:104130000844A04209D0CF221CA10020FDF7AAFC10
:1041400088F800500220BDE8F09F2649A7190120F9
:104150008C4207D224498F4204D900BF88F800500E
:104160002020F0E7824688F804A0C8E904463246D9
:1041700059462046FFF7BCF9262804D00028E2D093
:1041800088F80050DFE75A4631462046FEF78CFE9D
:104190000028E3D14F4503D3FFF762F888F801A068
:1041A0000020D0E700BC0008DC0000202E2E5C2E92
:1041B0002E5C2E2E5C736F757263655C6461706C2F
:1041C000696E6B5C647261672D6E2D64726F705CDA
:1041D0006961705F666C6173685F696E74662E6397
:1041E0000000000000FC010800C000084FF48060DF
:1041F0007047000070B514460E46054620444FF443
:104200008061B1EB402F07D240F263220AA1002067
:10421000FDF740FC002070BD4FF400713046F8F708
:104220003DFA35B911481249006942013046F8F7A4
:1042300074F9600270BD00002E2E5C2E2E5C2E2EB6
:104240005C736F757263655C6461706C696E6B5CE6
:10425000647261672D6E2D64726F705C7669727422
:1042600075616C5F66732E63000000002001002002
:10427000B817002010B50B464FF4007408B10020A9
:1042800010BD224602491846F8F747F9204610BDEE
:10429000F81400202DE9F04F8A46410287B0002330
:1042A000CDE902134FEA422B1D4630B1BAF1000F9F
:1042B00003D0002007B0BDE8F08F344F38780128D4
:1042C00042D0022842D0002631A0009059465046E4
:1042D000029A03F057F90446304931A0CDE90001B4
:1042E000234659465046029A01F050FA0444798810
:1042F0002DA0CDE90001234659465046029A02F00E
:1043000005FD04444EB12AA0CDE9000623465946D6
:104310005046029A01F03AFA044403A8FDF7FCFD66
:10432000060031D0039878B323A000902346594665
:104330005046029A03F026F904440DF110084FF09C
:104340000A094FF4007719E01EA6BDE720A6BBE7D7
:1043500022A204AB07CA83E80700039850F825108F
:104360006D1CEDB204A803F0C2F82346CDE9008924
:1043700059465046029A03F0E1F80444B54203D28C
:1043800004F10A00B842E3D3204693E71801002065
:104390004173736572740D0A00000000B4120020AE
:1043A00046696C65000000004C696E650000000005
:1043B000536F75726365000048657864756D70733E
:1043C0000D0A0000426F6F746C6F616465720000CB
:1043D0004170706C69636174696F6E000000000069
:1043E000000000000D0A00000B4640025102024688
:1043F000184602F0DFBC00002DE9FE4F04464002E3
:104400008A464FEA422B0027029003F063FB0546E1
:10441000FDF794FF06462846FDF7B4FF05462CB18C
:10442000BAF1000F02D00020BDE8FE8F21A0CDE937
:1044300000063B4659465046029A01F0A7F9044649
:104440001EA00090234659465046029A03F09AF85F
:104450000026044401274FF00208FDB1DFF8649004
:104460000AE04FB918A1CDE9001823465946504635
:10447000029A03F063F80444E8070AD059F82600CA
:104480000090234659465046029A03F07BF80444B4
:104490000027761C6D0801D0052EE2D30BA1CDE9D3
:1044A0000018234659465046029A03F047F8204424
:1044B000BAE700006572726F72000000747970656F
:1044C0003A200000848401082C2000000D0A00001E
:1044D000F8B5470256020D46002310B10DB1002079
:1044E000F8BD0D4800903A463146284603F04AF898
:1044F00004460AA0009023463A4631462846FDF776
:10450000CDFF044406A0009023463A463146284693
:1045100003F038F82044F8BD3097010840520000FD
:1045200022293B0D0A3C2F7363726970743E0D0A99
:104530003C2F626F64793E0D0A3C2F68746D6C3EAF
:104540000D0A00002DE9F041094D07460E462846A8
:10455000F7F76DFF044646B117B10020BDE8F081C2
:10456000024629463046F7F7D8FF2046F6E7000016
:104570005896010810B50B464FF4007408B100209E
:1045800010BD224602491846F7F7C7FF204610BD66
:10459000F812002006490B68091D0A68091D096800
:1045A0000360C0E901214FF0A531C16070470000F0
:1045B000E8F7FF1F10B5084654022146F8F76EF8D9
:1045C000204610BD70B5224D6878A978884201D088
:1045D000012000E0002040F2F9121EA1FDF75AFA76
:1045E0006878022803D0C8B101281BD01EE02648F5
:1045F0004FF4FA7490F82000002821D001280AD046
:1046000002281DD003281BD040F20B2211A100204C
:10461000FDF740FA14E044F6206411E0A87802287F
:104620000AD003E0A878022808D028B140F21B2263
:1046300008A10020FDF72EFA002401E040F6C41482
:10464000A868A04201D9012070BD002070BD000003
:10465000080100202E2E5C2E2E5C2E2E5C736F75B2
:104660007263655C6461706C696E6B5C64726167D7
:104670002D6E2D64726F705C7666735F6D616E6116
:104680006765722E630000008C12002030B503466F
:10469000202903D00020024601240CE090FAA0F06B
:1046A00030BDDD0704D08D1A6D1E04FA05F52843D0
:1046B0005B08521CD2B28A42F3D330BD10B525211B
:1046C0000648F7F7EBFF06480021C1600170417012
:1046D0008170C170C180017110BD000064100020A4
:1046E000F800002070B505460E460846F7F79FFE15
:1046F000401C3C2801D93C2003E03046F7F797FEE8
:10470000401C0446024631462846F7F706FF0020C3
:1047100085F83B00E0B270BD0146EFF3108000F079
:10472000010272B6086808B103680B60002A00D164
:1047300062B6704770B50D46002812D04FF6FF7173
:10474000084C884204D222680146104600F0D8FA8C
:1047500020684570044800F0F8F8BDE8704000F0AB
:104760008BBB70BDC4040020DC4A002070470000F1
:1047700070B51A4DE86800282ED0A88A401EA8827D
:10478000002623E0A06838B161684160606810B11C
:10479000A16881606660A66010482146183800F064
:1047A000D3FAA08AA8826078042804D10C49E08A50
:1047B00009880844A0820120607084F82000E06825
:1047C000E860E06808B10561E6602661A88A002813
:1047D00002D1EC68002CD5D170BD0000F44A002055
:1047E000CC04002070B504000FD00D4DA178012637
:1047F0002868827891420CD900F0C2FA2868467085
:104800002046BDE8704000F037BB064800F09DF838
:10481000F7E766702146BDE87040024800F094BAA0
:10482000C4040020DC4A00200321FFF783BF0000FE
:1048300001480068408B7047C404002010B504464E
:10484000008B084320836278618B062A16D0052AE4
:1048500017D1084215D001EA000262838843208301
:10486000204600F0B1FA01206070022084F8200098
:104870002146BDE81040034800F066BA31EA000264
:10488000ECD010BDDC4A0020024670B5154800EBA4
:10489000810050F8044C002C22D0208B1043208340
:1048A0006178658B062918D0052919D1284217D0BF
:1048B00005EA00016183A8432083204600F084FAC2
:1048C000208BA843208301206070022084F8200000
:1048D0002046BDE87040FFF785BF35EA0001EAD009
:1048E00070BD0000C44C002070B503460C480D4656
:1048F0000468208B42B133EA000101D0062109E0AF
:1049000098432083022070BD10EA030101D0618327
:10491000F6E7052163832846FFF70CFF012070BDF1
:10492000C4040020814202D342688A4201D8012097
:104930007047EFF3108212F0010F72B603680B603C
:10494000016000D162B600207047014640684268AD
:104950004A600B780022022B05D0012B03D0032BD9
:1049600001D04260704743680BB199604260826039
:104970007047000070B504460020154620700122E3
:104980006270A1706060A060E0602061A082E0823F
:104990002083608384F8200084F82100608C18B99B
:1049A0000448FFF7B9FEA06229462046BDE87040E2
:1049B00000F004B8084C00207047000010B5428C8D
:1049C000920803D10F4A1288C2F38D02836A03EB67
:1049D0008202530700D5121F4FF0807342E9021381
:1049E00000231C46B2F1400242F823405B1C0E2B10
:1049F000FAD3C36913624262C162806A02490160EC
:104A000010BD0000EC8A0108A52E5AE20349044AB1
:104A10000968C8821288104488827047C404002044
:104A2000CC0400200748016807488A8A0088CB8A9E
:104A3000101A1A4480B28A82010402D40421FFF7BA
:104A400079BE7047C4040020CC0400202DE9F04159
:104A5000044640680F46002620B16078022818D02E
:104A6000A08980B3A089E189884241D2208904EBE2
:104A70008000076172B6A089401CA08162B62089BF
:104A8000401C80B22081E189884200D12681BDE8A6
:104A9000F08166702046FFF758FF80F8206021897A
:104AA000054604EB8101C069086172B6A089401C0B
:104AB000A08162B62089401C80B22081E1898842B1
:104AC0000BD1268109E0FFE72046FFF73EFF0546B0
:104AD000C0690421076085F820100120687028460D
:104AE00000F072F92946BDE8F041044800F02CB905
:104AF000BDE8F0410320FFF71FB80000DC4A0020AA
:104B00000321017000214170418041608160704744
:104B10002DE9F0470546408820B1274CA968226856
:104B2000914202D0FF20BDE8F087401E0004000C37
:104B300068803ED121686878DFF880808870696875
:104B40004FF00009012739B32846FFF7FEFE06465D
:104B5000052086F82000304600F036F96F80AE6000
:104B6000B07868702168D8F804008A78807882422A
:104B700001D330460AE0114800F0E6F831460F480C
:104B800000F0E2F820684770777010E0FFF72AFE27
:104B9000216881F820900CE0D8F804108A78216808
:104BA000824206D9054800F0CFF8206847700020FF
:104BB000ECE70020B7E70000C4040020DC4A002036
:104BC00070B5184D0E4604464188286839B1A16871
:104BD000814208D16088401C6080002070BDA060C8
:104BE00080786070F6E776B162788078824203D28E
:104BF0008870A06800F0CEF8606830B1204629685F
:104C000000F0A2F808E0012070BD28686060296803
:104C1000002048602868846009213046FFF78AFD3B
:104C2000F1E70000C404002070B5194801210268B2
:104C30005170006800F0A4F8164C657813E000BFCE
:104C400004EBC50148680278C2B1012A1BD000F00C
:104C5000E7F8E0786D1C854200D1002572B6A07897
:104C6000401EA07062B6A0780028E9D165700A489D
:104C7000FFF76BFEBDE8704000F0FEB8098989B20D
:104C8000FFF7DCFDE5E78968FFF7E0FEE1E70000FC
:104C9000C4040020A04C0020DC4A00200548017814
:104CA00011B101214170704703494FF080500860F5
:104CB00070470000BC04002004ED00E0F0B40F4B8E
:104CC0009C1CDD781E4672B69A78AA4207D2521C06
:104CD00022703278541CAC4200D10024347062B689
:104CE000DC78944205D903EBC202C2E90101F0BCB1
:104CF0007047F0BC0220FEF71FBF0000A04C002050
:104D0000104A10B5D368ABB113469B8A03E08CB14F
:104D10002246A48A2344D4688B42F8D3C460D0606E
:104D20000261C46804B12061591A8182908A401AD4
:104D3000908210BD0024C460D060C91A02619182C3
:104D4000848210BDF44A002030B502780023022A84
:104D500003D0012A01D0032A00D101238C7800E07E
:104D60001046426812B19578A542F9D24A60416076
:104D70001BB102B19160886030BD0020FBE70000EC
:104D800003494A6842600022826048607047000020
:104D9000DC4A002010B5836804462BB960780128EE
:104DA0000ED1084B03E09B6818780028FBD0204602
:104DB00000F01EF82146BDE810401846FFF7C4BFBA
:104DC00010BD0000DC4A002010B5016900290ED09A
:104DD000C268CA60C36800223BB18B8A848A2344BC
:104DE0008B82C3681961C26000E08A82026110BDD3
:104DF000816839B142684A604168002901D0806801
:104E000088607047054906E04A68824202D14068DE
:104E10004860704711460029F6D17047DC4A0020EF
:104E200010B5416879B1FFF790FD0446FFF7CCFF5C
:104E300001206070032084F820002146BDE8104066
:104E40000348FFF781BF4188491C418010BD000025
:104E5000DC4A002006480068D0E90910814203D3EB
:104E600000680449884202D00120FEF765BE704701
:104E7000C4040020A52E5AE2024948600221417074
:104E800070470000C40400202DE9F04788464249DD
:104E900081461646002004463E4A098803E000BFCA
:104EA00042F82040401C8842FAD33C483022018816
:104EB0003B48FCF7ABFD3B48008880B240F0004225
:104EC000394801683948FCF7A1FD394808220188B2
:104ED00038480068FCF79AFD374FFF25374AFD70C8
:104EE0007C8400213846FFF745FD354804210170D8
:104EF000446034480170C46004618482786A203060
:104F0000F7F766F9304832490760022078702F4879
:104F1000047044700978C170FFF74EFD2D48016898
:104F200041F47F0101600068290601EA0020294957
:104F3000C0431439B0FA80F00968C0F10800C1F329
:104F40000221814200DB481C2249091F0B686FF0D7
:104F50008072824063F317020A60FEF715FE1E4955
:104F6000002808600DDB00F1E02181F8005400F01A
:104F70001F02012191404011800000F1E020C0F8A3
:104F80000011324641464846BDE8F047002300F094
:104F900081B80000C44C0020EA8A0108008B010897
:104FA0003C4B0020EC8A0108048B0108084C0020CF
:104FB0000A8B0108D80400200C4B0020853B010817
:104FC000DC4A0020F44A0020C4040020A04C002049
:104FD000088B010820ED00E0C00400200C4810B54B
:104FE0000268012151700068FFF7CAFEFFF7BEFB9F
:104FF00008480168491C0160FFF7BAFB00F02AF875
:105000000548FFF7A2FCBDE81040FFF735BF0000E0
:10501000C4040020CC040020DC4A002001480068C1
:1050200070470000CC040020074CDFF820C0208926
:1050300080B200DFDFF818C000DF61680029F9D016
:1050400000208847F6E70000B00400200D4A010860
:10505000254A010870B50D4C2068002815D0A0889D
:105060000B4E401EA0800AE0E888FEF7A2FDA8884B
:10507000A0802868206029463068FFF753FCA0888C
:10508000002802D12568002DEED170BDD00400208B
:10509000D80400202DE9F0411E46174680460C46F4
:1050A00011F0FF0F00D14C1C1548FFF735FB051E12
:1050B00024D0200AAF626884E1B242462846EE61FD
:1050C000FFF758FC104901240E48098806E000BF8C
:1050D00000EB840252F8042C1AB1641C8C42F7D9FC
:1050E000002400EB840040F8045CEC702846FFF7D5
:1050F00079FB0648006880F820402046BDE8F08132
:105100003C4B0020C44C0020EA8A0108C404002063
:1051100002480068002800D0C0787047C40400200E
:105120002DE9F0438FB014210AA8F7F7D9FA282106
:105130006846F7F7D5FAF9F77DFFF8F7EBFC01259C
:105140004FF00008CDE90A5829460AA8F8F75AFD99
:1051500020B16B224DA10020FCF79CFC4FF480395C
:10516000CDE900590224CDF80880CDE907494FF474
:10517000E01009906846F8F76DFE20B1772243A150
:105180000020FCF787FC0AA90F2081E811014FF4E9
:105190008060CDE90D0802210AA8F8F733FD20B19F
:1051A00082223AA10020FCF775FC444C206840F0B4
:1051B0000100206060684249084060602068414901
:1051C00008402060206820F480202060606820F47F
:1051D000FE0060604FF41F00A060206820F4803063
:1051E0002060206820F480202060206840F4803017
:1051F00020603120F9F7C8FA0028FAD04FF0807704
:1052000097FAA7F0304EB0FA80F046F820800122DD
:105210002E494846F7F704FB97FAA7F0B0FA80F05A
:1052200046F820503920F9F7AFFA0028FAD0606824
:1052300020F0030040F002006060606820F0F000A1
:105240006060606820F4E06040F4806060606068E6
:1052500020F46050606095FAA5F0B0FA80F006EB9B
:105260008000C0F880546120F9F78EFA0028FAD047
:1052700095FAA5F0B0FA80F046F820502120F9F711
:1052800083FA0028FAD00FB0BDE8F0832E2E5C2EF2
:105290002E5C2E2E5C736F757263655C6869635F4C
:1052A00068616C5C73746D33325C73746D33326639
:1052B00031303378625C73646B2E630000100240FF
:1052C0000000FFF8FFFFF6FE000042420000281039
:1052D0007CB5DDE906540CB103A400E003A4CDE9DC
:1052E000005400F053FA7CBD310000003000000093
:1052F0002DE9F04700242646FDF714FEDFF8F8906C
:105300000546A0464F4621213C48C9F81080F7F7D2
:10531000C5F93A4821212130F7F7C0F9374809216A
:105320004230F7F7DDF987F81480344FA7F15E0AB1
:10533000B8195AF8241002F0DAF8641C3044E4B2C8
:10534000C6B2042CF4D307F8068000262B4F34464F
:105350002137A7F16F0A00BF5AF82410B81902F0DC
:10536000C6F8641C3044E4B2C6B2042CF4D307F887
:105370000680224E4446423630464F46D9F8001049
:1053800002F0B5F8C0B23454FDF7BAFD00683861D8
:10539000194810300471280BFDF72EFF164E1536F4
:1053A0003070C5F30320FDF727FF7070FCF7AEFDEA
:1053B00001281BD0FDF782F9C0B1C5F3031000BF6F
:1053C000FDF71AFFB07005F00F00FDF715FFF07044
:1053D000094834711A303021017032214170352171
:1053E00081703821C1700471BDE8F087082040EA5F
:1053F000151000F00F00E3E72C0000207E060020CF
:105400002DE9F041374C0746A06941693846884785
:105410000646A069816938468847054636B12DB1F0
:105420004FF4806846450AD8012009E040F2351261
:105430002DA10020FCF72EFB0220BDE8F08100200A
:105440004FF49D7228A1FCF725FBB8FBF6F106FB93
:10545000118050B15FF0000040F23B1222A1FCF736
:1054600019FBB54203D3012002E00120F4E700203C
:105470004FF49E721CA1FCF70DFBB5FBF6F006FB8A
:105480001050C8B15FF0000040F23D1216A1FCF7C9
:1054900001FBB7FBF5F005FB1070381AC4E90305F2
:1054A0006060454500D34546A560A169096A29B1F8
:1054B000884705000AD101E00120E5E7207850B1D6
:1054C000A069C168E0688847050004D0A069406809
:1054D00080472846B1E7FF221048A168F7F7D6F8C1
:1054E0000020AAE7C00000202E2E5C2E2E5C2E2E5F
:1054F0005C736F757263655C6461706C696E6B5C24
:10550000647261672D6E2D64726F705C666C61737E
:10551000685F6D616E616765722E630064080020CC
:1055200010B5EFF3108172B6074C084BDA6844F8F7
:1055300022000B20521CB2FBF0F400FB142081F37C
:105540001088D86010BD0000FC4600209C0400209C
:1055500010B5094C207840B100F08AF86068C16845
:10556000064888470021217010BDC02204A10020F8
:10557000FCF790FA022010BD8000002030070020C8
:105580002E2E5C2E2E5C2E2E5C736F757263655C06
:105590006461706C696E6B5C647261672D6E2D6402
:1055A000726F705C66696C655F73747265616D2E95
:1055B0006300000070B5134C0546207808B18522C1
:1055C00002E0022D06D38B220FA10020FCF762FA25
:1055D000022070BDFEF768FAA0604FF48271174890
:1055E000F7F77EF80120207006480C3000EB05101C
:1055F00060604168114888470028EAD00321217083
:1056000070BD0000800000202E2E5C2E2E5C2E2E01
:105610005C736F757263655C6461706C696E6B5C02
:10562000647261672D6E2D64726F705C66696C6563
:105630005F73747265616D2E630000003007002097
:105640002DE9F041094D0E460746002405EB0410F4
:10565000314602683846904710B12046BDE8F081D7
:10566000641CE4B2022CF1D30320F7E78C00002085
:1056700010B5FEF719FA06498968884201D1012060
:1056800000E00020BDE81040622202A1FCF702BA4F
:10569000800000202E2E5C2E2E5C2E2E5C736F75EB
:1056A0007263655C6461706C696E6B5C6472616787
:1056B0002D6E2D64726F705C66696C655F737472B9
:1056C00065616D2E6300000010B500F10801032232
:1056D0000C4607A0F6F7CAFE002806D00322214692
:1056E00004A0F6F7C3FE08B1032010BD012010BDD1
:1056F00042494E004845580070B5154C06460D46C7
:105700002078012806D0A42212A10020FCF7C2F9BB
:10571000022070BDFFF7ACFF60682A4631468368FF
:10572000194898470546132806D0142D06D02DB1E8
:1057300003202070284670BD0220FAE72078012857
:1057400000D00020B22203A1FCF7A4F9F2E7000088
:10575000800000202E2E5C2E2E5C2E2E5C736F752A
:105760007263655C6461706C696E6B5C64726167C6
:105770002D6E2D64726F705C66696C655F737472F8
:1057800065616D2E63000000300700202DE9FC47A5
:105790008246DDE90A0600901C469046894650463E
:1057A00001F0F0FE074602250EA0CDE90005E31941
:1057B00042464946504601F0C1FE0744E3194246BD
:1057C00049465046009601F0DDFEC61906A0CDE917
:1057D0000005A31942464946504601F0AFFE304449
:1057E000BDE8FC873A2000000D0A000010B51E211C
:1057F000002000F0E3FC002800D0012010BD0000D4
:105800002DE9F04792B00F46DDE91A9804461D468F
:10581000164644216846DDF870A0F6F761FFCDE931
:105820000065CDE9029860680990A0680D90206835
:10583000CDE90E074FF080701090684600F072FCC2
:1058400000281DD0144FDFF85480002411A94046D1
:1058500000F0BCF998B11198800314D56946002076
:1058600000F000F900280BD00D49404600F0FCFC88
:10587000002805D00098BAF1010F08D050B10020DF
:1058800012B0BDE8F087641CBC42DFD3F7E77119A2
:105890008842F4D10120F3E740420F00F0ED00E030
:1058A00003005FA010B5044600F0EAFE002801D115
:1058B00004F07F4010BD10B5F7F712FEF8F7FEFEBA
:1058C000012010BD2DE9F843002000903049401E12
:1058D000042608604FF0640800272E4C486010E052
:1058E0000121002000F06AFC012000F09DF9022057
:1058F000FEF788F8002000F097F90220FEF782F802
:105900000027FFF7D8FF206810B1806800B18047FA
:10591000F8F7B1FEA0B3FFF769FF88B300210820B4
:1059200000F04CFC60B34FF0A041042000F046FCB6
:1059300030B300254FF020496946042000F0ECF810
:1059400050B1009939EA010002D06D1C4545F3DBE6
:10595000454516D0A7B901E00127F9E70E49042013
:1059600000F02CFC60B1206810B1006900B18047E4
:105970000021082000F022FC10B10120BDE8F883CE
:10598000FFE7761E76B2002EAADC0020F6E70000C4
:1059900068000020DC040020000F005010B5094C06
:1059A00000220D212046FEF7EAFA00220E212046B1
:1059B000FEF7E5FA00220C212046FEF7E0FA01206E
:1059C00010BD0000000C0140F8B50E46054662B35C
:1059D00094081749002000F0EDFA002826D005278A
:1059E000042229466846FDF777FD6946384600F0EF
:1059F000D1FA012819D10F270021384600F0CAFA40
:105A0000012812D10025641E07E03146384600F017
:105A1000C1FA012809D16D1C361DA542F5D30E200F
:105A2000314600F0B7FA012800D00020F8BD000090
:105A30005200002338B50C4605460949002000F005
:105A4000B9FA00280BD06946284600F035F800283E
:105A500005D0A807C10E0098C8402070012038BDAD
:105A6000500000232DE9F0410E4601460024642534
:105A7000104800F0F9FB002810D00E4F3F1F3146B0
:105A8000384600F0A3F8002808D03068C00302D4DC
:105A9000641CAC42F3DBAC4202D10020BDE8F081D3
:105AA00004483146001D00F091F80028F6D001208E
:105AB000F4E70000F4ED00E01CB50C4601460422BA
:105AC00001A8FDF709FD052001A900F063FA0128EE
:105AD00020D10F20694600F05DFA01281AD10E206E
:105AE000694600F057FA002222609DF8031042EA4E
:105AF000016222609DF8021042EA014121609DF896
:105B0000012041EA022121609DF80020114321601B
:105B1000012800D000201CBD38B50C4600F00C0058
:105B20006946801C00F036FA002121609DF80320B0
:105B300041EA026121609DF8022041EA02412160B0
:105B40009DF8012041EA022121609DF800201143C7
:105B50002160012800D0002038BD00002DE9F0416F
:105B600014460F46054608E039462846FFF762FF0F
